{
  "contractName": "Insurance",
  "abi": [
    {
      "constant": true,
      "inputs": [],
      "name": "name",
      "outputs": [
        {
          "name": "",
          "type": "string"
        }
      ],
      "payable": false,
      "stateMutability": "view",
      "type": "function",
      "signature": "0x06fdde03"
    },
    {
      "constant": true,
      "inputs": [
        {
          "name": "",
          "type": "uint256"
        }
      ],
      "name": "products",
      "outputs": [
        {
          "name": "id",
          "type": "uint256"
        },
        {
          "name": "name",
          "type": "string"
        },
        {
          "name": "price",
          "type": "uint256"
        },
        {
          "name": "insurancePrice",
          "type": "uint256"
        },
        {
          "name": "owner",
          "type": "address"
        },
        {
          "name": "insuranceOwner",
          "type": "address"
        },
        {
          "name": "purchased",
          "type": "bool"
        },
        {
          "name": "insurancePurchased",
          "type": "bool"
        },
        {
          "name": "claimedPolice",
          "type": "bool"
        },
        {
          "name": "claimedRepair",
          "type": "bool"
        }
      ],
      "payable": false,
      "stateMutability": "view",
      "type": "function",
      "signature": "0x7acc0b20"
    },
    {
      "constant": true,
      "inputs": [],
      "name": "productCount",
      "outputs": [
        {
          "name": "",
          "type": "uint256"
        }
      ],
      "payable": false,
      "stateMutability": "view",
      "type": "function",
      "signature": "0xe0f6ef87"
    },
    {
      "anonymous": false,
      "inputs": [
        {
          "indexed": false,
          "name": "id",
          "type": "uint256"
        },
        {
          "indexed": false,
          "name": "name",
          "type": "string"
        },
        {
          "indexed": false,
          "name": "price",
          "type": "uint256"
        },
        {
          "indexed": false,
          "name": "insurancePrice",
          "type": "uint256"
        },
        {
          "indexed": false,
          "name": "owner",
          "type": "address"
        },
        {
          "indexed": false,
          "name": "insuranceOwner",
          "type": "address"
        },
        {
          "indexed": false,
          "name": "purchased",
          "type": "bool"
        },
        {
          "indexed": false,
          "name": "insurancePurchased",
          "type": "bool"
        },
        {
          "indexed": false,
          "name": "claimedPolice",
          "type": "bool"
        },
        {
          "indexed": false,
          "name": "claimedRepair",
          "type": "bool"
        }
      ],
      "name": "ProductCreated",
      "type": "event",
      "signature": "0x53d2d11e03f857104735d9b9149ca908d19d5dd5d2dbfa8fa2bee67be2ddbe3a"
    },
    {
      "anonymous": false,
      "inputs": [
        {
          "indexed": false,
          "name": "id",
          "type": "uint256"
        },
        {
          "indexed": false,
          "name": "name",
          "type": "string"
        },
        {
          "indexed": false,
          "name": "price",
          "type": "uint256"
        },
        {
          "indexed": false,
          "name": "insurancePrice",
          "type": "uint256"
        },
        {
          "indexed": false,
          "name": "owner",
          "type": "address"
        },
        {
          "indexed": false,
          "name": "insuranceOwner",
          "type": "address"
        },
        {
          "indexed": false,
          "name": "purchased",
          "type": "bool"
        },
        {
          "indexed": false,
          "name": "insurancePurchased",
          "type": "bool"
        },
        {
          "indexed": false,
          "name": "claimedPolice",
          "type": "bool"
        },
        {
          "indexed": false,
          "name": "claimedRepair",
          "type": "bool"
        }
      ],
      "name": "ProductPurchased",
      "type": "event",
      "signature": "0x3db5b0eb4101db741512e824c0ae1276afa0be5b89b6dd066c8dc3a85b4536d8"
    },
    {
      "anonymous": false,
      "inputs": [
        {
          "indexed": false,
          "name": "id",
          "type": "uint256"
        },
        {
          "indexed": false,
          "name": "name",
          "type": "string"
        },
        {
          "indexed": false,
          "name": "price",
          "type": "uint256"
        },
        {
          "indexed": false,
          "name": "insurancePrice",
          "type": "uint256"
        },
        {
          "indexed": false,
          "name": "owner",
          "type": "address"
        },
        {
          "indexed": false,
          "name": "insuranceOwner",
          "type": "address"
        },
        {
          "indexed": false,
          "name": "purchased",
          "type": "bool"
        },
        {
          "indexed": false,
          "name": "insurancePurchased",
          "type": "bool"
        },
        {
          "indexed": false,
          "name": "claimedPolice",
          "type": "bool"
        },
        {
          "indexed": false,
          "name": "claimedRepair",
          "type": "bool"
        }
      ],
      "name": "InsurancePurchased",
      "type": "event",
      "signature": "0x6eff7f864185e7453d90c228864226727638493641c129dd7fae4caf4689ed4b"
    },
    {
      "anonymous": false,
      "inputs": [
        {
          "indexed": false,
          "name": "id",
          "type": "uint256"
        },
        {
          "indexed": false,
          "name": "name",
          "type": "string"
        },
        {
          "indexed": false,
          "name": "price",
          "type": "uint256"
        },
        {
          "indexed": false,
          "name": "insurancePrice",
          "type": "uint256"
        },
        {
          "indexed": false,
          "name": "owner",
          "type": "address"
        },
        {
          "indexed": false,
          "name": "insuranceOwner",
          "type": "address"
        },
        {
          "indexed": false,
          "name": "purchased",
          "type": "bool"
        },
        {
          "indexed": false,
          "name": "insurancePurchased",
          "type": "bool"
        },
        {
          "indexed": false,
          "name": "claimedPolice",
          "type": "bool"
        },
        {
          "indexed": false,
          "name": "claimedRepair",
          "type": "bool"
        }
      ],
      "name": "PoliceClaimed",
      "type": "event",
      "signature": "0xdf49188ed3c79c2f5901990ef351a4e24146e0396c1b49fc570faeefaa9d759a"
    },
    {
      "anonymous": false,
      "inputs": [
        {
          "indexed": false,
          "name": "id",
          "type": "uint256"
        },
        {
          "indexed": false,
          "name": "name",
          "type": "string"
        },
        {
          "indexed": false,
          "name": "price",
          "type": "uint256"
        },
        {
          "indexed": false,
          "name": "insurancePrice",
          "type": "uint256"
        },
        {
          "indexed": false,
          "name": "owner",
          "type": "address"
        },
        {
          "indexed": false,
          "name": "insuranceOwner",
          "type": "address"
        },
        {
          "indexed": false,
          "name": "purchased",
          "type": "bool"
        },
        {
          "indexed": false,
          "name": "insurancePurchased",
          "type": "bool"
        },
        {
          "indexed": false,
          "name": "claimedPolice",
          "type": "bool"
        },
        {
          "indexed": false,
          "name": "claimedRepair",
          "type": "bool"
        }
      ],
      "name": "RepairClaimed",
      "type": "event",
      "signature": "0xc50afcb9205ff98429d555cb37e9e790494eb7bac8a948091bbcedcb02a3d4a7"
    },
    {
      "constant": false,
      "inputs": [
        {
          "name": "_name",
          "type": "string"
        },
        {
          "name": "_price",
          "type": "uint256"
        },
        {
          "name": "_insurancePrice",
          "type": "uint256"
        }
      ],
      "name": "createProduct",
      "outputs": [],
      "payable": false,
      "stateMutability": "nonpayable",
      "type": "function",
      "signature": "0x7bf12b1c"
    },
    {
      "constant": false,
      "inputs": [
        {
          "name": "_id",
          "type": "uint256"
        }
      ],
      "name": "purchaseProduct",
      "outputs": [],
      "payable": true,
      "stateMutability": "payable",
      "type": "function",
      "signature": "0x38e76a03"
    },
    {
      "constant": false,
      "inputs": [
        {
          "name": "_id",
          "type": "uint256"
        }
      ],
      "name": "purchaseInsurance",
      "outputs": [],
      "payable": true,
      "stateMutability": "payable",
      "type": "function",
      "signature": "0xe64e4588"
    },
    {
      "constant": false,
      "inputs": [
        {
          "name": "_id",
          "type": "uint256"
        }
      ],
      "name": "claimPolice",
      "outputs": [],
      "payable": false,
      "stateMutability": "nonpayable",
      "type": "function",
      "signature": "0x419c2a05"
    },
    {
      "constant": false,
      "inputs": [
        {
          "name": "_id",
          "type": "uint256"
        }
      ],
      "name": "claimRepair",
      "outputs": [],
      "payable": false,
      "stateMutability": "nonpayable",
      "type": "function",
      "signature": "0xf8e893eb"
    }
  ],
  "bytecode": "0x6080604052600060015534801561001557600080fd5b506128d6806100256000396000f3fe60806040526004361061008e576000357c0100000000000000000000000000000000000000000000000000000000900463ffffffff16806306fdde031461009357806338e76a0314610123578063419c2a05146101515780637acc0b201461018c5780637bf12b1c146102e7578063e0f6ef87146103c3578063e64e4588146103ee578063f8e893eb1461041c575b600080fd5b34801561009f57600080fd5b506100a8610457565b6040518080602001828103825283818151815260200191508051906020019080838360005b838110156100e85780820151818401526020810190506100cd565b50505050905090810190601f1680156101155780820380516001836020036101000a031916815260200191505b509250505060405180910390f35b61014f6004803603602081101561013957600080fd5b81019080803590602001909291905050506104f5565b005b34801561015d57600080fd5b5061018a6004803603602081101561017457600080fd5b8101908080359060200190929190505050610bec565b005b34801561019857600080fd5b506101c5600480360360208110156101af57600080fd5b8101908080359060200190929190505050611356565b604051808b8152602001806020018a81526020018981526020018873ffffffffffffffffffffffffffffffffffffffff1673ffffffffffffffffffffffffffffffffffffffff1681526020018773ffffffffffffffffffffffffffffffffffffffff1673ffffffffffffffffffffffffffffffffffffffff1681526020018615151515815260200185151515158152602001841515151581526020018315151515815260200182810382528b818151815260200191508051906020019080838360005b838110156102a3578082015181840152602081019050610288565b50505050905090810190601f1680156102d05780820380516001836020036101000a031916815260200191505b509b50505050505050505050505060405180910390f35b3480156102f357600080fd5b506103c16004803603606081101561030a57600080fd5b810190808035906020019064010000000081111561032757600080fd5b82018360208201111561033957600080fd5b8035906020019184600183028401116401000000008311171561035b57600080fd5b91908080601f016020809104026020016040519081016040528093929190818152602001838380828437600081840152601f19601f82011690508083019250505050505050919291929080359060200190929190803590602001909291905050506114b6565b005b3480156103cf57600080fd5b506103d86118fb565b6040518082815260200191505060405180910390f35b61041a6004803603602081101561040457600080fd5b8101908080359060200190929190505050611901565b005b34801561042857600080fd5b506104556004803603602081101561043f57600080fd5b8101908080359060200190929190505050612013565b005b60008054600181600116156101000203166002900480601f0160208091040260200160405190810160405280929190818152602001828054600181600116156101000203166002900480156104ed5780601f106104c2576101008083540402835291602001916104ed565b820191906000526020600020905b8154815290600101906020018083116104d057829003601f168201915b505050505081565b6104fd61277d565b60026000838152602001908152602001600020610140604051908101604052908160008201548152602001600182018054600181600116156101000203166002900480601f0160208091040260200160405190810160405280929190818152602001828054600181600116156101000203166002900480156105c05780601f10610595576101008083540402835291602001916105c0565b820191906000526020600020905b8154815290600101906020018083116105a357829003601f168201915b5050505050815260200160028201548152602001600382015481526020016004820160009054906101000a900473ffffffffffffffffffffffffffffffffffffffff1673ffffffffffffffffffffffffffffffffffffffff1673ffffffffffffffffffffffffffffffffffffffff1681526020016005820160009054906101000a900473ffffffffffffffffffffffffffffffffffffffff1673ffffffffffffffffffffffffffffffffffffffff1673ffffffffffffffffffffffffffffffffffffffff1681526020016005820160149054906101000a900460ff161515151581526020016005820160159054906101000a900460ff161515151581526020016005820160169054906101000a900460ff161515151581526020016005820160179054906101000a900460ff16151515158152505090506000816080015190506000826000015111801561071a5750600154826000015111155b1515610769576040517f08c379a0000000000000000000000000000000000000000000000000000000008152600401808060200182810382526000815260200160200191505060405180910390fd5b816040015134101515156107c0576040517f08c379a0000000000000000000000000000000000000000000000000000000008152600401808060200182810382526000815260200160200191505060405180910390fd5b8160c00151151515610815576040517f08c379a0000000000000000000000000000000000000000000000000000000008152600401808060200182810382526000815260200160200191505060405180910390fd5b3373ffffffffffffffffffffffffffffffffffffffff168173ffffffffffffffffffffffffffffffffffffffff1614151515610894576040517f08c379a0000000000000000000000000000000000000000000000000000000008152600401808060200182810382526000815260200160200191505060405180910390fd5b33826080019073ffffffffffffffffffffffffffffffffffffffff16908173ffffffffffffffffffffffffffffffffffffffff168152505060018260c00190151590811515815250508160026000858152602001908152602001600020600082015181600001556020820151816001019080519060200190610917929190612805565b50604082015181600201556060820151816003015560808201518160040160006101000a81548173ffffffffffffffffffffffffffffffffffffffff021916908373ffffffffffffffffffffffffffffffffffffffff16021790555060a08201518160050160006101000a81548173ffffffffffffffffffffffffffffffffffffffff021916908373ffffffffffffffffffffffffffffffffffffffff16021790555060c08201518160050160146101000a81548160ff02191690831515021790555060e08201518160050160156101000a81548160ff0219169083151502179055506101008201518160050160166101000a81548160ff0219169083151502179055506101208201518160050160176101000a81548160ff0219169083151502179055509050508073ffffffffffffffffffffffffffffffffffffffff166108fc349081150290604051600060405180830381858888f19350505050158015610a85573d6000803e3d6000fd5b507f3db5b0eb4101db741512e824c0ae1276afa0be5b89b6dd066c8dc3a85b4536d8600154836020015184604001518560600151338760a0015160016000806000604051808b8152602001806020018a81526020018981526020018873ffffffffffffffffffffffffffffffffffffffff1673ffffffffffffffffffffffffffffffffffffffff1681526020018773ffffffffffffffffffffffffffffffffffffffff1673ffffffffffffffffffffffffffffffffffffffff1681526020018615151515815260200185151515158152602001841515151581526020018315151515815260200182810382528b818151815260200191508051906020019080838360005b83811015610ba4578082015181840152602081019050610b89565b50505050905090810190601f168015610bd15780820380516001836020036101000a031916815260200191505b509b50505050505050505050505060405180910390a1505050565b610bf461277d565b60026000838152602001908152602001600020610140604051908101604052908160008201548152602001600182018054600181600116156101000203166002900480601f016020809104026020016040519081016040528092919081815260200182805460018160011615610100020316600290048015610cb75780601f10610c8c57610100808354040283529160200191610cb7565b820191906000526020600020905b815481529060010190602001808311610c9a57829003601f168201915b5050505050815260200160028201548152602001600382015481526020016004820160009054906101000a900473ffffffffffffffffffffffffffffffffffffffff1673ffffffffffffffffffffffffffffffffffffffff1673ffffffffffffffffffffffffffffffffffffffff1681526020016005820160009054906101000a900473ffffffffffffffffffffffffffffffffffffffff1673ffffffffffffffffffffffffffffffffffffffff1673ffffffffffffffffffffffffffffffffffffffff1681526020016005820160149054906101000a900460ff161515151581526020016005820160159054906101000a900460ff161515151581526020016005820160169054906101000a900460ff161515151581526020016005820160179054906101000a900460ff16151515158152505090508060c001511515610e8d576040517f08c379a00000000000000000000000000000000000000000000000000000000081526004018080602001828103825260228152602001807f796f752068617665206e6f7420707572636861736564207468652070726f647581526020017f637400000000000000000000000000000000000000000000000000000000000081525060400191505060405180910390fd5b8060e001511515610f2c576040517f08c379a00000000000000000000000000000000000000000000000000000000081526004018080602001828103825260248152602001807f796f752068617665206e6f74207075726368617365642074686520696e73757281526020017f616e63650000000000000000000000000000000000000000000000000000000081525060400191505060405180910390fd5b806101200151151515610fcd576040517f08c379a00000000000000000000000000000000000000000000000000000000081526004018080602001828103825260228152602001807f72657061697220697320636c61696d656420666f7220746869732070726f647581526020017f637400000000000000000000000000000000000000000000000000000000000081525060400191505060405180910390fd5b80610100015115151561106e576040517f08c379a00000000000000000000000000000000000000000000000000000000081526004018080602001828103825260228152602001807f706f6c69636520697320636c61696d656420666f7220746869732070726f647581526020017f637400000000000000000000000000000000000000000000000000000000000081525060400191505060405180910390fd5b60018161010001901515908115158152505080600260008481526020019081526020016000206000820151816000015560208201518160010190805190602001906110ba929190612805565b50604082015181600201556060820151816003015560808201518160040160006101000a81548173ffffffffffffffffffffffffffffffffffffffff021916908373ffffffffffffffffffffffffffffffffffffffff16021790555060a08201518160050160006101000a81548173ffffffffffffffffffffffffffffffffffffffff021916908373ffffffffffffffffffffffffffffffffffffffff16021790555060c08201518160050160146101000a81548160ff02191690831515021790555060e08201518160050160156101000a81548160ff0219169083151502179055506101008201518160050160166101000a81548160ff0219169083151502179055506101208201518160050160176101000a81548160ff0219169083151502179055509050507fdf49188ed3c79c2f5901990ef351a4e24146e0396c1b49fc570faeefaa9d759a60015482602001518360400151846060015185608001518660a001518760c001518860e0015160018a6101200151604051808b8152602001806020018a81526020018981526020018873ffffffffffffffffffffffffffffffffffffffff1673ffffffffffffffffffffffffffffffffffffffff1681526020018773ffffffffffffffffffffffffffffffffffffffff1673ffffffffffffffffffffffffffffffffffffffff1681526020018615151515815260200185151515158152602001841515151581526020018315151515815260200182810382528b818151815260200191508051906020019080838360005b8381101561130f5780820151818401526020810190506112f4565b50505050905090810190601f16801561133c5780820380516001836020036101000a031916815260200191505b509b50505050505050505050505060405180910390a15050565b6002602052806000526040600020600091509050806000015490806001018054600181600116156101000203166002900480601f0160208091040260200160405190810160405280929190818152602001828054600181600116156101000203166002900480156114085780601f106113dd57610100808354040283529160200191611408565b820191906000526020600020905b8154815290600101906020018083116113eb57829003601f168201915b5050505050908060020154908060030154908060040160009054906101000a900473ffffffffffffffffffffffffffffffffffffffff16908060050160009054906101000a900473ffffffffffffffffffffffffffffffffffffffff16908060050160149054906101000a900460ff16908060050160159054906101000a900460ff16908060050160169054906101000a900460ff16908060050160179054906101000a900460ff1690508a565b6000835111151561150a576040517f08c379a0000000000000000000000000000000000000000000000000000000008152600401808060200182810382526000815260200160200191505060405180910390fd5b60008211151561155d576040517f08c379a0000000000000000000000000000000000000000000000000000000008152600401808060200182810382526000815260200160200191505060405180910390fd5b6000811115156115b0576040517f08c379a0000000000000000000000000000000000000000000000000000000008152600401808060200182810382526000815260200160200191505060405180910390fd5b6001600081548092919060010191905055506101406040519081016040528060015481526020018481526020018381526020018281526020013373ffffffffffffffffffffffffffffffffffffffff1681526020013373ffffffffffffffffffffffffffffffffffffffff1681526020016000151581526020016000151581526020016000151581526020016000151581525060026000600154815260200190815260200160002060008201518160000155602082015181600101908051906020019061167e929190612805565b50604082015181600201556060820151816003015560808201518160040160006101000a81548173ffffffffffffffffffffffffffffffffffffffff021916908373ffffffffffffffffffffffffffffffffffffffff16021790555060a08201518160050160006101000a81548173ffffffffffffffffffffffffffffffffffffffff021916908373ffffffffffffffffffffffffffffffffffffffff16021790555060c08201518160050160146101000a81548160ff02191690831515021790555060e08201518160050160156101000a81548160ff0219169083151502179055506101008201518160050160166101000a81548160ff0219169083151502179055506101208201518160050160176101000a81548160ff0219169083151502179055509050507f53d2d11e03f857104735d9b9149ca908d19d5dd5d2dbfa8fa2bee67be2ddbe3a6001548484843333600080600080604051808b8152602001806020018a81526020018981526020018873ffffffffffffffffffffffffffffffffffffffff1673ffffffffffffffffffffffffffffffffffffffff1681526020018773ffffffffffffffffffffffffffffffffffffffff1673ffffffffffffffffffffffffffffffffffffffff1681526020018615151515815260200185151515158152602001841515151581526020018315151515815260200182810382528b818151815260200191508051906020019080838360005b838110156118b3578082015181840152602081019050611898565b50505050905090810190601f1680156118e05780820380516001836020036101000a031916815260200191505b509b50505050505050505050505060405180910390a1505050565b60015481565b61190961277d565b60026000838152602001908152602001600020610140604051908101604052908160008201548152602001600182018054600181600116156101000203166002900480601f0160208091040260200160405190810160405280929190818152602001828054600181600116156101000203166002900480156119cc5780601f106119a1576101008083540402835291602001916119cc565b820191906000526020600020905b8154815290600101906020018083116119af57829003601f168201915b5050505050815260200160028201548152602001600382015481526020016004820160009054906101000a900473ffffffffffffffffffffffffffffffffffffffff1673ffffffffffffffffffffffffffffffffffffffff1673ffffffffffffffffffffffffffffffffffffffff1681526020016005820160009054906101000a900473ffffffffffffffffffffffffffffffffffffffff1673ffffffffffffffffffffffffffffffffffffffff1673ffffffffffffffffffffffffffffffffffffffff1681526020016005820160149054906101000a900460ff161515151581526020016005820160159054906101000a900460ff161515151581526020016005820160169054906101000a900460ff161515151581526020016005820160179054906101000a900460ff161515151581525050905060008160a00151905060008260000151118015611b265750600154826000015111155b1515611b75576040517f08c379a0000000000000000000000000000000000000000000000000000000008152600401808060200182810382526000815260200160200191505060405180910390fd5b81606001513410151515611bcc576040517f08c379a0000000000000000000000000000000000000000000000000000000008152600401808060200182810382526000815260200160200191505060405180910390fd5b8160c001511515611c20576040517f08c379a0000000000000000000000000000000000000000000000000000000008152600401808060200182810382526000815260200160200191505060405180910390fd5b8160e00151151515611c75576040517f08c379a0000000000000000000000000000000000000000000000000000000008152600401808060200182810382526000815260200160200191505060405180910390fd5b3373ffffffffffffffffffffffffffffffffffffffff168173ffffffffffffffffffffffffffffffffffffffff1614151515611cf4576040517f08c379a0000000000000000000000000000000000000000000000000000000008152600401808060200182810382526000815260200160200191505060405180910390fd5b60018260e00190151590811515815250508160026000858152602001908152602001600020600082015181600001556020820151816001019080519060200190611d3f929190612805565b50604082015181600201556060820151816003015560808201518160040160006101000a81548173ffffffffffffffffffffffffffffffffffffffff021916908373ffffffffffffffffffffffffffffffffffffffff16021790555060a08201518160050160006101000a81548173ffffffffffffffffffffffffffffffffffffffff021916908373ffffffffffffffffffffffffffffffffffffffff16021790555060c08201518160050160146101000a81548160ff02191690831515021790555060e08201518160050160156101000a81548160ff0219169083151502179055506101008201518160050160166101000a81548160ff0219169083151502179055506101208201518160050160176101000a81548160ff0219169083151502179055509050508073ffffffffffffffffffffffffffffffffffffffff166108fc349081150290604051600060405180830381858888f19350505050158015611ead573d6000803e3d6000fd5b507f6eff7f864185e7453d90c228864226727638493641c129dd7fae4caf4689ed4b600154836020015184604001518560600151338760a00151600180600080604051808b8152602001806020018a81526020018981526020018873ffffffffffffffffffffffffffffffffffffffff1673ffffffffffffffffffffffffffffffffffffffff1681526020018773ffffffffffffffffffffffffffffffffffffffff1673ffffffffffffffffffffffffffffffffffffffff1681526020018615151515815260200185151515158152602001841515151581526020018315151515815260200182810382528b818151815260200191508051906020019080838360005b83811015611fcb578082015181840152602081019050611fb0565b50505050905090810190601f168015611ff85780820380516001836020036101000a031916815260200191505b509b50505050505050505050505060405180910390a1505050565b61201b61277d565b60026000838152602001908152602001600020610140604051908101604052908160008201548152602001600182018054600181600116156101000203166002900480601f0160208091040260200160405190810160405280929190818152602001828054600181600116156101000203166002900480156120de5780601f106120b3576101008083540402835291602001916120de565b820191906000526020600020905b8154815290600101906020018083116120c157829003601f168201915b5050505050815260200160028201548152602001600382015481526020016004820160009054906101000a900473ffffffffffffffffffffffffffffffffffffffff1673ffffffffffffffffffffffffffffffffffffffff1673ffffffffffffffffffffffffffffffffffffffff1681526020016005820160009054906101000a900473ffffffffffffffffffffffffffffffffffffffff1673ffffffffffffffffffffffffffffffffffffffff1673ffffffffffffffffffffffffffffffffffffffff1681526020016005820160149054906101000a900460ff161515151581526020016005820160159054906101000a900460ff161515151581526020016005820160169054906101000a900460ff161515151581526020016005820160179054906101000a900460ff16151515158152505090508060c0015115156122b4576040517f08c379a00000000000000000000000000000000000000000000000000000000081526004018080602001828103825260228152602001807f796f752068617665206e6f7420707572636861736564207468652070726f647581526020017f637400000000000000000000000000000000000000000000000000000000000081525060400191505060405180910390fd5b8060e001511515612353576040517f08c379a00000000000000000000000000000000000000000000000000000000081526004018080602001828103825260248152602001807f796f752068617665206e6f74207075726368617365642074686520696e73757281526020017f616e63650000000000000000000000000000000000000000000000000000000081525060400191505060405180910390fd5b8061010001511515156123f4576040517f08c379a00000000000000000000000000000000000000000000000000000000081526004018080602001828103825260228152602001807f706f6c69636520697320636c61696d656420666f7220746869732070726f647581526020017f637400000000000000000000000000000000000000000000000000000000000081525060400191505060405180910390fd5b806101200151151515612495576040517f08c379a00000000000000000000000000000000000000000000000000000000081526004018080602001828103825260228152602001807f72657061697220697320636c61696d656420666f7220746869732070726f647581526020017f637400000000000000000000000000000000000000000000000000000000000081525060400191505060405180910390fd5b60018161012001901515908115158152505080600260008481526020019081526020016000206000820151816000015560208201518160010190805190602001906124e1929190612805565b50604082015181600201556060820151816003015560808201518160040160006101000a81548173ffffffffffffffffffffffffffffffffffffffff021916908373ffffffffffffffffffffffffffffffffffffffff16021790555060a08201518160050160006101000a81548173ffffffffffffffffffffffffffffffffffffffff021916908373ffffffffffffffffffffffffffffffffffffffff16021790555060c08201518160050160146101000a81548160ff02191690831515021790555060e08201518160050160156101000a81548160ff0219169083151502179055506101008201518160050160166101000a81548160ff0219169083151502179055506101208201518160050160176101000a81548160ff0219169083151502179055509050507fc50afcb9205ff98429d555cb37e9e790494eb7bac8a948091bbcedcb02a3d4a760015482602001518360400151846060015185608001518660a001518760c001518860e001518961010001516001604051808b8152602001806020018a81526020018981526020018873ffffffffffffffffffffffffffffffffffffffff1673ffffffffffffffffffffffffffffffffffffffff1681526020018773ffffffffffffffffffffffffffffffffffffffff1673ffffffffffffffffffffffffffffffffffffffff1681526020018615151515815260200185151515158152602001841515151581526020018315151515815260200182810382528b818151815260200191508051906020019080838360005b8381101561273657808201518184015260208101905061271b565b50505050905090810190601f1680156127635780820380516001836020036101000a031916815260200191505b509b50505050505050505050505060405180910390a15050565b6101406040519081016040528060008152602001606081526020016000815260200160008152602001600073ffffffffffffffffffffffffffffffffffffffff168152602001600073ffffffffffffffffffffffffffffffffffffffff1681526020016000151581526020016000151581526020016000151581526020016000151581525090565b828054600181600116156101000203166002900490600052602060002090601f016020900481019282601f1061284657805160ff1916838001178555612874565b82800160010185558215612874579182015b82811115612873578251825591602001919060010190612858565b5b5090506128819190612885565b5090565b6128a791905b808211156128a357600081600090555060010161288b565b5090565b9056fea165627a7a723058201e3c4db9d4ae15f5c730a87a55e60d5279ffac17b325d0dc4e5c8aa4da82a1ed0029",
  "source": "pragma solidity ^0.5.0;\n\n\ncontract Insurance {\n    string public name;\n    uint256 public productCount = 0;\n    mapping(uint256 => Product) public products;\n\n    struct Product {\n        uint256 id;\n        string name;\n        uint256 price;\n        uint256 insurancePrice;\n        address payable owner;\n        address payable insuranceOwner;\n        bool purchased;\n        bool insurancePurchased;\n        bool claimedPolice;\n        bool claimedRepair;\n    }\n\n    event ProductCreated(\n        uint256 id,\n        string name,\n        uint256 price,\n        uint256 insurancePrice,\n        address payable owner,\n        address payable insuranceOwner,\n        bool purchased,\n        bool insurancePurchased,\n        bool claimedPolice,\n        bool claimedRepair\n    );\n\n    event ProductPurchased(\n        uint256 id,\n        string name,\n        uint256 price,\n        uint256 insurancePrice,\n        address payable owner,\n        address payable insuranceOwner,\n        bool purchased,\n        bool insurancePurchased,\n        bool claimedPolice,\n        bool claimedRepair\n    );\n\n    event InsurancePurchased(\n        uint256 id,\n        string name,\n        uint256 price,\n        uint256 insurancePrice,\n        address payable owner,\n        address payable insuranceOwner,\n        bool purchased,\n        bool insurancePurchased,\n        bool claimedPolice,\n        bool claimedRepair\n    );\n\n     event PoliceClaimed(\n        uint256 id,\n        string name,\n        uint256 price,\n        uint256 insurancePrice,\n        address payable owner,\n        address payable insuranceOwner,\n        bool purchased,\n        bool insurancePurchased,\n        bool claimedPolice,\n        bool claimedRepair\n    );\n\n    event RepairClaimed(\n        uint256 id,\n        string name,\n        uint256 price,\n        uint256 insurancePrice,\n        address payable owner,\n        address payable insuranceOwner,\n        bool purchased,\n        bool insurancePurchased,\n        bool claimedPolice,\n        bool claimedRepair\n    );\n\n    function createProduct(string memory _name, uint256 _price, uint256 _insurancePrice) public {\n        // Require a valid name\n        require(bytes(_name).length > 0, \"\");\n        // Require a valid price\n        require(_price > 0, \"\");\n        // Require a valid insurance price\n        require(_insurancePrice > 0, \"\");\n        // Increment product count\n        productCount++;\n        // Create the product\n        products[productCount] = Product(\n            productCount,\n            _name,\n            _price,\n            _insurancePrice,\n            msg.sender,\n            msg.sender,\n            false,\n            false,\n            false,\n            false\n        );\n        // Trigger an event\n        emit ProductCreated(\n            productCount,\n            _name,\n            _price,\n            _insurancePrice,\n            msg.sender,\n            msg.sender,\n            false,\n            false,\n            false,\n            false\n        );\n    }\n\n    function purchaseProduct(uint256 _id) public payable {\n        // Fetch the product\n        Product memory _product = products[_id];\n        // Fetch the owner\n        address payable _seller = _product.owner;\n        // Make sure the product has a valid id\n        require(_product.id > 0 && _product.id <= productCount, \"\");\n        // Require that there is enough Ether in the transaction\n        require(msg.value >= _product.price, \"\");\n        // Require that the product has not been purchased already\n        require(!_product.purchased, \"\");\n        // Require that the buyer is not the seller\n        require(_seller != msg.sender, \"\");\n        // Transfer ownership to the buyer\n        _product.owner = msg.sender;\n        // Mark as purchased\n        _product.purchased = true;\n        // Update the product\n        products[_id] = _product;\n        // Pay the seller by sending them Ether\n        address(_seller).transfer(msg.value);\n        // Trigger an event\n        emit ProductPurchased(\n            productCount,\n            _product.name,\n            _product.price,\n            _product.insurancePrice,\n            msg.sender,\n            _product.insuranceOwner,\n            true,\n            false,\n            false,\n            false\n        );\n    }\n\n    function purchaseInsurance(uint256 _id) public payable {\n        // Fetch the product\n        Product memory _product = products[_id];\n        // Fetch the owner\n        address payable _seller = _product.insuranceOwner;\n        // Make sure the product has a valid id\n        require(_product.id > 0 && _product.id <= productCount, \"\");\n        // Require that there is enough Ether in the transaction\n        require(msg.value >= _product.insurancePrice, \"\");\n        // Require that the product has not been purchased already\n        require(_product.purchased, \"\");\n        // Require that the product has not been purchased already\n        require(!_product.insurancePurchased, \"\");\n        // Require that the buyer is not the seller\n        require(_seller != msg.sender, \"\");\n        // Mark as purchased\n        _product.insurancePurchased = true;\n        // Update the product\n        products[_id] = _product;\n        // Pay the seller by sending them Ether\n        address(_seller).transfer(msg.value);\n        // Trigger an event\n        emit InsurancePurchased(\n            productCount,\n            _product.name,\n            _product.price,\n            _product.insurancePrice,\n            msg.sender,\n            _product.insuranceOwner,\n            true,\n            true,\n            false,\n            false\n        );\n    }\n\n    function claimPolice(uint256 _id) public {\n      Product memory _product = products[_id];\n      require(_product.purchased, 'you have not purchased the product');\n      require(_product.insurancePurchased, 'you have not purchased the insurance');\n      require(!_product.claimedRepair, 'repair is claimed for this product');\n      require(!_product.claimedPolice, 'police is claimed for this product');\n      _product.claimedPolice = true;\n      products[_id] = _product;\n      emit PoliceClaimed(\n            productCount,\n            _product.name,\n            _product.price,\n            _product.insurancePrice,\n            _product.owner,\n            _product.insuranceOwner,\n            _product.purchased,\n            _product.insurancePurchased,\n            true,\n            _product.claimedRepair\n        );\n    }\n\n    function claimRepair(uint256 _id) public {\n      Product memory _product = products[_id];\n      require(_product.purchased, 'you have not purchased the product');\n      require(_product.insurancePurchased, 'you have not purchased the insurance');\n      require(!_product.claimedPolice, 'police is claimed for this product');\n      require(!_product.claimedRepair, 'repair is claimed for this product');\n      _product.claimedRepair = true;\n      products[_id] = _product;\n      emit RepairClaimed(\n            productCount,\n            _product.name,\n            _product.price,\n            _product.insurancePrice,\n            _product.owner,\n            _product.insuranceOwner,\n            _product.purchased,\n            _product.insurancePurchased,\n            _product.claimedPolice,\n            true\n        );\n    }\n}\n",
  "sourcePath": "/home/pavansoratur/Github/InsuranceDapp/src/contracts/Insurance.sol",
  "compiler": {
    "name": "solc",
    "version": "0.5.0+commit.1d4f565a.Emscripten.clang"
  },
  "schemaVersion": "3.0.2",
  "updatedAt": "2020-05-15T10:10:44.852Z",
  "devdoc": {
    "methods": {}
  },
  "userdoc": {
    "methods": {}
  }
}