{
  "contractName": "Insurance",
  "abi": [
    {
      "constant": true,
      "inputs": [],
      "name": "name",
      "outputs": [
        {
          "name": "",
          "type": "string"
        }
      ],
      "payable": false,
      "stateMutability": "view",
      "type": "function",
      "signature": "0x06fdde03"
    },
    {
      "constant": true,
      "inputs": [
        {
          "name": "",
          "type": "uint256"
        }
      ],
      "name": "products",
      "outputs": [
        {
          "name": "id",
          "type": "uint256"
        },
        {
          "name": "name",
          "type": "string"
        },
        {
          "name": "price",
          "type": "uint256"
        },
        {
          "name": "insurancePrice",
          "type": "uint256"
        },
        {
          "name": "owner",
          "type": "address"
        },
        {
          "name": "insuranceOwner",
          "type": "address"
        },
        {
          "name": "purchased",
          "type": "bool"
        },
        {
          "name": "insurancePurchased",
          "type": "bool"
        },
        {
          "name": "claimedPolice",
          "type": "bool"
        },
        {
          "name": "claimedRepair",
          "type": "bool"
        },
        {
          "name": "isStolen",
          "type": "bool"
        },
        {
          "name": "isRepaired",
          "type": "bool"
        },
        {
          "name": "isReimbursed",
          "type": "bool"
        },
        {
          "name": "paidRepairShop",
          "type": "bool"
        }
      ],
      "payable": false,
      "stateMutability": "view",
      "type": "function",
      "signature": "0x7acc0b20"
    },
    {
      "constant": true,
      "inputs": [],
      "name": "productCount",
      "outputs": [
        {
          "name": "",
          "type": "uint256"
        }
      ],
      "payable": false,
      "stateMutability": "view",
      "type": "function",
      "signature": "0xe0f6ef87"
    },
    {
      "anonymous": false,
      "inputs": [
        {
          "indexed": false,
          "name": "id",
          "type": "uint256"
        },
        {
          "indexed": false,
          "name": "name",
          "type": "string"
        },
        {
          "indexed": false,
          "name": "price",
          "type": "uint256"
        },
        {
          "indexed": false,
          "name": "insurancePrice",
          "type": "uint256"
        },
        {
          "indexed": false,
          "name": "owner",
          "type": "address"
        },
        {
          "indexed": false,
          "name": "insuranceOwner",
          "type": "address"
        },
        {
          "indexed": false,
          "name": "purchased",
          "type": "bool"
        },
        {
          "indexed": false,
          "name": "insurancePurchased",
          "type": "bool"
        },
        {
          "indexed": false,
          "name": "claimedPolice",
          "type": "bool"
        },
        {
          "indexed": false,
          "name": "claimedRepair",
          "type": "bool"
        },
        {
          "indexed": false,
          "name": "isStolen",
          "type": "bool"
        },
        {
          "indexed": false,
          "name": "isRepaired",
          "type": "bool"
        },
        {
          "indexed": false,
          "name": "isReimbursed",
          "type": "bool"
        },
        {
          "indexed": false,
          "name": "paidRepairShop",
          "type": "bool"
        }
      ],
      "name": "ProductCreated",
      "type": "event",
      "signature": "0x7dc113ebe2a59227be95a700733728215380342016add8ff01c2406f68513465"
    },
    {
      "anonymous": false,
      "inputs": [
        {
          "indexed": false,
          "name": "id",
          "type": "uint256"
        },
        {
          "indexed": false,
          "name": "name",
          "type": "string"
        },
        {
          "indexed": false,
          "name": "price",
          "type": "uint256"
        },
        {
          "indexed": false,
          "name": "insurancePrice",
          "type": "uint256"
        },
        {
          "indexed": false,
          "name": "owner",
          "type": "address"
        },
        {
          "indexed": false,
          "name": "insuranceOwner",
          "type": "address"
        },
        {
          "indexed": false,
          "name": "purchased",
          "type": "bool"
        }
      ],
      "name": "ProductPurchased",
      "type": "event",
      "signature": "0x36ac992abe2ddbea8dc80d0a4f5c26d17ee5afd63cbb211c696f7d5163864231"
    },
    {
      "anonymous": false,
      "inputs": [
        {
          "indexed": false,
          "name": "id",
          "type": "uint256"
        },
        {
          "indexed": false,
          "name": "name",
          "type": "string"
        },
        {
          "indexed": false,
          "name": "price",
          "type": "uint256"
        },
        {
          "indexed": false,
          "name": "insurancePrice",
          "type": "uint256"
        },
        {
          "indexed": false,
          "name": "owner",
          "type": "address"
        },
        {
          "indexed": false,
          "name": "insuranceOwner",
          "type": "address"
        },
        {
          "indexed": false,
          "name": "purchased",
          "type": "bool"
        },
        {
          "indexed": false,
          "name": "insurancePurchased",
          "type": "bool"
        }
      ],
      "name": "InsurancePurchased",
      "type": "event",
      "signature": "0xf1541d2179b1bdb3aa4380a42ebad463b137a00b0664a13b021cdf4f660717c0"
    },
    {
      "anonymous": false,
      "inputs": [
        {
          "indexed": false,
          "name": "claimedPolice",
          "type": "bool"
        }
      ],
      "name": "PoliceClaimed",
      "type": "event",
      "signature": "0x474e85f867d1eb17b3fb25d2f4b984cfc488679def09d65c935a215023205a21"
    },
    {
      "anonymous": false,
      "inputs": [
        {
          "indexed": false,
          "name": "claimedRepair",
          "type": "bool"
        }
      ],
      "name": "RepairClaimed",
      "type": "event",
      "signature": "0xf9b6f0074be23a2dff38346b8d82d7e7607559ad1d2b4347b28e20cff0e54cb5"
    },
    {
      "anonymous": false,
      "inputs": [
        {
          "indexed": false,
          "name": "isStolen",
          "type": "bool"
        }
      ],
      "name": "Stolen",
      "type": "event",
      "signature": "0x4c3032070622f679067fe6488b2e2e0379f629b4e8cfc6a803f3d3cba95cb7ac"
    },
    {
      "anonymous": false,
      "inputs": [
        {
          "indexed": false,
          "name": "notStolen",
          "type": "bool"
        }
      ],
      "name": "NotStolen",
      "type": "event",
      "signature": "0xd3d67e20cb06bd1bfd3e6ddd39e14130696107e2649ef4be11eb42bc1796d524"
    },
    {
      "anonymous": false,
      "inputs": [
        {
          "indexed": false,
          "name": "isRepaired",
          "type": "bool"
        }
      ],
      "name": "Repaired",
      "type": "event",
      "signature": "0xad0e2117edca91dc76684a2a464127c0b38e52323d5d0f92f337fbf0181da098"
    },
    {
      "anonymous": false,
      "inputs": [
        {
          "indexed": false,
          "name": "isReimbursed",
          "type": "bool"
        }
      ],
      "name": "Reimbursed",
      "type": "event",
      "signature": "0xd78b15e9df9a5f7179a82a1da177280adfc9efeaca8702d818f8c4e63f042cff"
    },
    {
      "anonymous": false,
      "inputs": [
        {
          "indexed": false,
          "name": "paidRepairShop",
          "type": "bool"
        }
      ],
      "name": "RepairShopPaid",
      "type": "event",
      "signature": "0x273b055fcea08aae10080716dea8512b64be15ecdebe178911786e1fc6418ed2"
    },
    {
      "constant": false,
      "inputs": [
        {
          "name": "_name",
          "type": "string"
        },
        {
          "name": "_price",
          "type": "uint256"
        },
        {
          "name": "_insurancePrice",
          "type": "uint256"
        }
      ],
      "name": "createProduct",
      "outputs": [],
      "payable": false,
      "stateMutability": "nonpayable",
      "type": "function",
      "signature": "0x7bf12b1c"
    },
    {
      "constant": false,
      "inputs": [
        {
          "name": "_id",
          "type": "uint256"
        }
      ],
      "name": "purchaseProduct",
      "outputs": [],
      "payable": true,
      "stateMutability": "payable",
      "type": "function",
      "signature": "0x38e76a03"
    },
    {
      "constant": false,
      "inputs": [
        {
          "name": "_id",
          "type": "uint256"
        }
      ],
      "name": "purchaseInsurance",
      "outputs": [],
      "payable": true,
      "stateMutability": "payable",
      "type": "function",
      "signature": "0xe64e4588"
    },
    {
      "constant": false,
      "inputs": [
        {
          "name": "_id",
          "type": "uint256"
        }
      ],
      "name": "claimPolice",
      "outputs": [],
      "payable": false,
      "stateMutability": "nonpayable",
      "type": "function",
      "signature": "0x419c2a05"
    },
    {
      "constant": false,
      "inputs": [
        {
          "name": "_id",
          "type": "uint256"
        }
      ],
      "name": "claimRepair",
      "outputs": [],
      "payable": false,
      "stateMutability": "nonpayable",
      "type": "function",
      "signature": "0xf8e893eb"
    },
    {
      "constant": false,
      "inputs": [
        {
          "name": "_id",
          "type": "uint256"
        }
      ],
      "name": "stolen",
      "outputs": [],
      "payable": false,
      "stateMutability": "nonpayable",
      "type": "function",
      "signature": "0x3d727ef9"
    },
    {
      "constant": false,
      "inputs": [
        {
          "name": "_id",
          "type": "uint256"
        }
      ],
      "name": "repaired",
      "outputs": [],
      "payable": false,
      "stateMutability": "nonpayable",
      "type": "function",
      "signature": "0xf5dce2b4"
    },
    {
      "constant": false,
      "inputs": [
        {
          "name": "_id",
          "type": "uint256"
        }
      ],
      "name": "reimburse",
      "outputs": [],
      "payable": true,
      "stateMutability": "payable",
      "type": "function",
      "signature": "0x4a44c2e4"
    },
    {
      "constant": false,
      "inputs": [
        {
          "name": "_id",
          "type": "uint256"
        },
        {
          "name": "_repairShop",
          "type": "address"
        }
      ],
      "name": "payRepairShop",
      "outputs": [],
      "payable": true,
      "stateMutability": "payable",
      "type": "function",
      "signature": "0x4ceca636"
    }
  ],
  "bytecode": "0x6080604052600060015534801561001557600080fd5b506146ba806100256000396000f3fe6080604052600436106100ba576000357c0100000000000000000000000000000000000000000000000000000000900463ffffffff16806306fdde03146100bf57806338e76a031461014f5780633d727ef91461017d578063419c2a05146101b85780634a44c2e4146101f35780634ceca636146102215780637acc0b201461026f5780637bf12b1c146103f6578063e0f6ef87146104d2578063e64e4588146104fd578063f5dce2b41461052b578063f8e893eb14610566575b600080fd5b3480156100cb57600080fd5b506100d46105a1565b6040518080602001828103825283818151815260200191508051906020019080838360005b838110156101145780820151818401526020810190506100f9565b50505050905090810190601f1680156101415780820380516001836020036101000a031916815260200191505b509250505060405180910390f35b61017b6004803603602081101561016557600080fd5b810190808035906020019092919050505061063f565b005b34801561018957600080fd5b506101b6600480360360208110156101a057600080fd5b8101908080359060200190929190505050610e00565b005b3480156101c457600080fd5b506101f1600480360360208110156101db57600080fd5b8101908080359060200190929190505050611525565b005b61021f6004803603602081101561020957600080fd5b8101908080359060200190929190505050611c4b565b005b61026d6004803603604081101561023757600080fd5b8101908080359060200190929190803573ffffffffffffffffffffffffffffffffffffffff16906020019092919050505061223b565b005b34801561027b57600080fd5b506102a86004803603602081101561029257600080fd5b8101908080359060200190929190505050612830565b604051808f8152602001806020018e81526020018d81526020018c73ffffffffffffffffffffffffffffffffffffffff1673ffffffffffffffffffffffffffffffffffffffff1681526020018b73ffffffffffffffffffffffffffffffffffffffff1673ffffffffffffffffffffffffffffffffffffffff1681526020018a1515151581526020018915151515815260200188151515158152602001871515151581526020018615151515815260200185151515158152602001841515151581526020018315151515815260200182810382528f818151815260200191508051906020019080838360005b838110156103ae578082015181840152602081019050610393565b50505050905090810190601f1680156103db5780820380516001836020036101000a031916815260200191505b509f5050505050505050505050505050505060405180910390f35b34801561040257600080fd5b506104d06004803603606081101561041957600080fd5b810190808035906020019064010000000081111561043657600080fd5b82018360208201111561044857600080fd5b8035906020019184600183028401116401000000008311171561046a57600080fd5b91908080601f016020809104026020016040519081016040528093929190818152602001838380828437600081840152601f19601f82011690508083019250505050505050919291929080359060200190929190803590602001909291905050506129dc565b005b3480156104de57600080fd5b506104e7612efb565b6040518082815260200191505060405180910390f35b6105296004803603602081101561051357600080fd5b8101908080359060200190929190505050612f01565b005b34801561053757600080fd5b506105646004803603602081101561054e57600080fd5b81019080803590602001909291905050506136f2565b005b34801561057257600080fd5b5061059f6004803603602081101561058957600080fd5b8101908080359060200190929190505050613e17565b005b60008054600181600116156101000203166002900480601f0160208091040260200160405190810160405280929190818152602001828054600181600116156101000203166002900480156106375780601f1061060c57610100808354040283529160200191610637565b820191906000526020600020905b81548152906001019060200180831161061a57829003601f168201915b505050505081565b61064761453d565b600260008381526020019081526020016000206101c0604051908101604052908160008201548152602001600182018054600181600116156101000203166002900480601f01602080910402602001604051908101604052809291908181526020018280546001816001161561010002031660029004801561070a5780601f106106df5761010080835404028352916020019161070a565b820191906000526020600020905b8154815290600101906020018083116106ed57829003601f168201915b5050505050815260200160028201548152602001600382015481526020016004820160009054906101000a900473ffffffffffffffffffffffffffffffffffffffff1673ffffffffffffffffffffffffffffffffffffffff1673ffffffffffffffffffffffffffffffffffffffff1681526020016005820160009054906101000a900473ffffffffffffffffffffffffffffffffffffffff1673ffffffffffffffffffffffffffffffffffffffff1673ffffffffffffffffffffffffffffffffffffffff1681526020016005820160149054906101000a900460ff161515151581526020016005820160159054906101000a900460ff161515151581526020016005820160169054906101000a900460ff161515151581526020016005820160179054906101000a900460ff161515151581526020016005820160189054906101000a900460ff161515151581526020016005820160199054906101000a900460ff1615151515815260200160058201601a9054906101000a900460ff1615151515815260200160058201601b9054906101000a900460ff1615151515815250509050600081608001519050600082600001511180156108d05750600154826000015111155b151561091f576040517f08c379a0000000000000000000000000000000000000000000000000000000008152600401808060200182810382526000815260200160200191505060405180910390fd5b81604001513410151515610976576040517f08c379a0000000000000000000000000000000000000000000000000000000008152600401808060200182810382526000815260200160200191505060405180910390fd5b8160c001511515156109cb576040517f08c379a0000000000000000000000000000000000000000000000000000000008152600401808060200182810382526000815260200160200191505060405180910390fd5b3373ffffffffffffffffffffffffffffffffffffffff168173ffffffffffffffffffffffffffffffffffffffff1614151515610a4a576040517f08c379a0000000000000000000000000000000000000000000000000000000008152600401808060200182810382526000815260200160200191505060405180910390fd5b33826080019073ffffffffffffffffffffffffffffffffffffffff16908173ffffffffffffffffffffffffffffffffffffffff168152505060018260c00190151590811515815250508160026000858152602001908152602001600020600082015181600001556020820151816001019080519060200190610acd9291906145e9565b50604082015181600201556060820151816003015560808201518160040160006101000a81548173ffffffffffffffffffffffffffffffffffffffff021916908373ffffffffffffffffffffffffffffffffffffffff16021790555060a08201518160050160006101000a81548173ffffffffffffffffffffffffffffffffffffffff021916908373ffffffffffffffffffffffffffffffffffffffff16021790555060c08201518160050160146101000a81548160ff02191690831515021790555060e08201518160050160156101000a81548160ff0219169083151502179055506101008201518160050160166101000a81548160ff0219169083151502179055506101208201518160050160176101000a81548160ff0219169083151502179055506101408201518160050160186101000a81548160ff0219169083151502179055506101608201518160050160196101000a81548160ff02191690831515021790555061018082015181600501601a6101000a81548160ff0219169083151502179055506101a082015181600501601b6101000a81548160ff0219169083151502179055509050508073ffffffffffffffffffffffffffffffffffffffff166108fc349081150290604051600060405180830381858888f19350505050158015610cbf573d6000803e3d6000fd5b507f36ac992abe2ddbea8dc80d0a4f5c26d17ee5afd63cbb211c696f7d5163864231600154836020015184604001518560600151338760a00151600160405180888152602001806020018781526020018681526020018573ffffffffffffffffffffffffffffffffffffffff1673ffffffffffffffffffffffffffffffffffffffff1681526020018473ffffffffffffffffffffffffffffffffffffffff1673ffffffffffffffffffffffffffffffffffffffff16815260200183151515158152602001828103825288818151815260200191508051906020019080838360005b83811015610dbb578082015181840152602081019050610da0565b50505050905090810190601f168015610de85780820380516001836020036101000a031916815260200191505b509850505050505050505060405180910390a1505050565b610e0861453d565b600260008381526020019081526020016000206101c0604051908101604052908160008201548152602001600182018054600181600116156101000203166002900480601f016020809104026020016040519081016040528092919081815260200182805460018160011615610100020316600290048015610ecb5780601f10610ea057610100808354040283529160200191610ecb565b820191906000526020600020905b815481529060010190602001808311610eae57829003601f168201915b5050505050815260200160028201548152602001600382015481526020016004820160009054906101000a900473ffffffffffffffffffffffffffffffffffffffff1673ffffffffffffffffffffffffffffffffffffffff1673ffffffffffffffffffffffffffffffffffffffff1681526020016005820160009054906101000a900473ffffffffffffffffffffffffffffffffffffffff1673ffffffffffffffffffffffffffffffffffffffff1673ffffffffffffffffffffffffffffffffffffffff1681526020016005820160149054906101000a900460ff161515151581526020016005820160159054906101000a900460ff161515151581526020016005820160169054906101000a900460ff161515151581526020016005820160179054906101000a900460ff161515151581526020016005820160189054906101000a900460ff161515151581526020016005820160199054906101000a900460ff1615151515815260200160058201601a9054906101000a900460ff1615151515815260200160058201601b9054906101000a900460ff16151515158152505090508060c00151151561110d576040517f08c379a00000000000000000000000000000000000000000000000000000000081526004018080602001828103825260228152602001807f796f752068617665206e6f7420707572636861736564207468652070726f647581526020017f637400000000000000000000000000000000000000000000000000000000000081525060400191505060405180910390fd5b8060e0015115156111ac576040517f08c379a00000000000000000000000000000000000000000000000000000000081526004018080602001828103825260248152602001807f796f752068617665206e6f74207075726368617365642074686520696e73757281526020017f616e63650000000000000000000000000000000000000000000000000000000081525060400191505060405180910390fd5b80610120015115151561124d576040517f08c379a00000000000000000000000000000000000000000000000000000000081526004018080602001828103825260278152602001807f726570616972207365727669636520697320636c61696d656420666f7220746881526020017f6973206974656d0000000000000000000000000000000000000000000000000081525060400191505060405180910390fd5b80610100015115156112ed576040517f08c379a00000000000000000000000000000000000000000000000000000000081526004018080602001828103825260268152602001807f706f6c69636520736572766963652073686f756c6420626520636c61696d656481526020017f206669727374000000000000000000000000000000000000000000000000000081525060400191505060405180910390fd5b60018161014001901515908115158152505080600260008481526020019081526020016000206000820151816000015560208201518160010190805190602001906113399291906145e9565b50604082015181600201556060820151816003015560808201518160040160006101000a81548173ffffffffffffffffffffffffffffffffffffffff021916908373ffffffffffffffffffffffffffffffffffffffff16021790555060a08201518160050160006101000a81548173ffffffffffffffffffffffffffffffffffffffff021916908373ffffffffffffffffffffffffffffffffffffffff16021790555060c08201518160050160146101000a81548160ff02191690831515021790555060e08201518160050160156101000a81548160ff0219169083151502179055506101008201518160050160166101000a81548160ff0219169083151502179055506101208201518160050160176101000a81548160ff0219169083151502179055506101408201518160050160186101000a81548160ff0219169083151502179055506101608201518160050160196101000a81548160ff02191690831515021790555061018082015181600501601a6101000a81548160ff0219169083151502179055506101a082015181600501601b6101000a81548160ff0219169083151502179055509050507f4c3032070622f679067fe6488b2e2e0379f629b4e8cfc6a803f3d3cba95cb7ac6001604051808215151515815260200191505060405180910390a15050565b61152d61453d565b600260008381526020019081526020016000206101c0604051908101604052908160008201548152602001600182018054600181600116156101000203166002900480601f0160208091040260200160405190810160405280929190818152602001828054600181600116156101000203166002900480156115f05780601f106115c5576101008083540402835291602001916115f0565b820191906000526020600020905b8154815290600101906020018083116115d357829003601f168201915b5050505050815260200160028201548152602001600382015481526020016004820160009054906101000a900473ffffffffffffffffffffffffffffffffffffffff1673ffffffffffffffffffffffffffffffffffffffff1673ffffffffffffffffffffffffffffffffffffffff1681526020016005820160009054906101000a900473ffffffffffffffffffffffffffffffffffffffff1673ffffffffffffffffffffffffffffffffffffffff1673ffffffffffffffffffffffffffffffffffffffff1681526020016005820160149054906101000a900460ff161515151581526020016005820160159054906101000a900460ff161515151581526020016005820160169054906101000a900460ff161515151581526020016005820160179054906101000a900460ff161515151581526020016005820160189054906101000a900460ff161515151581526020016005820160199054906101000a900460ff1615151515815260200160058201601a9054906101000a900460ff1615151515815260200160058201601b9054906101000a900460ff16151515158152505090508060c001511515611832576040517f08c379a00000000000000000000000000000000000000000000000000000000081526004018080602001828103825260228152602001807f796f752068617665206e6f7420707572636861736564207468652070726f647581526020017f637400000000000000000000000000000000000000000000000000000000000081525060400191505060405180910390fd5b8060e0015115156118d1576040517f08c379a00000000000000000000000000000000000000000000000000000000081526004018080602001828103825260248152602001807f796f752068617665206e6f74207075726368617365642074686520696e73757281526020017f616e63650000000000000000000000000000000000000000000000000000000081525060400191505060405180910390fd5b806101200151151515611972576040517f08c379a00000000000000000000000000000000000000000000000000000000081526004018080602001828103825260228152602001807f72657061697220697320636c61696d656420666f7220746869732070726f647581526020017f637400000000000000000000000000000000000000000000000000000000000081525060400191505060405180910390fd5b806101000151151515611a13576040517f08c379a00000000000000000000000000000000000000000000000000000000081526004018080602001828103825260228152602001807f706f6c69636520697320636c61696d656420666f7220746869732070726f647581526020017f637400000000000000000000000000000000000000000000000000000000000081525060400191505060405180910390fd5b6001816101000190151590811515815250508060026000848152602001908152602001600020600082015181600001556020820151816001019080519060200190611a5f9291906145e9565b50604082015181600201556060820151816003015560808201518160040160006101000a81548173ffffffffffffffffffffffffffffffffffffffff021916908373ffffffffffffffffffffffffffffffffffffffff16021790555060a08201518160050160006101000a81548173ffffffffffffffffffffffffffffffffffffffff021916908373ffffffffffffffffffffffffffffffffffffffff16021790555060c08201518160050160146101000a81548160ff02191690831515021790555060e08201518160050160156101000a81548160ff0219169083151502179055506101008201518160050160166101000a81548160ff0219169083151502179055506101208201518160050160176101000a81548160ff0219169083151502179055506101408201518160050160186101000a81548160ff0219169083151502179055506101608201518160050160196101000a81548160ff02191690831515021790555061018082015181600501601a6101000a81548160ff0219169083151502179055506101a082015181600501601b6101000a81548160ff0219169083151502179055509050507f474e85f867d1eb17b3fb25d2f4b984cfc488679def09d65c935a215023205a216001604051808215151515815260200191505060405180910390a15050565b611c5361453d565b600260008381526020019081526020016000206101c0604051908101604052908160008201548152602001600182018054600181600116156101000203166002900480601f016020809104026020016040519081016040528092919081815260200182805460018160011615610100020316600290048015611d165780601f10611ceb57610100808354040283529160200191611d16565b820191906000526020600020905b815481529060010190602001808311611cf957829003601f168201915b5050505050815260200160028201548152602001600382015481526020016004820160009054906101000a900473ffffffffffffffffffffffffffffffffffffffff1673ffffffffffffffffffffffffffffffffffffffff1673ffffffffffffffffffffffffffffffffffffffff1681526020016005820160009054906101000a900473ffffffffffffffffffffffffffffffffffffffff1673ffffffffffffffffffffffffffffffffffffffff1673ffffffffffffffffffffffffffffffffffffffff1681526020016005820160149054906101000a900460ff161515151581526020016005820160159054906101000a900460ff161515151581526020016005820160169054906101000a900460ff161515151581526020016005820160179054906101000a900460ff161515151581526020016005820160189054906101000a900460ff161515151581526020016005820160199054906101000a900460ff1615151515815260200160058201601a9054906101000a900460ff1615151515815260200160058201601b9054906101000a900460ff16151515158152505090508061014001511515611f33576040517f08c379a000000000000000000000000000000000000000000000000000000000815260040180806020018281038252600a8152602001807f6e6f742073746f6c656e0000000000000000000000000000000000000000000081525060200191505060405180910390fd5b6000816080015190503373ffffffffffffffffffffffffffffffffffffffff168173ffffffffffffffffffffffffffffffffffffffff1614151515611fbb576040517f08c379a0000000000000000000000000000000000000000000000000000000008152600401808060200182810382526000815260200160200191505060405180910390fd5b60018261018001901515908115158152505081600260008581526020019081526020016000206000820151816000015560208201518160010190805190602001906120079291906145e9565b50604082015181600201556060820151816003015560808201518160040160006101000a81548173ffffffffffffffffffffffffffffffffffffffff021916908373ffffffffffffffffffffffffffffffffffffffff16021790555060a08201518160050160006101000a81548173ffffffffffffffffffffffffffffffffffffffff021916908373ffffffffffffffffffffffffffffffffffffffff16021790555060c08201518160050160146101000a81548160ff02191690831515021790555060e08201518160050160156101000a81548160ff0219169083151502179055506101008201518160050160166101000a81548160ff0219169083151502179055506101208201518160050160176101000a81548160ff0219169083151502179055506101408201518160050160186101000a81548160ff0219169083151502179055506101608201518160050160196101000a81548160ff02191690831515021790555061018082015181600501601a6101000a81548160ff0219169083151502179055506101a082015181600501601b6101000a81548160ff0219169083151502179055509050508073ffffffffffffffffffffffffffffffffffffffff166108fc349081150290604051600060405180830381858888f193505050501580156121f9573d6000803e3d6000fd5b507fd78b15e9df9a5f7179a82a1da177280adfc9efeaca8702d818f8c4e63f042cff6001604051808215151515815260200191505060405180910390a1505050565b61224361453d565b600260008481526020019081526020016000206101c0604051908101604052908160008201548152602001600182018054600181600116156101000203166002900480601f0160208091040260200160405190810160405280929190818152602001828054600181600116156101000203166002900480156123065780601f106122db57610100808354040283529160200191612306565b820191906000526020600020905b8154815290600101906020018083116122e957829003601f168201915b5050505050815260200160028201548152602001600382015481526020016004820160009054906101000a900473ffffffffffffffffffffffffffffffffffffffff1673ffffffffffffffffffffffffffffffffffffffff1673ffffffffffffffffffffffffffffffffffffffff1681526020016005820160009054906101000a900473ffffffffffffffffffffffffffffffffffffffff1673ffffffffffffffffffffffffffffffffffffffff1673ffffffffffffffffffffffffffffffffffffffff1681526020016005820160149054906101000a900460ff161515151581526020016005820160159054906101000a900460ff161515151581526020016005820160169054906101000a900460ff161515151581526020016005820160179054906101000a900460ff161515151581526020016005820160189054906101000a900460ff161515151581526020016005820160199054906101000a900460ff1615151515815260200160058201601a9054906101000a900460ff1615151515815260200160058201601b9054906101000a900460ff16151515158152505090506000600282604001518115156124bb57fe5b0490508161016001511515612538576040517f08c379a000000000000000000000000000000000000000000000000000000000815260040180806020018281038252600c8152602001807f6e6f74207265706169726564000000000000000000000000000000000000000081525060200191505060405180910390fd5b80341415156125af576040517f08c379a000000000000000000000000000000000000000000000000000000000815260040180806020018281038252601c8152602001807f72657061697220636861726765206973206e6f7420636f72726563740000000081525060200191505060405180910390fd5b6001826101a001901515908115158152505081600260008681526020019081526020016000206000820151816000015560208201518160010190805190602001906125fb9291906145e9565b50604082015181600201556060820151816003015560808201518160040160006101000a81548173ffffffffffffffffffffffffffffffffffffffff021916908373ffffffffffffffffffffffffffffffffffffffff16021790555060a08201518160050160006101000a81548173ffffffffffffffffffffffffffffffffffffffff021916908373ffffffffffffffffffffffffffffffffffffffff16021790555060c08201518160050160146101000a81548160ff02191690831515021790555060e08201518160050160156101000a81548160ff0219169083151502179055506101008201518160050160166101000a81548160ff0219169083151502179055506101208201518160050160176101000a81548160ff0219169083151502179055506101408201518160050160186101000a81548160ff0219169083151502179055506101608201518160050160196101000a81548160ff02191690831515021790555061018082015181600501601a6101000a81548160ff0219169083151502179055506101a082015181600501601b6101000a81548160ff0219169083151502179055509050508273ffffffffffffffffffffffffffffffffffffffff166108fc349081150290604051600060405180830381858888f193505050501580156127ed573d6000803e3d6000fd5b507f273b055fcea08aae10080716dea8512b64be15ecdebe178911786e1fc6418ed26001604051808215151515815260200191505060405180910390a150505050565b6002602052806000526040600020600091509050806000015490806001018054600181600116156101000203166002900480601f0160208091040260200160405190810160405280929190818152602001828054600181600116156101000203166002900480156128e25780601f106128b7576101008083540402835291602001916128e2565b820191906000526020600020905b8154815290600101906020018083116128c557829003601f168201915b5050505050908060020154908060030154908060040160009054906101000a900473ffffffffffffffffffffffffffffffffffffffff16908060050160009054906101000a900473ffffffffffffffffffffffffffffffffffffffff16908060050160149054906101000a900460ff16908060050160159054906101000a900460ff16908060050160169054906101000a900460ff16908060050160179054906101000a900460ff16908060050160189054906101000a900460ff16908060050160199054906101000a900460ff169080600501601a9054906101000a900460ff169080600501601b9054906101000a900460ff1690508e565b60008351111515612a30576040517f08c379a0000000000000000000000000000000000000000000000000000000008152600401808060200182810382526000815260200160200191505060405180910390fd5b600082111515612a83576040517f08c379a0000000000000000000000000000000000000000000000000000000008152600401808060200182810382526000815260200160200191505060405180910390fd5b600081111515612ad6576040517f08c379a0000000000000000000000000000000000000000000000000000000008152600401808060200182810382526000815260200160200191505060405180910390fd5b6001600081548092919060010191905055506101c06040519081016040528060015481526020018481526020018381526020018281526020013373ffffffffffffffffffffffffffffffffffffffff1681526020013373ffffffffffffffffffffffffffffffffffffffff16815260200160001515815260200160001515815260200160001515815260200160001515815260200160001515815260200160001515815260200160001515815260200160001515815250600260006001548152602001908152602001600020600082015181600001556020820151816001019080519060200190612bc89291906145e9565b50604082015181600201556060820151816003015560808201518160040160006101000a81548173ffffffffffffffffffffffffffffffffffffffff021916908373ffffffffffffffffffffffffffffffffffffffff16021790555060a08201518160050160006101000a81548173ffffffffffffffffffffffffffffffffffffffff021916908373ffffffffffffffffffffffffffffffffffffffff16021790555060c08201518160050160146101000a81548160ff02191690831515021790555060e08201518160050160156101000a81548160ff0219169083151502179055506101008201518160050160166101000a81548160ff0219169083151502179055506101208201518160050160176101000a81548160ff0219169083151502179055506101408201518160050160186101000a81548160ff0219169083151502179055506101608201518160050160196101000a81548160ff02191690831515021790555061018082015181600501601a6101000a81548160ff0219169083151502179055506101a082015181600501601b6101000a81548160ff0219169083151502179055509050507f7dc113ebe2a59227be95a700733728215380342016add8ff01c2406f685134656001548484843333600080600080600080600080604051808f8152602001806020018e81526020018d81526020018c73ffffffffffffffffffffffffffffffffffffffff1673ffffffffffffffffffffffffffffffffffffffff1681526020018b73ffffffffffffffffffffffffffffffffffffffff1673ffffffffffffffffffffffffffffffffffffffff1681526020018a1515151581526020018915151515815260200188151515158152602001871515151581526020018615151515815260200185151515158152602001841515151581526020018315151515815260200182810382528f818151815260200191508051906020019080838360005b83811015612eaf578082015181840152602081019050612e94565b50505050905090810190601f168015612edc5780820380516001836020036101000a031916815260200191505b509f5050505050505050505050505050505060405180910390a1505050565b60015481565b612f0961453d565b600260008381526020019081526020016000206101c0604051908101604052908160008201548152602001600182018054600181600116156101000203166002900480601f016020809104026020016040519081016040528092919081815260200182805460018160011615610100020316600290048015612fcc5780601f10612fa157610100808354040283529160200191612fcc565b820191906000526020600020905b815481529060010190602001808311612faf57829003601f168201915b5050505050815260200160028201548152602001600382015481526020016004820160009054906101000a900473ffffffffffffffffffffffffffffffffffffffff1673ffffffffffffffffffffffffffffffffffffffff1673ffffffffffffffffffffffffffffffffffffffff1681526020016005820160009054906101000a900473ffffffffffffffffffffffffffffffffffffffff1673ffffffffffffffffffffffffffffffffffffffff1673ffffffffffffffffffffffffffffffffffffffff1681526020016005820160149054906101000a900460ff161515151581526020016005820160159054906101000a900460ff161515151581526020016005820160169054906101000a900460ff161515151581526020016005820160179054906101000a900460ff161515151581526020016005820160189054906101000a900460ff161515151581526020016005820160199054906101000a900460ff1615151515815260200160058201601a9054906101000a900460ff1615151515815260200160058201601b9054906101000a900460ff161515151581525050905060008160a001519050600082600001511180156131925750600154826000015111155b15156131e1576040517f08c379a0000000000000000000000000000000000000000000000000000000008152600401808060200182810382526000815260200160200191505060405180910390fd5b81606001513410151515613238576040517f08c379a0000000000000000000000000000000000000000000000000000000008152600401808060200182810382526000815260200160200191505060405180910390fd5b8160c00151151561328c576040517f08c379a0000000000000000000000000000000000000000000000000000000008152600401808060200182810382526000815260200160200191505060405180910390fd5b8160e001511515156132e1576040517f08c379a0000000000000000000000000000000000000000000000000000000008152600401808060200182810382526000815260200160200191505060405180910390fd5b3373ffffffffffffffffffffffffffffffffffffffff168173ffffffffffffffffffffffffffffffffffffffff1614151515613360576040517f08c379a0000000000000000000000000000000000000000000000000000000008152600401808060200182810382526000815260200160200191505060405180910390fd5b60018260e001901515908115158152505081600260008581526020019081526020016000206000820151816000015560208201518160010190805190602001906133ab9291906145e9565b50604082015181600201556060820151816003015560808201518160040160006101000a81548173ffffffffffffffffffffffffffffffffffffffff021916908373ffffffffffffffffffffffffffffffffffffffff16021790555060a08201518160050160006101000a81548173ffffffffffffffffffffffffffffffffffffffff021916908373ffffffffffffffffffffffffffffffffffffffff16021790555060c08201518160050160146101000a81548160ff02191690831515021790555060e08201518160050160156101000a81548160ff0219169083151502179055506101008201518160050160166101000a81548160ff0219169083151502179055506101208201518160050160176101000a81548160ff0219169083151502179055506101408201518160050160186101000a81548160ff0219169083151502179055506101608201518160050160196101000a81548160ff02191690831515021790555061018082015181600501601a6101000a81548160ff0219169083151502179055506101a082015181600501601b6101000a81548160ff0219169083151502179055509050508073ffffffffffffffffffffffffffffffffffffffff166108fc349081150290604051600060405180830381858888f1935050505015801561359d573d6000803e3d6000fd5b507ff1541d2179b1bdb3aa4380a42ebad463b137a00b0664a13b021cdf4f660717c060015483602001518460400151856060015186608001518760a001518860c00151600160405180898152602001806020018881526020018781526020018673ffffffffffffffffffffffffffffffffffffffff1673ffffffffffffffffffffffffffffffffffffffff1681526020018573ffffffffffffffffffffffffffffffffffffffff1673ffffffffffffffffffffffffffffffffffffffff1681526020018415151515815260200183151515158152602001828103825289818151815260200191508051906020019080838360005b838110156136ac578082015181840152602081019050613691565b50505050905090810190601f1680156136d95780820380516001836020036101000a031916815260200191505b50995050505050505050505060405180910390a1505050565b6136fa61453d565b600260008381526020019081526020016000206101c0604051908101604052908160008201548152602001600182018054600181600116156101000203166002900480601f0160208091040260200160405190810160405280929190818152602001828054600181600116156101000203166002900480156137bd5780601f10613792576101008083540402835291602001916137bd565b820191906000526020600020905b8154815290600101906020018083116137a057829003601f168201915b5050505050815260200160028201548152602001600382015481526020016004820160009054906101000a900473ffffffffffffffffffffffffffffffffffffffff1673ffffffffffffffffffffffffffffffffffffffff1673ffffffffffffffffffffffffffffffffffffffff1681526020016005820160009054906101000a900473ffffffffffffffffffffffffffffffffffffffff1673ffffffffffffffffffffffffffffffffffffffff1673ffffffffffffffffffffffffffffffffffffffff1681526020016005820160149054906101000a900460ff161515151581526020016005820160159054906101000a900460ff161515151581526020016005820160169054906101000a900460ff161515151581526020016005820160179054906101000a900460ff161515151581526020016005820160189054906101000a900460ff161515151581526020016005820160199054906101000a900460ff1615151515815260200160058201601a9054906101000a900460ff1615151515815260200160058201601b9054906101000a900460ff16151515158152505090508060c0015115156139ff576040517f08c379a00000000000000000000000000000000000000000000000000000000081526004018080602001828103825260228152602001807f796f752068617665206e6f7420707572636861736564207468652070726f647581526020017f637400000000000000000000000000000000000000000000000000000000000081525060400191505060405180910390fd5b8060e001511515613a9e576040517f08c379a00000000000000000000000000000000000000000000000000000000081526004018080602001828103825260248152602001807f796f752068617665206e6f74207075726368617365642074686520696e73757281526020017f616e63650000000000000000000000000000000000000000000000000000000081525060400191505060405180910390fd5b806101000151151515613b3f576040517f08c379a00000000000000000000000000000000000000000000000000000000081526004018080602001828103825260278152602001807f706f6c696365207365727669636520697320636c61696d656420666f7220746881526020017f6973206974656d0000000000000000000000000000000000000000000000000081525060400191505060405180910390fd5b8061012001511515613bdf576040517f08c379a00000000000000000000000000000000000000000000000000000000081526004018080602001828103825260268152602001807f72657061697220736572766963652073686f756c6420626520636c61696d656481526020017f206669727374000000000000000000000000000000000000000000000000000081525060400191505060405180910390fd5b6001816101600190151590811515815250508060026000848152602001908152602001600020600082015181600001556020820151816001019080519060200190613c2b9291906145e9565b50604082015181600201556060820151816003015560808201518160040160006101000a81548173ffffffffffffffffffffffffffffffffffffffff021916908373ffffffffffffffffffffffffffffffffffffffff16021790555060a08201518160050160006101000a81548173ffffffffffffffffffffffffffffffffffffffff021916908373ffffffffffffffffffffffffffffffffffffffff16021790555060c08201518160050160146101000a81548160ff02191690831515021790555060e08201518160050160156101000a81548160ff0219169083151502179055506101008201518160050160166101000a81548160ff0219169083151502179055506101208201518160050160176101000a81548160ff0219169083151502179055506101408201518160050160186101000a81548160ff0219169083151502179055506101608201518160050160196101000a81548160ff02191690831515021790555061018082015181600501601a6101000a81548160ff0219169083151502179055506101a082015181600501601b6101000a81548160ff0219169083151502179055509050507fad0e2117edca91dc76684a2a464127c0b38e52323d5d0f92f337fbf0181da0986001604051808215151515815260200191505060405180910390a15050565b613e1f61453d565b600260008381526020019081526020016000206101c0604051908101604052908160008201548152602001600182018054600181600116156101000203166002900480601f016020809104026020016040519081016040528092919081815260200182805460018160011615610100020316600290048015613ee25780601f10613eb757610100808354040283529160200191613ee2565b820191906000526020600020905b815481529060010190602001808311613ec557829003601f168201915b5050505050815260200160028201548152602001600382015481526020016004820160009054906101000a900473ffffffffffffffffffffffffffffffffffffffff1673ffffffffffffffffffffffffffffffffffffffff1673ffffffffffffffffffffffffffffffffffffffff1681526020016005820160009054906101000a900473ffffffffffffffffffffffffffffffffffffffff1673ffffffffffffffffffffffffffffffffffffffff1673ffffffffffffffffffffffffffffffffffffffff1681526020016005820160149054906101000a900460ff161515151581526020016005820160159054906101000a900460ff161515151581526020016005820160169054906101000a900460ff161515151581526020016005820160179054906101000a900460ff161515151581526020016005820160189054906101000a900460ff161515151581526020016005820160199054906101000a900460ff1615151515815260200160058201601a9054906101000a900460ff1615151515815260200160058201601b9054906101000a900460ff16151515158152505090508060c001511515614124576040517f08c379a00000000000000000000000000000000000000000000000000000000081526004018080602001828103825260228152602001807f796f752068617665206e6f7420707572636861736564207468652070726f647581526020017f637400000000000000000000000000000000000000000000000000000000000081525060400191505060405180910390fd5b8060e0015115156141c3576040517f08c379a00000000000000000000000000000000000000000000000000000000081526004018080602001828103825260248152602001807f796f752068617665206e6f74207075726368617365642074686520696e73757281526020017f616e63650000000000000000000000000000000000000000000000000000000081525060400191505060405180910390fd5b806101000151151515614264576040517f08c379a00000000000000000000000000000000000000000000000000000000081526004018080602001828103825260228152602001807f706f6c69636520697320636c61696d656420666f7220746869732070726f647581526020017f637400000000000000000000000000000000000000000000000000000000000081525060400191505060405180910390fd5b806101200151151515614305576040517f08c379a00000000000000000000000000000000000000000000000000000000081526004018080602001828103825260228152602001807f72657061697220697320636c61696d656420666f7220746869732070726f647581526020017f637400000000000000000000000000000000000000000000000000000000000081525060400191505060405180910390fd5b60018161012001901515908115158152505080600260008481526020019081526020016000206000820151816000015560208201518160010190805190602001906143519291906145e9565b50604082015181600201556060820151816003015560808201518160040160006101000a81548173ffffffffffffffffffffffffffffffffffffffff021916908373ffffffffffffffffffffffffffffffffffffffff16021790555060a08201518160050160006101000a81548173ffffffffffffffffffffffffffffffffffffffff021916908373ffffffffffffffffffffffffffffffffffffffff16021790555060c08201518160050160146101000a81548160ff02191690831515021790555060e08201518160050160156101000a81548160ff0219169083151502179055506101008201518160050160166101000a81548160ff0219169083151502179055506101208201518160050160176101000a81548160ff0219169083151502179055506101408201518160050160186101000a81548160ff0219169083151502179055506101608201518160050160196101000a81548160ff02191690831515021790555061018082015181600501601a6101000a81548160ff0219169083151502179055506101a082015181600501601b6101000a81548160ff0219169083151502179055509050507ff9b6f0074be23a2dff38346b8d82d7e7607559ad1d2b4347b28e20cff0e54cb56001604051808215151515815260200191505060405180910390a15050565b6101c06040519081016040528060008152602001606081526020016000815260200160008152602001600073ffffffffffffffffffffffffffffffffffffffff168152602001600073ffffffffffffffffffffffffffffffffffffffff1681526020016000151581526020016000151581526020016000151581526020016000151581526020016000151581526020016000151581526020016000151581526020016000151581525090565b828054600181600116156101000203166002900490600052602060002090601f016020900481019282601f1061462a57805160ff1916838001178555614658565b82800160010185558215614658579182015b8281111561465757825182559160200191906001019061463c565b5b5090506146659190614669565b5090565b61468b91905b8082111561468757600081600090555060010161466f565b5090565b9056fea165627a7a72305820d1767c40eb67e66980b51f1296e9419ceee01a48b8320d68a52eb66a02e875630029",
  "source": "pragma solidity ^0.5.0;\n\ncontract Insurance {\n    string public name;\n    uint256 public productCount = 0;\n    mapping(uint256 => Product) public products;\n\n    struct Product {\n        uint256 id;\n        string name;\n        uint256 price;\n        uint256 insurancePrice;\n        address payable owner;\n        address payable insuranceOwner;\n        bool purchased;\n        bool insurancePurchased;\n        bool claimedPolice;\n        bool claimedRepair;\n        bool isStolen;\n        bool isRepaired;\n        bool isReimbursed;\n        bool paidRepairShop;\n    }\n\n    event ProductCreated(\n        uint256 id,\n        string name,\n        uint256 price,\n        uint256 insurancePrice,\n        address payable owner,\n        address payable insuranceOwner,\n        bool purchased,\n        bool insurancePurchased,\n        bool claimedPolice,\n        bool claimedRepair,\n        bool isStolen,\n        bool isRepaired,\n        bool isReimbursed,\n        bool paidRepairShop\n    );\n\n    event ProductPurchased(\n        uint256 id,\n        string name,\n        uint256 price,\n        uint256 insurancePrice,\n        address payable owner,\n        address payable insuranceOwner,\n        bool purchased\n    );\n\n    event InsurancePurchased(\n        uint256 id,\n        string name,\n        uint256 price,\n        uint256 insurancePrice,\n        address payable owner,\n        address payable insuranceOwner,\n        bool purchased,\n        bool insurancePurchased\n    );\n\n    event PoliceClaimed(bool claimedPolice);\n\n    event RepairClaimed(bool claimedRepair);\n\n    event Stolen(bool isStolen);\n\n    event NotStolen(bool notStolen);\n\n    event Repaired(bool isRepaired);\n\n    event Reimbursed(bool isReimbursed);\n\n    event RepairShopPaid(bool paidRepairShop);\n\n    function createProduct(string memory _name, uint256 _price, uint256 _insurancePrice) public {\n        // Require a valid name\n        require(bytes(_name).length > 0, \"\");\n        // Require a valid price\n        require(_price > 0, \"\");\n        // Require a valid insurance price\n        require(_insurancePrice > 0, \"\");\n        // Increment product count\n        productCount++;\n        // Create the product\n        products[productCount] = Product(\n            productCount,\n            _name,\n            _price,\n            _insurancePrice,\n            msg.sender,\n            msg.sender,\n            false,\n            false,\n            false,\n            false,\n            false,\n            false,\n            false,\n            false\n        );\n        emit ProductCreated(\n            productCount,\n            _name,\n            _price,\n            _insurancePrice,\n            msg.sender,\n            msg.sender,\n            false,\n            false,\n            false,\n            false,\n            false,\n            false,\n            false,\n            false\n        );\n    }\n\n    function purchaseProduct(uint256 _id) public payable {\n        Product memory _product = products[_id];\n        address payable _seller = _product.owner;\n        require(_product.id > 0 && _product.id <= productCount, \"\");\n        require(msg.value >= _product.price, \"\");\n        require(!_product.purchased, \"\");\n        require(_seller != msg.sender, \"\");\n        _product.owner = msg.sender;\n        _product.purchased = true;\n        products[_id] = _product;\n        address(_seller).transfer(msg.value);\n        emit ProductPurchased(\n            productCount,\n            _product.name,\n            _product.price,\n            _product.insurancePrice,\n            msg.sender,\n            _product.insuranceOwner,\n            true\n        );\n    }\n\n    function purchaseInsurance(uint256 _id) public payable {\n        Product memory _product = products[_id];\n        address payable _seller = _product.insuranceOwner;\n        require(_product.id > 0 && _product.id <= productCount, \"\");\n        require(msg.value >= _product.insurancePrice, \"\");\n        require(_product.purchased, \"\");\n        require(!_product.insurancePurchased, \"\");\n        require(_seller != msg.sender, \"\");\n        _product.insurancePurchased = true;\n        products[_id] = _product;\n        address(_seller).transfer(msg.value);\n        emit InsurancePurchased(\n            productCount,\n            _product.name,\n            _product.price,\n            _product.insurancePrice,\n            _product.owner,\n            _product.insuranceOwner,\n            _product.purchased,\n            true\n        );\n    }\n\n    function claimPolice(uint256 _id) public {\n      Product memory _product = products[_id];\n      require(_product.purchased, 'you have not purchased the product');\n      require(_product.insurancePurchased, 'you have not purchased the insurance');\n      require(!_product.claimedRepair, 'repair is claimed for this product');\n      require(!_product.claimedPolice, 'police is claimed for this product');\n      _product.claimedPolice = true;\n      products[_id] = _product;\n      emit PoliceClaimed(true);\n    }\n\n    function claimRepair(uint256 _id) public {\n      Product memory _product = products[_id];\n      require(_product.purchased, 'you have not purchased the product');\n      require(_product.insurancePurchased, 'you have not purchased the insurance');\n      require(!_product.claimedPolice, 'police is claimed for this product');\n      require(!_product.claimedRepair, 'repair is claimed for this product');\n      _product.claimedRepair = true;\n      products[_id] = _product;\n      emit RepairClaimed(true);\n    }\n\n    function stolen(uint256 _id) public {\n      Product memory _product = products[_id];\n      require(_product.purchased, 'you have not purchased the product');\n      require(_product.insurancePurchased, 'you have not purchased the insurance');\n      require(!_product.claimedRepair, 'repair service is claimed for this item');\n      require(_product.claimedPolice, 'police service should be claimed first');\n      _product.isStolen = true;\n      products[_id] = _product;\n      emit Stolen(true);\n    }\n\n    function repaired(uint _id) public {\n       Product memory _product = products[_id];\n      require(_product.purchased, 'you have not purchased the product');\n      require(_product.insurancePurchased, 'you have not purchased the insurance');\n      require(!_product.claimedPolice, 'police service is claimed for this item');\n      require(_product.claimedRepair, 'repair service should be claimed first');\n      _product.isRepaired = true;\n      products[_id] = _product;\n      emit Repaired(true);\n    }\n\n    function reimburse(uint256 _id) public payable {\n      Product memory _product = products[_id];\n      require(_product.isStolen, 'not stolen');\n      address payable _refundTo = _product.owner;\n      require(_refundTo != msg.sender, \"\");\n      _product.isReimbursed = true;\n      products[_id] = _product;\n      address(_refundTo).transfer(msg.value);\n      emit Reimbursed(true);\n    }\n\n    function payRepairShop(uint256 _id, address payable _repairShop) public payable {\n      Product memory _product = products[_id];\n      uint256 repairCharge = _product.price / 2;\n      require(_product.isRepaired, 'not repaired');\n      require(msg.value == repairCharge, 'repair charge is not correct');\n      _product.paidRepairShop = true;\n      products[_id] = _product;\n      address(_repairShop).transfer(msg.value);\n      emit RepairShopPaid(true);\n    }\n}\n",
  "sourcePath": "/home/pavansoratur/Github/InsuranceDapp/src/contracts/Insurance.sol",
  "compiler": {
    "name": "solc",
    "version": "0.5.0+commit.1d4f565a.Emscripten.clang"
  },
  "schemaVersion": "3.0.2",
  "updatedAt": "2020-05-16T14:36:38.900Z",
  "devdoc": {
    "methods": {}
  },
  "userdoc": {
    "methods": {}
  }
}