{
  "contractName": "Insurance",
  "abi": [
    {
      "constant": true,
      "inputs": [],
      "name": "name",
      "outputs": [
        {
          "name": "",
          "type": "string"
        }
      ],
      "payable": false,
      "stateMutability": "view",
      "type": "function",
      "signature": "0x06fdde03"
    },
    {
      "constant": true,
      "inputs": [
        {
          "name": "",
          "type": "uint256"
        }
      ],
      "name": "products",
      "outputs": [
        {
          "name": "id",
          "type": "uint256"
        },
        {
          "name": "name",
          "type": "string"
        },
        {
          "name": "price",
          "type": "uint256"
        },
        {
          "name": "insurancePrice",
          "type": "uint256"
        },
        {
          "name": "owner",
          "type": "address"
        },
        {
          "name": "insuranceOwner",
          "type": "address"
        },
        {
          "name": "purchased",
          "type": "bool"
        },
        {
          "name": "insurancePurchased",
          "type": "bool"
        },
        {
          "name": "claimedPolice",
          "type": "bool"
        },
        {
          "name": "claimedRepair",
          "type": "bool"
        },
        {
          "name": "isStolen",
          "type": "bool"
        },
        {
          "name": "isRepaired",
          "type": "bool"
        },
        {
          "name": "isReimbursed",
          "type": "bool"
        },
        {
          "name": "paidRepairShop",
          "type": "bool"
        }
      ],
      "payable": false,
      "stateMutability": "view",
      "type": "function",
      "signature": "0x7acc0b20"
    },
    {
      "constant": true,
      "inputs": [],
      "name": "productCount",
      "outputs": [
        {
          "name": "",
          "type": "uint256"
        }
      ],
      "payable": false,
      "stateMutability": "view",
      "type": "function",
      "signature": "0xe0f6ef87"
    },
    {
      "anonymous": false,
      "inputs": [
        {
          "indexed": false,
          "name": "id",
          "type": "uint256"
        },
        {
          "indexed": false,
          "name": "name",
          "type": "string"
        },
        {
          "indexed": false,
          "name": "price",
          "type": "uint256"
        },
        {
          "indexed": false,
          "name": "insurancePrice",
          "type": "uint256"
        },
        {
          "indexed": false,
          "name": "owner",
          "type": "address"
        },
        {
          "indexed": false,
          "name": "insuranceOwner",
          "type": "address"
        },
        {
          "indexed": false,
          "name": "purchased",
          "type": "bool"
        },
        {
          "indexed": false,
          "name": "insurancePurchased",
          "type": "bool"
        },
        {
          "indexed": false,
          "name": "claimedPolice",
          "type": "bool"
        },
        {
          "indexed": false,
          "name": "claimedRepair",
          "type": "bool"
        },
        {
          "indexed": false,
          "name": "isStolen",
          "type": "bool"
        },
        {
          "indexed": false,
          "name": "isRepaired",
          "type": "bool"
        },
        {
          "indexed": false,
          "name": "isReimbursed",
          "type": "bool"
        },
        {
          "indexed": false,
          "name": "paidRepairShop",
          "type": "bool"
        }
      ],
      "name": "ProductCreated",
      "type": "event",
      "signature": "0x7dc113ebe2a59227be95a700733728215380342016add8ff01c2406f68513465"
    },
    {
      "anonymous": false,
      "inputs": [
        {
          "indexed": false,
          "name": "id",
          "type": "uint256"
        },
        {
          "indexed": false,
          "name": "name",
          "type": "string"
        },
        {
          "indexed": false,
          "name": "price",
          "type": "uint256"
        },
        {
          "indexed": false,
          "name": "insurancePrice",
          "type": "uint256"
        },
        {
          "indexed": false,
          "name": "owner",
          "type": "address"
        },
        {
          "indexed": false,
          "name": "insuranceOwner",
          "type": "address"
        },
        {
          "indexed": false,
          "name": "purchased",
          "type": "bool"
        },
        {
          "indexed": false,
          "name": "insurancePurchased",
          "type": "bool"
        },
        {
          "indexed": false,
          "name": "claimedPolice",
          "type": "bool"
        },
        {
          "indexed": false,
          "name": "claimedRepair",
          "type": "bool"
        },
        {
          "indexed": false,
          "name": "isStolen",
          "type": "bool"
        },
        {
          "indexed": false,
          "name": "isRepaired",
          "type": "bool"
        },
        {
          "indexed": false,
          "name": "isReimbursed",
          "type": "bool"
        },
        {
          "indexed": false,
          "name": "paidRepairShop",
          "type": "bool"
        }
      ],
      "name": "ProductPurchased",
      "type": "event",
      "signature": "0x2466f22fe0eb23eed363a5efcb3098c4efec144f49ebd4d1e44f3ab1b236bb45"
    },
    {
      "anonymous": false,
      "inputs": [
        {
          "indexed": false,
          "name": "id",
          "type": "uint256"
        },
        {
          "indexed": false,
          "name": "name",
          "type": "string"
        },
        {
          "indexed": false,
          "name": "price",
          "type": "uint256"
        },
        {
          "indexed": false,
          "name": "insurancePrice",
          "type": "uint256"
        },
        {
          "indexed": false,
          "name": "owner",
          "type": "address"
        },
        {
          "indexed": false,
          "name": "insuranceOwner",
          "type": "address"
        },
        {
          "indexed": false,
          "name": "purchased",
          "type": "bool"
        },
        {
          "indexed": false,
          "name": "insurancePurchased",
          "type": "bool"
        },
        {
          "indexed": false,
          "name": "claimedPolice",
          "type": "bool"
        },
        {
          "indexed": false,
          "name": "claimedRepair",
          "type": "bool"
        },
        {
          "indexed": false,
          "name": "isStolen",
          "type": "bool"
        },
        {
          "indexed": false,
          "name": "isRepaired",
          "type": "bool"
        },
        {
          "indexed": false,
          "name": "isReimbursed",
          "type": "bool"
        },
        {
          "indexed": false,
          "name": "paidRepairShop",
          "type": "bool"
        }
      ],
      "name": "InsurancePurchased",
      "type": "event",
      "signature": "0xaef4c1148d9d26077858bb6785fc95ae3341f8d4afb9b6b02d03edc83a5d8ffe"
    },
    {
      "anonymous": false,
      "inputs": [
        {
          "indexed": false,
          "name": "id",
          "type": "uint256"
        },
        {
          "indexed": false,
          "name": "name",
          "type": "string"
        },
        {
          "indexed": false,
          "name": "price",
          "type": "uint256"
        },
        {
          "indexed": false,
          "name": "insurancePrice",
          "type": "uint256"
        },
        {
          "indexed": false,
          "name": "owner",
          "type": "address"
        },
        {
          "indexed": false,
          "name": "insuranceOwner",
          "type": "address"
        },
        {
          "indexed": false,
          "name": "purchased",
          "type": "bool"
        },
        {
          "indexed": false,
          "name": "insurancePurchased",
          "type": "bool"
        },
        {
          "indexed": false,
          "name": "claimedPolice",
          "type": "bool"
        },
        {
          "indexed": false,
          "name": "claimedRepair",
          "type": "bool"
        },
        {
          "indexed": false,
          "name": "isStolen",
          "type": "bool"
        },
        {
          "indexed": false,
          "name": "isRepaired",
          "type": "bool"
        },
        {
          "indexed": false,
          "name": "isReimbursed",
          "type": "bool"
        },
        {
          "indexed": false,
          "name": "paidRepairShop",
          "type": "bool"
        }
      ],
      "name": "PoliceClaimed",
      "type": "event",
      "signature": "0xb27d2ecf30e1109ac77fe17e16bc36c97b8fc192bcdb8b4afab5134f9b797efd"
    },
    {
      "anonymous": false,
      "inputs": [
        {
          "indexed": false,
          "name": "id",
          "type": "uint256"
        },
        {
          "indexed": false,
          "name": "name",
          "type": "string"
        },
        {
          "indexed": false,
          "name": "price",
          "type": "uint256"
        },
        {
          "indexed": false,
          "name": "insurancePrice",
          "type": "uint256"
        },
        {
          "indexed": false,
          "name": "owner",
          "type": "address"
        },
        {
          "indexed": false,
          "name": "insuranceOwner",
          "type": "address"
        },
        {
          "indexed": false,
          "name": "purchased",
          "type": "bool"
        },
        {
          "indexed": false,
          "name": "insurancePurchased",
          "type": "bool"
        },
        {
          "indexed": false,
          "name": "claimedPolice",
          "type": "bool"
        },
        {
          "indexed": false,
          "name": "claimedRepair",
          "type": "bool"
        },
        {
          "indexed": false,
          "name": "isStolen",
          "type": "bool"
        },
        {
          "indexed": false,
          "name": "isRepaired",
          "type": "bool"
        },
        {
          "indexed": false,
          "name": "isReimbursed",
          "type": "bool"
        },
        {
          "indexed": false,
          "name": "paidRepairShop",
          "type": "bool"
        }
      ],
      "name": "RepairClaimed",
      "type": "event",
      "signature": "0x1cfd429a4ea66c7fa2659d2b5cafeadebec906350a94a7f3e8ecb1c4ffc3ae87"
    },
    {
      "anonymous": false,
      "inputs": [
        {
          "indexed": false,
          "name": "id",
          "type": "uint256"
        },
        {
          "indexed": false,
          "name": "name",
          "type": "string"
        },
        {
          "indexed": false,
          "name": "price",
          "type": "uint256"
        },
        {
          "indexed": false,
          "name": "insurancePrice",
          "type": "uint256"
        },
        {
          "indexed": false,
          "name": "owner",
          "type": "address"
        },
        {
          "indexed": false,
          "name": "insuranceOwner",
          "type": "address"
        },
        {
          "indexed": false,
          "name": "purchased",
          "type": "bool"
        },
        {
          "indexed": false,
          "name": "insurancePurchased",
          "type": "bool"
        },
        {
          "indexed": false,
          "name": "claimedPolice",
          "type": "bool"
        },
        {
          "indexed": false,
          "name": "claimedRepair",
          "type": "bool"
        },
        {
          "indexed": false,
          "name": "isStolen",
          "type": "bool"
        },
        {
          "indexed": false,
          "name": "isRepaired",
          "type": "bool"
        },
        {
          "indexed": false,
          "name": "isReimbursed",
          "type": "bool"
        },
        {
          "indexed": false,
          "name": "paidRepairShop",
          "type": "bool"
        }
      ],
      "name": "Stolen",
      "type": "event",
      "signature": "0xa776f8395485195f3e2e89c69e6c90d4562ddd47ffeddaf7015658620b04caf9"
    },
    {
      "anonymous": false,
      "inputs": [
        {
          "indexed": false,
          "name": "id",
          "type": "uint256"
        },
        {
          "indexed": false,
          "name": "name",
          "type": "string"
        },
        {
          "indexed": false,
          "name": "price",
          "type": "uint256"
        },
        {
          "indexed": false,
          "name": "insurancePrice",
          "type": "uint256"
        },
        {
          "indexed": false,
          "name": "owner",
          "type": "address"
        },
        {
          "indexed": false,
          "name": "insuranceOwner",
          "type": "address"
        },
        {
          "indexed": false,
          "name": "purchased",
          "type": "bool"
        },
        {
          "indexed": false,
          "name": "insurancePurchased",
          "type": "bool"
        },
        {
          "indexed": false,
          "name": "claimedPolice",
          "type": "bool"
        },
        {
          "indexed": false,
          "name": "claimedRepair",
          "type": "bool"
        },
        {
          "indexed": false,
          "name": "isStolen",
          "type": "bool"
        },
        {
          "indexed": false,
          "name": "isRepaired",
          "type": "bool"
        },
        {
          "indexed": false,
          "name": "isReimbursed",
          "type": "bool"
        },
        {
          "indexed": false,
          "name": "paidRepairShop",
          "type": "bool"
        }
      ],
      "name": "Repaired",
      "type": "event",
      "signature": "0xe0fdf1f7f868b6fad21a9d75a0ba142e6ace18122a0264072dd910c4e15fdc6f"
    },
    {
      "anonymous": false,
      "inputs": [
        {
          "indexed": false,
          "name": "id",
          "type": "uint256"
        },
        {
          "indexed": false,
          "name": "name",
          "type": "string"
        },
        {
          "indexed": false,
          "name": "price",
          "type": "uint256"
        },
        {
          "indexed": false,
          "name": "insurancePrice",
          "type": "uint256"
        },
        {
          "indexed": false,
          "name": "owner",
          "type": "address"
        },
        {
          "indexed": false,
          "name": "insuranceOwner",
          "type": "address"
        },
        {
          "indexed": false,
          "name": "purchased",
          "type": "bool"
        },
        {
          "indexed": false,
          "name": "insurancePurchased",
          "type": "bool"
        },
        {
          "indexed": false,
          "name": "claimedPolice",
          "type": "bool"
        },
        {
          "indexed": false,
          "name": "claimedRepair",
          "type": "bool"
        },
        {
          "indexed": false,
          "name": "isStolen",
          "type": "bool"
        },
        {
          "indexed": false,
          "name": "isRepaired",
          "type": "bool"
        },
        {
          "indexed": false,
          "name": "isReimbursed",
          "type": "bool"
        },
        {
          "indexed": false,
          "name": "paidRepairShop",
          "type": "bool"
        }
      ],
      "name": "Reimbursed",
      "type": "event",
      "signature": "0xc62f1cbbaf7dba06e02ae4de80a8a5395930cb33d00b38c0a28904fb9911625d"
    },
    {
      "anonymous": false,
      "inputs": [
        {
          "indexed": false,
          "name": "id",
          "type": "uint256"
        },
        {
          "indexed": false,
          "name": "name",
          "type": "string"
        },
        {
          "indexed": false,
          "name": "price",
          "type": "uint256"
        },
        {
          "indexed": false,
          "name": "insurancePrice",
          "type": "uint256"
        },
        {
          "indexed": false,
          "name": "owner",
          "type": "address"
        },
        {
          "indexed": false,
          "name": "insuranceOwner",
          "type": "address"
        },
        {
          "indexed": false,
          "name": "purchased",
          "type": "bool"
        },
        {
          "indexed": false,
          "name": "insurancePurchased",
          "type": "bool"
        },
        {
          "indexed": false,
          "name": "claimedPolice",
          "type": "bool"
        },
        {
          "indexed": false,
          "name": "claimedRepair",
          "type": "bool"
        },
        {
          "indexed": false,
          "name": "isStolen",
          "type": "bool"
        },
        {
          "indexed": false,
          "name": "isRepaired",
          "type": "bool"
        },
        {
          "indexed": false,
          "name": "isReimbursed",
          "type": "bool"
        },
        {
          "indexed": false,
          "name": "paidRepairShop",
          "type": "bool"
        }
      ],
      "name": "RepairShopPaid",
      "type": "event",
      "signature": "0xef34bdd06ae8f9107c9615bfceafaab77b05d03f62b71caea9605609816e47e3"
    },
    {
      "constant": false,
      "inputs": [
        {
          "name": "_name",
          "type": "string"
        },
        {
          "name": "_price",
          "type": "uint256"
        },
        {
          "name": "_insurancePrice",
          "type": "uint256"
        }
      ],
      "name": "createProduct",
      "outputs": [],
      "payable": false,
      "stateMutability": "nonpayable",
      "type": "function",
      "signature": "0x7bf12b1c"
    },
    {
      "constant": false,
      "inputs": [
        {
          "name": "_id",
          "type": "uint256"
        }
      ],
      "name": "purchaseProduct",
      "outputs": [],
      "payable": true,
      "stateMutability": "payable",
      "type": "function",
      "signature": "0x38e76a03"
    },
    {
      "constant": false,
      "inputs": [
        {
          "name": "_id",
          "type": "uint256"
        }
      ],
      "name": "purchaseInsurance",
      "outputs": [],
      "payable": true,
      "stateMutability": "payable",
      "type": "function",
      "signature": "0xe64e4588"
    },
    {
      "constant": false,
      "inputs": [
        {
          "name": "_id",
          "type": "uint256"
        }
      ],
      "name": "claimPolice",
      "outputs": [],
      "payable": false,
      "stateMutability": "nonpayable",
      "type": "function",
      "signature": "0x419c2a05"
    },
    {
      "constant": false,
      "inputs": [
        {
          "name": "_id",
          "type": "uint256"
        }
      ],
      "name": "claimRepair",
      "outputs": [],
      "payable": false,
      "stateMutability": "nonpayable",
      "type": "function",
      "signature": "0xf8e893eb"
    },
    {
      "constant": false,
      "inputs": [
        {
          "name": "_id",
          "type": "uint256"
        }
      ],
      "name": "stolen",
      "outputs": [],
      "payable": false,
      "stateMutability": "nonpayable",
      "type": "function",
      "signature": "0x3d727ef9"
    },
    {
      "constant": false,
      "inputs": [
        {
          "name": "_id",
          "type": "uint256"
        }
      ],
      "name": "repaired",
      "outputs": [],
      "payable": false,
      "stateMutability": "nonpayable",
      "type": "function",
      "signature": "0xf5dce2b4"
    },
    {
      "constant": false,
      "inputs": [
        {
          "name": "_id",
          "type": "uint256"
        }
      ],
      "name": "reimburse",
      "outputs": [],
      "payable": true,
      "stateMutability": "payable",
      "type": "function",
      "signature": "0x4a44c2e4"
    },
    {
      "constant": false,
      "inputs": [
        {
          "name": "_id",
          "type": "uint256"
        },
        {
          "name": "_repairShop",
          "type": "address"
        }
      ],
      "name": "payRepairShop",
      "outputs": [],
      "payable": true,
      "stateMutability": "payable",
      "type": "function",
      "signature": "0x4ceca636"
    }
  ],
  "bytecode": "0x6080604052600060015534801561001557600080fd5b50615066806100256000396000f3fe6080604052600436106100ba576000357c0100000000000000000000000000000000000000000000000000000000900463ffffffff16806306fdde03146100bf57806338e76a031461014f5780633d727ef91461017d578063419c2a05146101b85780634a44c2e4146101f35780634ceca636146102215780637acc0b201461026f5780637bf12b1c146103f6578063e0f6ef87146104d2578063e64e4588146104fd578063f5dce2b41461052b578063f8e893eb14610566575b600080fd5b3480156100cb57600080fd5b506100d46105a1565b6040518080602001828103825283818151815260200191508051906020019080838360005b838110156101145780820151818401526020810190506100f9565b50505050905090810190601f1680156101415780820380516001836020036101000a031916815260200191505b509250505060405180910390f35b61017b6004803603602081101561016557600080fd5b810190808035906020019092919050505061063f565b005b34801561018957600080fd5b506101b6600480360360208110156101a057600080fd5b8101908080359060200190929190505050610e76565b005b3480156101c457600080fd5b506101f1600480360360208110156101db57600080fd5b8101908080359060200190929190505050611713565b005b61021f6004803603602081101561020957600080fd5b8101908080359060200190929190505050611fb1565b005b61026d6004803603604081101561023757600080fd5b8101908080359060200190929190803573ffffffffffffffffffffffffffffffffffffffff169060200190929190505050612719565b005b34801561027b57600080fd5b506102a86004803603602081101561029257600080fd5b8101908080359060200190929190505050612e86565b604051808f8152602001806020018e81526020018d81526020018c73ffffffffffffffffffffffffffffffffffffffff1673ffffffffffffffffffffffffffffffffffffffff1681526020018b73ffffffffffffffffffffffffffffffffffffffff1673ffffffffffffffffffffffffffffffffffffffff1681526020018a1515151581526020018915151515815260200188151515158152602001871515151581526020018615151515815260200185151515158152602001841515151581526020018315151515815260200182810382528f818151815260200191508051906020019080838360005b838110156103ae578082015181840152602081019050610393565b50505050905090810190601f1680156103db5780820380516001836020036101000a031916815260200191505b509f5050505050505050505050505050505060405180910390f35b34801561040257600080fd5b506104d06004803603606081101561041957600080fd5b810190808035906020019064010000000081111561043657600080fd5b82018360208201111561044857600080fd5b8035906020019184600183028401116401000000008311171561046a57600080fd5b91908080601f016020809104026020016040519081016040528093929190818152602001838380828437600081840152601f19601f8201169050808301925050505050505091929192908035906020019092919080359060200190929190505050613032565b005b3480156104de57600080fd5b506104e7613551565b6040518082815260200191505060405180910390f35b6105296004803603602081101561051357600080fd5b8101908080359060200190929190505050613557565b005b34801561053757600080fd5b506105646004803603602081101561054e57600080fd5b8101908080359060200190929190505050613dae565b005b34801561057257600080fd5b5061059f6004803603602081101561058957600080fd5b810190808035906020019092919050505061464b565b005b60008054600181600116156101000203166002900480601f0160208091040260200160405190810160405280929190818152602001828054600181600116156101000203166002900480156106375780601f1061060c57610100808354040283529160200191610637565b820191906000526020600020905b81548152906001019060200180831161061a57829003601f168201915b505050505081565b610647614ee9565b600260008381526020019081526020016000206101c0604051908101604052908160008201548152602001600182018054600181600116156101000203166002900480601f01602080910402602001604051908101604052809291908181526020018280546001816001161561010002031660029004801561070a5780601f106106df5761010080835404028352916020019161070a565b820191906000526020600020905b8154815290600101906020018083116106ed57829003601f168201915b5050505050815260200160028201548152602001600382015481526020016004820160009054906101000a900473ffffffffffffffffffffffffffffffffffffffff1673ffffffffffffffffffffffffffffffffffffffff1673ffffffffffffffffffffffffffffffffffffffff1681526020016005820160009054906101000a900473ffffffffffffffffffffffffffffffffffffffff1673ffffffffffffffffffffffffffffffffffffffff1673ffffffffffffffffffffffffffffffffffffffff1681526020016005820160149054906101000a900460ff161515151581526020016005820160159054906101000a900460ff161515151581526020016005820160169054906101000a900460ff161515151581526020016005820160179054906101000a900460ff161515151581526020016005820160189054906101000a900460ff161515151581526020016005820160199054906101000a900460ff1615151515815260200160058201601a9054906101000a900460ff1615151515815260200160058201601b9054906101000a900460ff1615151515815250509050600081608001519050600082600001511180156108d05750600154826000015111155b151561091f576040517f08c379a0000000000000000000000000000000000000000000000000000000008152600401808060200182810382526000815260200160200191505060405180910390fd5b81604001513410151515610976576040517f08c379a0000000000000000000000000000000000000000000000000000000008152600401808060200182810382526000815260200160200191505060405180910390fd5b8160c001511515156109cb576040517f08c379a0000000000000000000000000000000000000000000000000000000008152600401808060200182810382526000815260200160200191505060405180910390fd5b3373ffffffffffffffffffffffffffffffffffffffff168173ffffffffffffffffffffffffffffffffffffffff1614151515610a4a576040517f08c379a0000000000000000000000000000000000000000000000000000000008152600401808060200182810382526000815260200160200191505060405180910390fd5b33826080019073ffffffffffffffffffffffffffffffffffffffff16908173ffffffffffffffffffffffffffffffffffffffff168152505060018260c00190151590811515815250508160026000858152602001908152602001600020600082015181600001556020820151816001019080519060200190610acd929190614f95565b50604082015181600201556060820151816003015560808201518160040160006101000a81548173ffffffffffffffffffffffffffffffffffffffff021916908373ffffffffffffffffffffffffffffffffffffffff16021790555060a08201518160050160006101000a81548173ffffffffffffffffffffffffffffffffffffffff021916908373ffffffffffffffffffffffffffffffffffffffff16021790555060c08201518160050160146101000a81548160ff02191690831515021790555060e08201518160050160156101000a81548160ff0219169083151502179055506101008201518160050160166101000a81548160ff0219169083151502179055506101208201518160050160176101000a81548160ff0219169083151502179055506101408201518160050160186101000a81548160ff0219169083151502179055506101608201518160050160196101000a81548160ff02191690831515021790555061018082015181600501601a6101000a81548160ff0219169083151502179055506101a082015181600501601b6101000a81548160ff0219169083151502179055509050508073ffffffffffffffffffffffffffffffffffffffff166108fc349081150290604051600060405180830381858888f19350505050158015610cbf573d6000803e3d6000fd5b507f2466f22fe0eb23eed363a5efcb3098c4efec144f49ebd4d1e44f3ab1b236bb45600154836020015184604001518560600151338760a0015160018960e001518a61010001518b61012001518c61014001518d61016001518e61018001518f6101a00151604051808f8152602001806020018e81526020018d81526020018c73ffffffffffffffffffffffffffffffffffffffff1673ffffffffffffffffffffffffffffffffffffffff1681526020018b73ffffffffffffffffffffffffffffffffffffffff1673ffffffffffffffffffffffffffffffffffffffff1681526020018a1515151581526020018915151515815260200188151515158152602001871515151581526020018615151515815260200185151515158152602001841515151581526020018315151515815260200182810382528f818151815260200191508051906020019080838360005b83811015610e2a578082015181840152602081019050610e0f565b50505050905090810190601f168015610e575780820380516001836020036101000a031916815260200191505b509f5050505050505050505050505050505060405180910390a1505050565b610e7e614ee9565b600260008381526020019081526020016000206101c0604051908101604052908160008201548152602001600182018054600181600116156101000203166002900480601f016020809104026020016040519081016040528092919081815260200182805460018160011615610100020316600290048015610f415780601f10610f1657610100808354040283529160200191610f41565b820191906000526020600020905b815481529060010190602001808311610f2457829003601f168201915b5050505050815260200160028201548152602001600382015481526020016004820160009054906101000a900473ffffffffffffffffffffffffffffffffffffffff1673ffffffffffffffffffffffffffffffffffffffff1673ffffffffffffffffffffffffffffffffffffffff1681526020016005820160009054906101000a900473ffffffffffffffffffffffffffffffffffffffff1673ffffffffffffffffffffffffffffffffffffffff1673ffffffffffffffffffffffffffffffffffffffff1681526020016005820160149054906101000a900460ff161515151581526020016005820160159054906101000a900460ff161515151581526020016005820160169054906101000a900460ff161515151581526020016005820160179054906101000a900460ff161515151581526020016005820160189054906101000a900460ff161515151581526020016005820160199054906101000a900460ff1615151515815260200160058201601a9054906101000a900460ff1615151515815260200160058201601b9054906101000a900460ff16151515158152505090508060c001511515611183576040517f08c379a00000000000000000000000000000000000000000000000000000000081526004018080602001828103825260228152602001807f796f752068617665206e6f7420707572636861736564207468652070726f647581526020017f637400000000000000000000000000000000000000000000000000000000000081525060400191505060405180910390fd5b8060e001511515611222576040517f08c379a00000000000000000000000000000000000000000000000000000000081526004018080602001828103825260248152602001807f796f752068617665206e6f74207075726368617365642074686520696e73757281526020017f616e63650000000000000000000000000000000000000000000000000000000081525060400191505060405180910390fd5b8061012001511515156112c3576040517f08c379a00000000000000000000000000000000000000000000000000000000081526004018080602001828103825260278152602001807f726570616972207365727669636520697320636c61696d656420666f7220746881526020017f6973206974656d0000000000000000000000000000000000000000000000000081525060400191505060405180910390fd5b8061010001511515611363576040517f08c379a00000000000000000000000000000000000000000000000000000000081526004018080602001828103825260268152602001807f706f6c69636520736572766963652073686f756c6420626520636c61696d656481526020017f206669727374000000000000000000000000000000000000000000000000000081525060400191505060405180910390fd5b60018161014001901515908115158152505080600260008481526020019081526020016000206000820151816000015560208201518160010190805190602001906113af929190614f95565b50604082015181600201556060820151816003015560808201518160040160006101000a81548173ffffffffffffffffffffffffffffffffffffffff021916908373ffffffffffffffffffffffffffffffffffffffff16021790555060a08201518160050160006101000a81548173ffffffffffffffffffffffffffffffffffffffff021916908373ffffffffffffffffffffffffffffffffffffffff16021790555060c08201518160050160146101000a81548160ff02191690831515021790555060e08201518160050160156101000a81548160ff0219169083151502179055506101008201518160050160166101000a81548160ff0219169083151502179055506101208201518160050160176101000a81548160ff0219169083151502179055506101408201518160050160186101000a81548160ff0219169083151502179055506101608201518160050160196101000a81548160ff02191690831515021790555061018082015181600501601a6101000a81548160ff0219169083151502179055506101a082015181600501601b6101000a81548160ff0219169083151502179055509050507fa776f8395485195f3e2e89c69e6c90d4562ddd47ffeddaf7015658620b04caf960015482602001518360400151846060015185608001518660a001518760c001518860e001518961010001518a610120015160018c61016001518d61018001518e6101a00151604051808f8152602001806020018e81526020018d81526020018c73ffffffffffffffffffffffffffffffffffffffff1673ffffffffffffffffffffffffffffffffffffffff1681526020018b73ffffffffffffffffffffffffffffffffffffffff1673ffffffffffffffffffffffffffffffffffffffff1681526020018a1515151581526020018915151515815260200188151515158152602001871515151581526020018615151515815260200185151515158152602001841515151581526020018315151515815260200182810382528f818151815260200191508051906020019080838360005b838110156116c85780820151818401526020810190506116ad565b50505050905090810190601f1680156116f55780820380516001836020036101000a031916815260200191505b509f5050505050505050505050505050505060405180910390a15050565b61171b614ee9565b600260008381526020019081526020016000206101c0604051908101604052908160008201548152602001600182018054600181600116156101000203166002900480601f0160208091040260200160405190810160405280929190818152602001828054600181600116156101000203166002900480156117de5780601f106117b3576101008083540402835291602001916117de565b820191906000526020600020905b8154815290600101906020018083116117c157829003601f168201915b5050505050815260200160028201548152602001600382015481526020016004820160009054906101000a900473ffffffffffffffffffffffffffffffffffffffff1673ffffffffffffffffffffffffffffffffffffffff1673ffffffffffffffffffffffffffffffffffffffff1681526020016005820160009054906101000a900473ffffffffffffffffffffffffffffffffffffffff1673ffffffffffffffffffffffffffffffffffffffff1673ffffffffffffffffffffffffffffffffffffffff1681526020016005820160149054906101000a900460ff161515151581526020016005820160159054906101000a900460ff161515151581526020016005820160169054906101000a900460ff161515151581526020016005820160179054906101000a900460ff161515151581526020016005820160189054906101000a900460ff161515151581526020016005820160199054906101000a900460ff1615151515815260200160058201601a9054906101000a900460ff1615151515815260200160058201601b9054906101000a900460ff16151515158152505090508060c001511515611a20576040517f08c379a00000000000000000000000000000000000000000000000000000000081526004018080602001828103825260228152602001807f796f752068617665206e6f7420707572636861736564207468652070726f647581526020017f637400000000000000000000000000000000000000000000000000000000000081525060400191505060405180910390fd5b8060e001511515611abf576040517f08c379a00000000000000000000000000000000000000000000000000000000081526004018080602001828103825260248152602001807f796f752068617665206e6f74207075726368617365642074686520696e73757281526020017f616e63650000000000000000000000000000000000000000000000000000000081525060400191505060405180910390fd5b806101200151151515611b60576040517f08c379a00000000000000000000000000000000000000000000000000000000081526004018080602001828103825260228152602001807f72657061697220697320636c61696d656420666f7220746869732070726f647581526020017f637400000000000000000000000000000000000000000000000000000000000081525060400191505060405180910390fd5b806101000151151515611c01576040517f08c379a00000000000000000000000000000000000000000000000000000000081526004018080602001828103825260228152602001807f706f6c69636520697320636c61696d656420666f7220746869732070726f647581526020017f637400000000000000000000000000000000000000000000000000000000000081525060400191505060405180910390fd5b6001816101000190151590811515815250508060026000848152602001908152602001600020600082015181600001556020820151816001019080519060200190611c4d929190614f95565b50604082015181600201556060820151816003015560808201518160040160006101000a81548173ffffffffffffffffffffffffffffffffffffffff021916908373ffffffffffffffffffffffffffffffffffffffff16021790555060a08201518160050160006101000a81548173ffffffffffffffffffffffffffffffffffffffff021916908373ffffffffffffffffffffffffffffffffffffffff16021790555060c08201518160050160146101000a81548160ff02191690831515021790555060e08201518160050160156101000a81548160ff0219169083151502179055506101008201518160050160166101000a81548160ff0219169083151502179055506101208201518160050160176101000a81548160ff0219169083151502179055506101408201518160050160186101000a81548160ff0219169083151502179055506101608201518160050160196101000a81548160ff02191690831515021790555061018082015181600501601a6101000a81548160ff0219169083151502179055506101a082015181600501601b6101000a81548160ff0219169083151502179055509050507fb27d2ecf30e1109ac77fe17e16bc36c97b8fc192bcdb8b4afab5134f9b797efd60015482602001518360400151846060015185608001518660a001518760c001518860e0015160018a61012001518b61014001518c61016001518d61018001518e6101a00151604051808f8152602001806020018e81526020018d81526020018c73ffffffffffffffffffffffffffffffffffffffff1673ffffffffffffffffffffffffffffffffffffffff1681526020018b73ffffffffffffffffffffffffffffffffffffffff1673ffffffffffffffffffffffffffffffffffffffff1681526020018a1515151581526020018915151515815260200188151515158152602001871515151581526020018615151515815260200185151515158152602001841515151581526020018315151515815260200182810382528f818151815260200191508051906020019080838360005b83811015611f66578082015181840152602081019050611f4b565b50505050905090810190601f168015611f935780820380516001836020036101000a031916815260200191505b509f5050505050505050505050505050505060405180910390a15050565b611fb9614ee9565b600260008381526020019081526020016000206101c0604051908101604052908160008201548152602001600182018054600181600116156101000203166002900480601f01602080910402602001604051908101604052809291908181526020018280546001816001161561010002031660029004801561207c5780601f106120515761010080835404028352916020019161207c565b820191906000526020600020905b81548152906001019060200180831161205f57829003601f168201915b5050505050815260200160028201548152602001600382015481526020016004820160009054906101000a900473ffffffffffffffffffffffffffffffffffffffff1673ffffffffffffffffffffffffffffffffffffffff1673ffffffffffffffffffffffffffffffffffffffff1681526020016005820160009054906101000a900473ffffffffffffffffffffffffffffffffffffffff1673ffffffffffffffffffffffffffffffffffffffff1673ffffffffffffffffffffffffffffffffffffffff1681526020016005820160149054906101000a900460ff161515151581526020016005820160159054906101000a900460ff161515151581526020016005820160169054906101000a900460ff161515151581526020016005820160179054906101000a900460ff161515151581526020016005820160189054906101000a900460ff161515151581526020016005820160199054906101000a900460ff1615151515815260200160058201601a9054906101000a900460ff1615151515815260200160058201601b9054906101000a900460ff16151515158152505090508061014001511515612299576040517f08c379a000000000000000000000000000000000000000000000000000000000815260040180806020018281038252600a8152602001807f6e6f742073746f6c656e0000000000000000000000000000000000000000000081525060200191505060405180910390fd5b6000816080015190503373ffffffffffffffffffffffffffffffffffffffff168173ffffffffffffffffffffffffffffffffffffffff1614151515612321576040517f08c379a0000000000000000000000000000000000000000000000000000000008152600401808060200182810382526000815260200160200191505060405180910390fd5b600182610180019015159081151581525050816002600085815260200190815260200160002060008201518160000155602082015181600101908051906020019061236d929190614f95565b50604082015181600201556060820151816003015560808201518160040160006101000a81548173ffffffffffffffffffffffffffffffffffffffff021916908373ffffffffffffffffffffffffffffffffffffffff16021790555060a08201518160050160006101000a81548173ffffffffffffffffffffffffffffffffffffffff021916908373ffffffffffffffffffffffffffffffffffffffff16021790555060c08201518160050160146101000a81548160ff02191690831515021790555060e08201518160050160156101000a81548160ff0219169083151502179055506101008201518160050160166101000a81548160ff0219169083151502179055506101208201518160050160176101000a81548160ff0219169083151502179055506101408201518160050160186101000a81548160ff0219169083151502179055506101608201518160050160196101000a81548160ff02191690831515021790555061018082015181600501601a6101000a81548160ff0219169083151502179055506101a082015181600501601b6101000a81548160ff0219169083151502179055509050508073ffffffffffffffffffffffffffffffffffffffff166108fc349081150290604051600060405180830381858888f1935050505015801561255f573d6000803e3d6000fd5b507fc62f1cbbaf7dba06e02ae4de80a8a5395930cb33d00b38c0a28904fb9911625d60015483602001518460400151856060015186608001518760a001518860c001518960e001518a61010001518b61012001518c61014001518d610160015160018f6101a00151604051808f8152602001806020018e81526020018d81526020018c73ffffffffffffffffffffffffffffffffffffffff1673ffffffffffffffffffffffffffffffffffffffff1681526020018b73ffffffffffffffffffffffffffffffffffffffff1673ffffffffffffffffffffffffffffffffffffffff1681526020018a1515151581526020018915151515815260200188151515158152602001871515151581526020018615151515815260200185151515158152602001841515151581526020018315151515815260200182810382528f818151815260200191508051906020019080838360005b838110156126cd5780820151818401526020810190506126b2565b50505050905090810190601f1680156126fa5780820380516001836020036101000a031916815260200191505b509f5050505050505050505050505050505060405180910390a1505050565b612721614ee9565b600260008481526020019081526020016000206101c0604051908101604052908160008201548152602001600182018054600181600116156101000203166002900480601f0160208091040260200160405190810160405280929190818152602001828054600181600116156101000203166002900480156127e45780601f106127b9576101008083540402835291602001916127e4565b820191906000526020600020905b8154815290600101906020018083116127c757829003601f168201915b5050505050815260200160028201548152602001600382015481526020016004820160009054906101000a900473ffffffffffffffffffffffffffffffffffffffff1673ffffffffffffffffffffffffffffffffffffffff1673ffffffffffffffffffffffffffffffffffffffff1681526020016005820160009054906101000a900473ffffffffffffffffffffffffffffffffffffffff1673ffffffffffffffffffffffffffffffffffffffff1673ffffffffffffffffffffffffffffffffffffffff1681526020016005820160149054906101000a900460ff161515151581526020016005820160159054906101000a900460ff161515151581526020016005820160169054906101000a900460ff161515151581526020016005820160179054906101000a900460ff161515151581526020016005820160189054906101000a900460ff161515151581526020016005820160199054906101000a900460ff1615151515815260200160058201601a9054906101000a900460ff1615151515815260200160058201601b9054906101000a900460ff161515151581525050905060006002826040015181151561299957fe5b0490508161016001511515612a16576040517f08c379a000000000000000000000000000000000000000000000000000000000815260040180806020018281038252600c8152602001807f6e6f74207265706169726564000000000000000000000000000000000000000081525060200191505060405180910390fd5b8034141515612a8d576040517f08c379a000000000000000000000000000000000000000000000000000000000815260040180806020018281038252601c8152602001807f72657061697220636861726765206973206e6f7420636f72726563740000000081525060200191505060405180910390fd5b6001826101a00190151590811515815250508160026000868152602001908152602001600020600082015181600001556020820151816001019080519060200190612ad9929190614f95565b50604082015181600201556060820151816003015560808201518160040160006101000a81548173ffffffffffffffffffffffffffffffffffffffff021916908373ffffffffffffffffffffffffffffffffffffffff16021790555060a08201518160050160006101000a81548173ffffffffffffffffffffffffffffffffffffffff021916908373ffffffffffffffffffffffffffffffffffffffff16021790555060c08201518160050160146101000a81548160ff02191690831515021790555060e08201518160050160156101000a81548160ff0219169083151502179055506101008201518160050160166101000a81548160ff0219169083151502179055506101208201518160050160176101000a81548160ff0219169083151502179055506101408201518160050160186101000a81548160ff0219169083151502179055506101608201518160050160196101000a81548160ff02191690831515021790555061018082015181600501601a6101000a81548160ff0219169083151502179055506101a082015181600501601b6101000a81548160ff0219169083151502179055509050508273ffffffffffffffffffffffffffffffffffffffff166108fc349081150290604051600060405180830381858888f19350505050158015612ccb573d6000803e3d6000fd5b507fef34bdd06ae8f9107c9615bfceafaab77b05d03f62b71caea9605609816e47e360015483602001518460400151856060015186608001518760a001518860c001518960e001518a61010001518b61012001518c61014001518d61016001518e61018001516001604051808f8152602001806020018e81526020018d81526020018c73ffffffffffffffffffffffffffffffffffffffff1673ffffffffffffffffffffffffffffffffffffffff1681526020018b73ffffffffffffffffffffffffffffffffffffffff1673ffffffffffffffffffffffffffffffffffffffff1681526020018a1515151581526020018915151515815260200188151515158152602001871515151581526020018615151515815260200185151515158152602001841515151581526020018315151515815260200182810382528f818151815260200191508051906020019080838360005b83811015612e39578082015181840152602081019050612e1e565b50505050905090810190601f168015612e665780820380516001836020036101000a031916815260200191505b509f5050505050505050505050505050505060405180910390a150505050565b6002602052806000526040600020600091509050806000015490806001018054600181600116156101000203166002900480601f016020809104026020016040519081016040528092919081815260200182805460018160011615610100020316600290048015612f385780601f10612f0d57610100808354040283529160200191612f38565b820191906000526020600020905b815481529060010190602001808311612f1b57829003601f168201915b5050505050908060020154908060030154908060040160009054906101000a900473ffffffffffffffffffffffffffffffffffffffff16908060050160009054906101000a900473ffffffffffffffffffffffffffffffffffffffff16908060050160149054906101000a900460ff16908060050160159054906101000a900460ff16908060050160169054906101000a900460ff16908060050160179054906101000a900460ff16908060050160189054906101000a900460ff16908060050160199054906101000a900460ff169080600501601a9054906101000a900460ff169080600501601b9054906101000a900460ff1690508e565b60008351111515613086576040517f08c379a0000000000000000000000000000000000000000000000000000000008152600401808060200182810382526000815260200160200191505060405180910390fd5b6000821115156130d9576040517f08c379a0000000000000000000000000000000000000000000000000000000008152600401808060200182810382526000815260200160200191505060405180910390fd5b60008111151561312c576040517f08c379a0000000000000000000000000000000000000000000000000000000008152600401808060200182810382526000815260200160200191505060405180910390fd5b6001600081548092919060010191905055506101c06040519081016040528060015481526020018481526020018381526020018281526020013373ffffffffffffffffffffffffffffffffffffffff1681526020013373ffffffffffffffffffffffffffffffffffffffff1681526020016000151581526020016000151581526020016000151581526020016000151581526020016000151581526020016000151581526020016000151581526020016000151581525060026000600154815260200190815260200160002060008201518160000155602082015181600101908051906020019061321e929190614f95565b50604082015181600201556060820151816003015560808201518160040160006101000a81548173ffffffffffffffffffffffffffffffffffffffff021916908373ffffffffffffffffffffffffffffffffffffffff16021790555060a08201518160050160006101000a81548173ffffffffffffffffffffffffffffffffffffffff021916908373ffffffffffffffffffffffffffffffffffffffff16021790555060c08201518160050160146101000a81548160ff02191690831515021790555060e08201518160050160156101000a81548160ff0219169083151502179055506101008201518160050160166101000a81548160ff0219169083151502179055506101208201518160050160176101000a81548160ff0219169083151502179055506101408201518160050160186101000a81548160ff0219169083151502179055506101608201518160050160196101000a81548160ff02191690831515021790555061018082015181600501601a6101000a81548160ff0219169083151502179055506101a082015181600501601b6101000a81548160ff0219169083151502179055509050507f7dc113ebe2a59227be95a700733728215380342016add8ff01c2406f685134656001548484843333600080600080600080600080604051808f8152602001806020018e81526020018d81526020018c73ffffffffffffffffffffffffffffffffffffffff1673ffffffffffffffffffffffffffffffffffffffff1681526020018b73ffffffffffffffffffffffffffffffffffffffff1673ffffffffffffffffffffffffffffffffffffffff1681526020018a1515151581526020018915151515815260200188151515158152602001871515151581526020018615151515815260200185151515158152602001841515151581526020018315151515815260200182810382528f818151815260200191508051906020019080838360005b838110156135055780820151818401526020810190506134ea565b50505050905090810190601f1680156135325780820380516001836020036101000a031916815260200191505b509f5050505050505050505050505050505060405180910390a1505050565b60015481565b61355f614ee9565b600260008381526020019081526020016000206101c0604051908101604052908160008201548152602001600182018054600181600116156101000203166002900480601f0160208091040260200160405190810160405280929190818152602001828054600181600116156101000203166002900480156136225780601f106135f757610100808354040283529160200191613622565b820191906000526020600020905b81548152906001019060200180831161360557829003601f168201915b5050505050815260200160028201548152602001600382015481526020016004820160009054906101000a900473ffffffffffffffffffffffffffffffffffffffff1673ffffffffffffffffffffffffffffffffffffffff1673ffffffffffffffffffffffffffffffffffffffff1681526020016005820160009054906101000a900473ffffffffffffffffffffffffffffffffffffffff1673ffffffffffffffffffffffffffffffffffffffff1673ffffffffffffffffffffffffffffffffffffffff1681526020016005820160149054906101000a900460ff161515151581526020016005820160159054906101000a900460ff161515151581526020016005820160169054906101000a900460ff161515151581526020016005820160179054906101000a900460ff161515151581526020016005820160189054906101000a900460ff161515151581526020016005820160199054906101000a900460ff1615151515815260200160058201601a9054906101000a900460ff1615151515815260200160058201601b9054906101000a900460ff161515151581525050905060008160a001519050600082600001511180156137e85750600154826000015111155b1515613837576040517f08c379a0000000000000000000000000000000000000000000000000000000008152600401808060200182810382526000815260200160200191505060405180910390fd5b8160600151341015151561388e576040517f08c379a0000000000000000000000000000000000000000000000000000000008152600401808060200182810382526000815260200160200191505060405180910390fd5b8160c0015115156138e2576040517f08c379a0000000000000000000000000000000000000000000000000000000008152600401808060200182810382526000815260200160200191505060405180910390fd5b8160e00151151515613937576040517f08c379a0000000000000000000000000000000000000000000000000000000008152600401808060200182810382526000815260200160200191505060405180910390fd5b3373ffffffffffffffffffffffffffffffffffffffff168173ffffffffffffffffffffffffffffffffffffffff16141515156139b6576040517f08c379a0000000000000000000000000000000000000000000000000000000008152600401808060200182810382526000815260200160200191505060405180910390fd5b60018260e00190151590811515815250508160026000858152602001908152602001600020600082015181600001556020820151816001019080519060200190613a01929190614f95565b50604082015181600201556060820151816003015560808201518160040160006101000a81548173ffffffffffffffffffffffffffffffffffffffff021916908373ffffffffffffffffffffffffffffffffffffffff16021790555060a08201518160050160006101000a81548173ffffffffffffffffffffffffffffffffffffffff021916908373ffffffffffffffffffffffffffffffffffffffff16021790555060c08201518160050160146101000a81548160ff02191690831515021790555060e08201518160050160156101000a81548160ff0219169083151502179055506101008201518160050160166101000a81548160ff0219169083151502179055506101208201518160050160176101000a81548160ff0219169083151502179055506101408201518160050160186101000a81548160ff0219169083151502179055506101608201518160050160196101000a81548160ff02191690831515021790555061018082015181600501601a6101000a81548160ff0219169083151502179055506101a082015181600501601b6101000a81548160ff0219169083151502179055509050508073ffffffffffffffffffffffffffffffffffffffff166108fc349081150290604051600060405180830381858888f19350505050158015613bf3573d6000803e3d6000fd5b507faef4c1148d9d26077858bb6785fc95ae3341f8d4afb9b6b02d03edc83a5d8ffe60015483602001518460400151856060015186608001518760a001518860c0015160018a61010001518b61012001518c61014001518d61016001518e61018001518f6101a00151604051808f8152602001806020018e81526020018d81526020018c73ffffffffffffffffffffffffffffffffffffffff1673ffffffffffffffffffffffffffffffffffffffff1681526020018b73ffffffffffffffffffffffffffffffffffffffff1673ffffffffffffffffffffffffffffffffffffffff1681526020018a1515151581526020018915151515815260200188151515158152602001871515151581526020018615151515815260200185151515158152602001841515151581526020018315151515815260200182810382528f818151815260200191508051906020019080838360005b83811015613d62578082015181840152602081019050613d47565b50505050905090810190601f168015613d8f5780820380516001836020036101000a031916815260200191505b509f5050505050505050505050505050505060405180910390a1505050565b613db6614ee9565b600260008381526020019081526020016000206101c0604051908101604052908160008201548152602001600182018054600181600116156101000203166002900480601f016020809104026020016040519081016040528092919081815260200182805460018160011615610100020316600290048015613e795780601f10613e4e57610100808354040283529160200191613e79565b820191906000526020600020905b815481529060010190602001808311613e5c57829003601f168201915b5050505050815260200160028201548152602001600382015481526020016004820160009054906101000a900473ffffffffffffffffffffffffffffffffffffffff1673ffffffffffffffffffffffffffffffffffffffff1673ffffffffffffffffffffffffffffffffffffffff1681526020016005820160009054906101000a900473ffffffffffffffffffffffffffffffffffffffff1673ffffffffffffffffffffffffffffffffffffffff1673ffffffffffffffffffffffffffffffffffffffff1681526020016005820160149054906101000a900460ff161515151581526020016005820160159054906101000a900460ff161515151581526020016005820160169054906101000a900460ff161515151581526020016005820160179054906101000a900460ff161515151581526020016005820160189054906101000a900460ff161515151581526020016005820160199054906101000a900460ff1615151515815260200160058201601a9054906101000a900460ff1615151515815260200160058201601b9054906101000a900460ff16151515158152505090508060c0015115156140bb576040517f08c379a00000000000000000000000000000000000000000000000000000000081526004018080602001828103825260228152602001807f796f752068617665206e6f7420707572636861736564207468652070726f647581526020017f637400000000000000000000000000000000000000000000000000000000000081525060400191505060405180910390fd5b8060e00151151561415a576040517f08c379a00000000000000000000000000000000000000000000000000000000081526004018080602001828103825260248152602001807f796f752068617665206e6f74207075726368617365642074686520696e73757281526020017f616e63650000000000000000000000000000000000000000000000000000000081525060400191505060405180910390fd5b8061010001511515156141fb576040517f08c379a00000000000000000000000000000000000000000000000000000000081526004018080602001828103825260278152602001807f706f6c696365207365727669636520697320636c61696d656420666f7220746881526020017f6973206974656d0000000000000000000000000000000000000000000000000081525060400191505060405180910390fd5b806101200151151561429b576040517f08c379a00000000000000000000000000000000000000000000000000000000081526004018080602001828103825260268152602001807f72657061697220736572766963652073686f756c6420626520636c61696d656481526020017f206669727374000000000000000000000000000000000000000000000000000081525060400191505060405180910390fd5b60018161016001901515908115158152505080600260008481526020019081526020016000206000820151816000015560208201518160010190805190602001906142e7929190614f95565b50604082015181600201556060820151816003015560808201518160040160006101000a81548173ffffffffffffffffffffffffffffffffffffffff021916908373ffffffffffffffffffffffffffffffffffffffff16021790555060a08201518160050160006101000a81548173ffffffffffffffffffffffffffffffffffffffff021916908373ffffffffffffffffffffffffffffffffffffffff16021790555060c08201518160050160146101000a81548160ff02191690831515021790555060e08201518160050160156101000a81548160ff0219169083151502179055506101008201518160050160166101000a81548160ff0219169083151502179055506101208201518160050160176101000a81548160ff0219169083151502179055506101408201518160050160186101000a81548160ff0219169083151502179055506101608201518160050160196101000a81548160ff02191690831515021790555061018082015181600501601a6101000a81548160ff0219169083151502179055506101a082015181600501601b6101000a81548160ff0219169083151502179055509050507fe0fdf1f7f868b6fad21a9d75a0ba142e6ace18122a0264072dd910c4e15fdc6f60015482602001518360400151846060015185608001518660a001518760c001518860e001518961010001518a61012001518b610140015160018d61018001518e6101a00151604051808f8152602001806020018e81526020018d81526020018c73ffffffffffffffffffffffffffffffffffffffff1673ffffffffffffffffffffffffffffffffffffffff1681526020018b73ffffffffffffffffffffffffffffffffffffffff1673ffffffffffffffffffffffffffffffffffffffff1681526020018a1515151581526020018915151515815260200188151515158152602001871515151581526020018615151515815260200185151515158152602001841515151581526020018315151515815260200182810382528f818151815260200191508051906020019080838360005b838110156146005780820151818401526020810190506145e5565b50505050905090810190601f16801561462d5780820380516001836020036101000a031916815260200191505b509f5050505050505050505050505050505060405180910390a15050565b614653614ee9565b600260008381526020019081526020016000206101c0604051908101604052908160008201548152602001600182018054600181600116156101000203166002900480601f0160208091040260200160405190810160405280929190818152602001828054600181600116156101000203166002900480156147165780601f106146eb57610100808354040283529160200191614716565b820191906000526020600020905b8154815290600101906020018083116146f957829003601f168201915b5050505050815260200160028201548152602001600382015481526020016004820160009054906101000a900473ffffffffffffffffffffffffffffffffffffffff1673ffffffffffffffffffffffffffffffffffffffff1673ffffffffffffffffffffffffffffffffffffffff1681526020016005820160009054906101000a900473ffffffffffffffffffffffffffffffffffffffff1673ffffffffffffffffffffffffffffffffffffffff1673ffffffffffffffffffffffffffffffffffffffff1681526020016005820160149054906101000a900460ff161515151581526020016005820160159054906101000a900460ff161515151581526020016005820160169054906101000a900460ff161515151581526020016005820160179054906101000a900460ff161515151581526020016005820160189054906101000a900460ff161515151581526020016005820160199054906101000a900460ff1615151515815260200160058201601a9054906101000a900460ff1615151515815260200160058201601b9054906101000a900460ff16151515158152505090508060c001511515614958576040517f08c379a00000000000000000000000000000000000000000000000000000000081526004018080602001828103825260228152602001807f796f752068617665206e6f7420707572636861736564207468652070726f647581526020017f637400000000000000000000000000000000000000000000000000000000000081525060400191505060405180910390fd5b8060e0015115156149f7576040517f08c379a00000000000000000000000000000000000000000000000000000000081526004018080602001828103825260248152602001807f796f752068617665206e6f74207075726368617365642074686520696e73757281526020017f616e63650000000000000000000000000000000000000000000000000000000081525060400191505060405180910390fd5b806101000151151515614a98576040517f08c379a00000000000000000000000000000000000000000000000000000000081526004018080602001828103825260228152602001807f706f6c69636520697320636c61696d656420666f7220746869732070726f647581526020017f637400000000000000000000000000000000000000000000000000000000000081525060400191505060405180910390fd5b806101200151151515614b39576040517f08c379a00000000000000000000000000000000000000000000000000000000081526004018080602001828103825260228152602001807f72657061697220697320636c61696d656420666f7220746869732070726f647581526020017f637400000000000000000000000000000000000000000000000000000000000081525060400191505060405180910390fd5b6001816101200190151590811515815250508060026000848152602001908152602001600020600082015181600001556020820151816001019080519060200190614b85929190614f95565b50604082015181600201556060820151816003015560808201518160040160006101000a81548173ffffffffffffffffffffffffffffffffffffffff021916908373ffffffffffffffffffffffffffffffffffffffff16021790555060a08201518160050160006101000a81548173ffffffffffffffffffffffffffffffffffffffff021916908373ffffffffffffffffffffffffffffffffffffffff16021790555060c08201518160050160146101000a81548160ff02191690831515021790555060e08201518160050160156101000a81548160ff0219169083151502179055506101008201518160050160166101000a81548160ff0219169083151502179055506101208201518160050160176101000a81548160ff0219169083151502179055506101408201518160050160186101000a81548160ff0219169083151502179055506101608201518160050160196101000a81548160ff02191690831515021790555061018082015181600501601a6101000a81548160ff0219169083151502179055506101a082015181600501601b6101000a81548160ff0219169083151502179055509050507f1cfd429a4ea66c7fa2659d2b5cafeadebec906350a94a7f3e8ecb1c4ffc3ae8760015482602001518360400151846060015185608001518660a001518760c001518860e0015189610100015160018b61014001518c61016001518d61018001518e6101a00151604051808f8152602001806020018e81526020018d81526020018c73ffffffffffffffffffffffffffffffffffffffff1673ffffffffffffffffffffffffffffffffffffffff1681526020018b73ffffffffffffffffffffffffffffffffffffffff1673ffffffffffffffffffffffffffffffffffffffff1681526020018a1515151581526020018915151515815260200188151515158152602001871515151581526020018615151515815260200185151515158152602001841515151581526020018315151515815260200182810382528f818151815260200191508051906020019080838360005b83811015614e9e578082015181840152602081019050614e83565b50505050905090810190601f168015614ecb5780820380516001836020036101000a031916815260200191505b509f5050505050505050505050505050505060405180910390a15050565b6101c06040519081016040528060008152602001606081526020016000815260200160008152602001600073ffffffffffffffffffffffffffffffffffffffff168152602001600073ffffffffffffffffffffffffffffffffffffffff1681526020016000151581526020016000151581526020016000151581526020016000151581526020016000151581526020016000151581526020016000151581526020016000151581525090565b828054600181600116156101000203166002900490600052602060002090601f016020900481019282601f10614fd657805160ff1916838001178555615004565b82800160010185558215615004579182015b82811115615003578251825591602001919060010190614fe8565b5b5090506150119190615015565b5090565b61503791905b8082111561503357600081600090555060010161501b565b5090565b9056fea165627a7a7230582027cac3ac5a316e0c9cb47932a7247dbe1b083647ab9ac2123a92bc6895f5ed9b0029",
  "source": "pragma solidity ^0.5.0;\n\ncontract Insurance {\n    string public name;\n    uint256 public productCount = 0;\n    mapping(uint256 => Product) public products;\n\n    struct Product {\n        uint256 id;\n        string name;\n        uint256 price;\n        uint256 insurancePrice;\n        address payable owner;\n        address payable insuranceOwner;\n        bool purchased;\n        bool insurancePurchased;\n        bool claimedPolice;\n        bool claimedRepair;\n        bool isStolen;\n        bool isRepaired;\n        bool isReimbursed;\n        bool paidRepairShop;\n    }\n\n    event ProductCreated(\n        uint256 id,\n        string name,\n        uint256 price,\n        uint256 insurancePrice,\n        address payable owner,\n        address payable insuranceOwner,\n        bool purchased,\n        bool insurancePurchased,\n        bool claimedPolice,\n        bool claimedRepair,\n        bool isStolen,\n        bool isRepaired,\n        bool isReimbursed,\n        bool paidRepairShop\n    );\n\n    event ProductPurchased(\n        uint256 id,\n        string name,\n        uint256 price,\n        uint256 insurancePrice,\n        address payable owner,\n        address payable insuranceOwner,\n        bool purchased,\n        bool insurancePurchased,\n        bool claimedPolice,\n        bool claimedRepair,\n        bool isStolen,\n        bool isRepaired,\n        bool isReimbursed,\n        bool paidRepairShop\n    );\n\n    event InsurancePurchased(\n        uint256 id,\n        string name,\n        uint256 price,\n        uint256 insurancePrice,\n        address payable owner,\n        address payable insuranceOwner,\n        bool purchased,\n        bool insurancePurchased,\n        bool claimedPolice,\n        bool claimedRepair,\n        bool isStolen,\n        bool isRepaired,\n        bool isReimbursed,\n        bool paidRepairShop\n    );\n\n     event PoliceClaimed(\n        uint256 id,\n        string name,\n        uint256 price,\n        uint256 insurancePrice,\n        address payable owner,\n        address payable insuranceOwner,\n        bool purchased,\n        bool insurancePurchased,\n        bool claimedPolice,\n        bool claimedRepair,\n        bool isStolen,\n        bool isRepaired,\n        bool isReimbursed,\n        bool paidRepairShop\n    );\n\n    event RepairClaimed(\n        uint256 id,\n        string name,\n        uint256 price,\n        uint256 insurancePrice,\n        address payable owner,\n        address payable insuranceOwner,\n        bool purchased,\n        bool insurancePurchased,\n        bool claimedPolice,\n        bool claimedRepair,\n        bool isStolen,\n        bool isRepaired,\n        bool isReimbursed,\n        bool paidRepairShop\n    );\n\n    event Stolen(\n        uint256 id,\n        string name,\n        uint256 price,\n        uint256 insurancePrice,\n        address payable owner,\n        address payable insuranceOwner,\n        bool purchased,\n        bool insurancePurchased,\n        bool claimedPolice,\n        bool claimedRepair,\n        bool isStolen,\n        bool isRepaired,\n        bool isReimbursed,\n        bool paidRepairShop\n    );\n\n    event Repaired(\n        uint256 id,\n        string name,\n        uint256 price,\n        uint256 insurancePrice,\n        address payable owner,\n        address payable insuranceOwner,\n        bool purchased,\n        bool insurancePurchased,\n        bool claimedPolice,\n        bool claimedRepair,\n        bool isStolen,\n        bool isRepaired,\n        bool isReimbursed,\n        bool paidRepairShop\n    );\n\n    event Reimbursed(\n        uint256 id,\n        string name,\n        uint256 price,\n        uint256 insurancePrice,\n        address payable owner,\n        address payable insuranceOwner,\n        bool purchased,\n        bool insurancePurchased,\n        bool claimedPolice,\n        bool claimedRepair,\n        bool isStolen,\n        bool isRepaired,\n        bool isReimbursed,\n        bool paidRepairShop\n    );\n\n     event RepairShopPaid(\n        uint256 id,\n        string name,\n        uint256 price,\n        uint256 insurancePrice,\n        address payable owner,\n        address payable insuranceOwner,\n        bool purchased,\n        bool insurancePurchased,\n        bool claimedPolice,\n        bool claimedRepair,\n        bool isStolen,\n        bool isRepaired,\n        bool isReimbursed,\n        bool paidRepairShop\n    );\n\n    function createProduct(string memory _name, uint256 _price, uint256 _insurancePrice) public {\n        // Require a valid name\n        require(bytes(_name).length > 0, \"\");\n        // Require a valid price\n        require(_price > 0, \"\");\n        // Require a valid insurance price\n        require(_insurancePrice > 0, \"\");\n        // Increment product count\n        productCount++;\n        // Create the product\n        products[productCount] = Product(\n            productCount,\n            _name,\n            _price,\n            _insurancePrice,\n            msg.sender,\n            msg.sender,\n            false,\n            false,\n            false,\n            false,\n            false,\n            false,\n            false,\n            false\n        );\n        // Trigger an event\n        emit ProductCreated(\n            productCount,\n            _name,\n            _price,\n            _insurancePrice,\n            msg.sender,\n            msg.sender,\n            false,\n            false,\n            false,\n            false,\n            false,\n            false,\n            false,\n            false\n        );\n    }\n\n    function purchaseProduct(uint256 _id) public payable {\n        // Fetch the product\n        Product memory _product = products[_id];\n        // Fetch the owner\n        address payable _seller = _product.owner;\n        // Make sure the product has a valid id\n        require(_product.id > 0 && _product.id <= productCount, \"\");\n        // Require that there is enough Ether in the transaction\n        require(msg.value >= _product.price, \"\");\n        // Require that the product has not been purchased already\n        require(!_product.purchased, \"\");\n        // Require that the buyer is not the seller\n        require(_seller != msg.sender, \"\");\n        // Transfer ownership to the buyer\n        _product.owner = msg.sender;\n        // Mark as purchased\n        _product.purchased = true;\n        // Update the product\n        products[_id] = _product;\n        // Pay the seller by sending them Ether\n        address(_seller).transfer(msg.value);\n        // Trigger an event\n        emit ProductPurchased(\n            productCount,\n            _product.name,\n            _product.price,\n            _product.insurancePrice,\n            msg.sender,\n            _product.insuranceOwner,\n            true,\n            _product.insurancePurchased,\n            _product.claimedPolice,\n            _product.claimedRepair,\n            _product.isStolen,\n            _product.isRepaired,\n            _product.isReimbursed,\n            _product.paidRepairShop\n        );\n    }\n\n    function purchaseInsurance(uint256 _id) public payable {\n        // Fetch the product\n        Product memory _product = products[_id];\n        // Fetch the owner\n        address payable _seller = _product.insuranceOwner;\n        // Make sure the product has a valid id\n        require(_product.id > 0 && _product.id <= productCount, \"\");\n        // Require that there is enough Ether in the transaction\n        require(msg.value >= _product.insurancePrice, \"\");\n        // Require that the product has not been purchased already\n        require(_product.purchased, \"\");\n        // Require that the product has not been purchased already\n        require(!_product.insurancePurchased, \"\");\n        // Require that the buyer is not the seller\n        require(_seller != msg.sender, \"\");\n        // Mark as purchased\n        _product.insurancePurchased = true;\n        // Update the product\n        products[_id] = _product;\n        // Pay the seller by sending them Ether\n        address(_seller).transfer(msg.value);\n        // Trigger an event\n        emit InsurancePurchased(\n            productCount,\n            _product.name,\n            _product.price,\n            _product.insurancePrice,\n            _product.owner,\n            _product.insuranceOwner,\n            _product.purchased,\n            true,\n            _product.claimedPolice,\n            _product.claimedRepair,\n            _product.isStolen,\n            _product.isRepaired,\n            _product.isReimbursed,\n            _product.paidRepairShop\n        );\n    }\n\n    function claimPolice(uint256 _id) public {\n      Product memory _product = products[_id];\n      require(_product.purchased, 'you have not purchased the product');\n      require(_product.insurancePurchased, 'you have not purchased the insurance');\n      require(!_product.claimedRepair, 'repair is claimed for this product');\n      require(!_product.claimedPolice, 'police is claimed for this product');\n      _product.claimedPolice = true;\n      products[_id] = _product;\n      emit PoliceClaimed(\n            productCount,\n            _product.name,\n            _product.price,\n            _product.insurancePrice,\n            _product.owner,\n            _product.insuranceOwner,\n            _product.purchased,\n            _product.insurancePurchased,\n            true,\n            _product.claimedRepair,\n            _product.isStolen,\n            _product.isRepaired,\n            _product.isReimbursed,\n            _product.paidRepairShop\n        );\n    }\n\n    function claimRepair(uint256 _id) public {\n      Product memory _product = products[_id];\n      require(_product.purchased, 'you have not purchased the product');\n      require(_product.insurancePurchased, 'you have not purchased the insurance');\n      require(!_product.claimedPolice, 'police is claimed for this product');\n      require(!_product.claimedRepair, 'repair is claimed for this product');\n      _product.claimedRepair = true;\n      products[_id] = _product;\n      emit RepairClaimed(\n            productCount,\n            _product.name,\n            _product.price,\n            _product.insurancePrice,\n            _product.owner,\n            _product.insuranceOwner,\n            _product.purchased,\n            _product.insurancePurchased,\n            _product.claimedPolice,\n            true,\n            _product.isStolen,\n            _product.isRepaired,\n            _product.isReimbursed,\n            _product.paidRepairShop\n        );\n    }\n\n    function stolen(uint256 _id) public {\n      Product memory _product = products[_id];\n      require(_product.purchased, 'you have not purchased the product');\n      require(_product.insurancePurchased, 'you have not purchased the insurance');\n      require(!_product.claimedRepair, 'repair service is claimed for this item');\n      require(_product.claimedPolice, 'police service should be claimed first');\n      _product.isStolen = true;\n      products[_id] = _product;\n      emit Stolen(\n        productCount,\n        _product.name,\n        _product.price,\n        _product.insurancePrice,\n        _product.owner,\n        _product.insuranceOwner,\n        _product.purchased,\n        _product.insurancePurchased,\n        _product.claimedPolice,\n        _product.claimedRepair,\n        true,\n        _product.isRepaired,\n        _product.isReimbursed,\n        _product.paidRepairShop\n      );\n    }\n\n    function repaired(uint _id) public {\n       Product memory _product = products[_id];\n      require(_product.purchased, 'you have not purchased the product');\n      require(_product.insurancePurchased, 'you have not purchased the insurance');\n      require(!_product.claimedPolice, 'police service is claimed for this item');\n      require(_product.claimedRepair, 'repair service should be claimed first');\n      _product.isRepaired = true;\n      products[_id] = _product;\n      emit Repaired(\n        productCount,\n        _product.name,\n        _product.price,\n        _product.insurancePrice,\n        _product.owner,\n        _product.insuranceOwner,\n        _product.purchased,\n        _product.insurancePurchased,\n        _product.claimedPolice,\n        _product.claimedRepair,\n        _product.isStolen,\n        true,\n        _product.isReimbursed,\n        _product.paidRepairShop\n\n      );\n    }\n\n    function reimburse(uint256 _id) public payable {\n      Product memory _product = products[_id];\n      require(_product.isStolen, 'not stolen');\n      address payable _refundTo = _product.owner;\n      require(_refundTo != msg.sender, \"\");\n      _product.isReimbursed = true;\n      products[_id] = _product;\n      // refund the money to the product owner\n      address(_refundTo).transfer(msg.value);\n      emit Reimbursed(\n        productCount,\n        _product.name,\n        _product.price,\n        _product.insurancePrice,\n        _product.owner,\n        _product.insuranceOwner,\n        _product.purchased,\n        _product.insurancePurchased,\n        _product.claimedPolice,\n        _product.claimedRepair,\n        _product.isStolen,\n        _product.isRepaired,\n        true,\n        _product.paidRepairShop\n      );\n    }\n\n    function payRepairShop(uint256 _id, address payable _repairShop) public payable {\n      Product memory _product = products[_id];\n      uint256 repairCharge = _product.price / 2;\n      require(_product.isRepaired, 'not repaired');\n      require(msg.value == repairCharge, 'repair charge is not correct');\n      _product.paidRepairShop = true;\n      products[_id] = _product;\n      // add repair amount to repair shop\n      address(_repairShop).transfer(msg.value);\n      emit RepairShopPaid(\n        productCount,\n        _product.name,\n        _product.price,\n        _product.insurancePrice,\n        _product.owner,\n        _product.insuranceOwner,\n        _product.purchased,\n        _product.insurancePurchased,\n        _product.claimedPolice,\n        _product.claimedRepair,\n        _product.isStolen,\n        _product.isRepaired,\n        _product.isReimbursed,\n        true\n      );\n    }\n}\n",
  "sourcePath": "/home/pavansoratur/Github/InsuranceDapp/src/contracts/Insurance.sol",
  "compiler": {
    "name": "solc",
    "version": "0.5.0+commit.1d4f565a.Emscripten.clang"
  },
  "schemaVersion": "3.0.2",
  "updatedAt": "2020-05-15T19:58:01.206Z",
  "devdoc": {
    "methods": {}
  },
  "userdoc": {
    "methods": {}
  }
}