{
  "contractName": "Insurance",
  "abi": [
    {
      "constant": true,
      "inputs": [
        {
          "name": "",
          "type": "uint256"
        }
      ],
      "name": "products",
      "outputs": [
        {
          "name": "id",
          "type": "uint256"
        },
        {
          "name": "name",
          "type": "string"
        },
        {
          "name": "price",
          "type": "uint256"
        },
        {
          "name": "insurancePrice",
          "type": "uint256"
        },
        {
          "name": "owner",
          "type": "address"
        },
        {
          "name": "insuranceOwner",
          "type": "address"
        },
        {
          "name": "purchased",
          "type": "bool"
        },
        {
          "name": "insurancePurchased",
          "type": "bool"
        },
        {
          "name": "claimedPolice",
          "type": "bool"
        },
        {
          "name": "claimedRepair",
          "type": "bool"
        },
        {
          "name": "isStolen",
          "type": "bool"
        },
        {
          "name": "isRepaired",
          "type": "bool"
        },
        {
          "name": "isReimbursed",
          "type": "bool"
        },
        {
          "name": "paidRepairShop",
          "type": "bool"
        }
      ],
      "payable": false,
      "stateMutability": "view",
      "type": "function",
      "signature": "0x7acc0b20"
    },
    {
      "constant": true,
      "inputs": [],
      "name": "productCount",
      "outputs": [
        {
          "name": "",
          "type": "uint256"
        }
      ],
      "payable": false,
      "stateMutability": "view",
      "type": "function",
      "signature": "0xe0f6ef87"
    },
    {
      "anonymous": false,
      "inputs": [
        {
          "indexed": false,
          "name": "id",
          "type": "uint256"
        },
        {
          "indexed": false,
          "name": "name",
          "type": "string"
        },
        {
          "indexed": false,
          "name": "price",
          "type": "uint256"
        },
        {
          "indexed": false,
          "name": "insurancePrice",
          "type": "uint256"
        },
        {
          "indexed": false,
          "name": "owner",
          "type": "address"
        },
        {
          "indexed": false,
          "name": "insuranceOwner",
          "type": "address"
        },
        {
          "indexed": false,
          "name": "purchased",
          "type": "bool"
        },
        {
          "indexed": false,
          "name": "insurancePurchased",
          "type": "bool"
        },
        {
          "indexed": false,
          "name": "claimedPolice",
          "type": "bool"
        },
        {
          "indexed": false,
          "name": "claimedRepair",
          "type": "bool"
        },
        {
          "indexed": false,
          "name": "isStolen",
          "type": "bool"
        },
        {
          "indexed": false,
          "name": "isRepaired",
          "type": "bool"
        },
        {
          "indexed": false,
          "name": "isReimbursed",
          "type": "bool"
        },
        {
          "indexed": false,
          "name": "paidRepairShop",
          "type": "bool"
        }
      ],
      "name": "ProductCreated",
      "type": "event",
      "signature": "0x7dc113ebe2a59227be95a700733728215380342016add8ff01c2406f68513465"
    },
    {
      "anonymous": false,
      "inputs": [
        {
          "indexed": false,
          "name": "id",
          "type": "uint256"
        },
        {
          "indexed": false,
          "name": "name",
          "type": "string"
        },
        {
          "indexed": false,
          "name": "price",
          "type": "uint256"
        },
        {
          "indexed": false,
          "name": "insurancePrice",
          "type": "uint256"
        },
        {
          "indexed": false,
          "name": "owner",
          "type": "address"
        },
        {
          "indexed": false,
          "name": "insuranceOwner",
          "type": "address"
        },
        {
          "indexed": false,
          "name": "purchased",
          "type": "bool"
        }
      ],
      "name": "ProductPurchased",
      "type": "event",
      "signature": "0x36ac992abe2ddbea8dc80d0a4f5c26d17ee5afd63cbb211c696f7d5163864231"
    },
    {
      "anonymous": false,
      "inputs": [
        {
          "indexed": false,
          "name": "id",
          "type": "uint256"
        },
        {
          "indexed": false,
          "name": "name",
          "type": "string"
        },
        {
          "indexed": false,
          "name": "price",
          "type": "uint256"
        },
        {
          "indexed": false,
          "name": "insurancePrice",
          "type": "uint256"
        },
        {
          "indexed": false,
          "name": "owner",
          "type": "address"
        },
        {
          "indexed": false,
          "name": "insuranceOwner",
          "type": "address"
        },
        {
          "indexed": false,
          "name": "purchased",
          "type": "bool"
        },
        {
          "indexed": false,
          "name": "insurancePurchased",
          "type": "bool"
        }
      ],
      "name": "InsurancePurchased",
      "type": "event",
      "signature": "0xf1541d2179b1bdb3aa4380a42ebad463b137a00b0664a13b021cdf4f660717c0"
    },
    {
      "anonymous": false,
      "inputs": [
        {
          "indexed": false,
          "name": "claimedPolice",
          "type": "bool"
        }
      ],
      "name": "PoliceClaimed",
      "type": "event",
      "signature": "0x474e85f867d1eb17b3fb25d2f4b984cfc488679def09d65c935a215023205a21"
    },
    {
      "anonymous": false,
      "inputs": [
        {
          "indexed": false,
          "name": "claimedRepair",
          "type": "bool"
        }
      ],
      "name": "RepairClaimed",
      "type": "event",
      "signature": "0xf9b6f0074be23a2dff38346b8d82d7e7607559ad1d2b4347b28e20cff0e54cb5"
    },
    {
      "anonymous": false,
      "inputs": [
        {
          "indexed": false,
          "name": "isStolen",
          "type": "bool"
        }
      ],
      "name": "Stolen",
      "type": "event",
      "signature": "0x4c3032070622f679067fe6488b2e2e0379f629b4e8cfc6a803f3d3cba95cb7ac"
    },
    {
      "anonymous": false,
      "inputs": [
        {
          "indexed": false,
          "name": "notStolen",
          "type": "bool"
        }
      ],
      "name": "NotStolen",
      "type": "event",
      "signature": "0xd3d67e20cb06bd1bfd3e6ddd39e14130696107e2649ef4be11eb42bc1796d524"
    },
    {
      "anonymous": false,
      "inputs": [
        {
          "indexed": false,
          "name": "isRepaired",
          "type": "bool"
        }
      ],
      "name": "Repaired",
      "type": "event",
      "signature": "0xad0e2117edca91dc76684a2a464127c0b38e52323d5d0f92f337fbf0181da098"
    },
    {
      "anonymous": false,
      "inputs": [
        {
          "indexed": false,
          "name": "isReimbursed",
          "type": "bool"
        }
      ],
      "name": "Reimbursed",
      "type": "event",
      "signature": "0xd78b15e9df9a5f7179a82a1da177280adfc9efeaca8702d818f8c4e63f042cff"
    },
    {
      "anonymous": false,
      "inputs": [
        {
          "indexed": false,
          "name": "paidRepairShop",
          "type": "bool"
        }
      ],
      "name": "RepairShopPaid",
      "type": "event",
      "signature": "0x273b055fcea08aae10080716dea8512b64be15ecdebe178911786e1fc6418ed2"
    },
    {
      "constant": false,
      "inputs": [
        {
          "name": "_name",
          "type": "string"
        },
        {
          "name": "_price",
          "type": "uint256"
        },
        {
          "name": "_insurancePrice",
          "type": "uint256"
        }
      ],
      "name": "createProduct",
      "outputs": [],
      "payable": false,
      "stateMutability": "nonpayable",
      "type": "function",
      "signature": "0x7bf12b1c"
    },
    {
      "constant": false,
      "inputs": [
        {
          "name": "_id",
          "type": "uint256"
        },
        {
          "name": "_repairShop",
          "type": "address"
        },
        {
          "name": "_police",
          "type": "address"
        }
      ],
      "name": "purchaseProduct",
      "outputs": [],
      "payable": true,
      "stateMutability": "payable",
      "type": "function",
      "signature": "0xc7304073"
    },
    {
      "constant": false,
      "inputs": [
        {
          "name": "_id",
          "type": "uint256"
        },
        {
          "name": "_repairShop",
          "type": "address"
        },
        {
          "name": "_police",
          "type": "address"
        }
      ],
      "name": "purchaseInsurance",
      "outputs": [],
      "payable": true,
      "stateMutability": "payable",
      "type": "function",
      "signature": "0x362578d2"
    },
    {
      "constant": false,
      "inputs": [
        {
          "name": "_id",
          "type": "uint256"
        },
        {
          "name": "_repairShop",
          "type": "address"
        },
        {
          "name": "_police",
          "type": "address"
        }
      ],
      "name": "claimPolice",
      "outputs": [],
      "payable": false,
      "stateMutability": "nonpayable",
      "type": "function",
      "signature": "0x356e4be8"
    },
    {
      "constant": false,
      "inputs": [
        {
          "name": "_id",
          "type": "uint256"
        },
        {
          "name": "_repairShop",
          "type": "address"
        },
        {
          "name": "_police",
          "type": "address"
        }
      ],
      "name": "claimRepair",
      "outputs": [],
      "payable": false,
      "stateMutability": "nonpayable",
      "type": "function",
      "signature": "0xd50d2309"
    },
    {
      "constant": false,
      "inputs": [
        {
          "name": "_id",
          "type": "uint256"
        },
        {
          "name": "_repairShop",
          "type": "address"
        },
        {
          "name": "_police",
          "type": "address"
        }
      ],
      "name": "stolen",
      "outputs": [],
      "payable": false,
      "stateMutability": "nonpayable",
      "type": "function",
      "signature": "0xd07de8f9"
    },
    {
      "constant": false,
      "inputs": [
        {
          "name": "_id",
          "type": "uint256"
        },
        {
          "name": "_repairShop",
          "type": "address"
        },
        {
          "name": "_police",
          "type": "address"
        }
      ],
      "name": "repaired",
      "outputs": [],
      "payable": false,
      "stateMutability": "nonpayable",
      "type": "function",
      "signature": "0xc117e08a"
    },
    {
      "constant": false,
      "inputs": [
        {
          "name": "_id",
          "type": "uint256"
        },
        {
          "name": "_repairShop",
          "type": "address"
        },
        {
          "name": "_police",
          "type": "address"
        }
      ],
      "name": "reimburse",
      "outputs": [],
      "payable": true,
      "stateMutability": "payable",
      "type": "function",
      "signature": "0x1297bbb1"
    },
    {
      "constant": false,
      "inputs": [
        {
          "name": "_id",
          "type": "uint256"
        },
        {
          "name": "_repairShop",
          "type": "address"
        },
        {
          "name": "_police",
          "type": "address"
        }
      ],
      "name": "payRepairShop",
      "outputs": [],
      "payable": true,
      "stateMutability": "payable",
      "type": "function",
      "signature": "0xbb7f0d7c"
    }
  ],
  "bytecode": "0x60806040526000805534801561001457600080fd5b50615c7180620000256000396000f3fe6080604052600436106100af576000357c0100000000000000000000000000000000000000000000000000000000900463ffffffff1680631297bbb1146100b4578063356e4be814610122578063362578d21461019d5780637acc0b201461020b5780637bf12b1c14610392578063bb7f0d7c1461046e578063c117e08a146104dc578063c730407314610557578063d07de8f9146105c5578063d50d230914610640578063e0f6ef87146106bb575b600080fd5b610120600480360360608110156100ca57600080fd5b8101908080359060200190929190803573ffffffffffffffffffffffffffffffffffffffff169060200190929190803573ffffffffffffffffffffffffffffffffffffffff1690602001909291905050506106e6565b005b34801561012e57600080fd5b5061019b6004803603606081101561014557600080fd5b8101908080359060200190929190803573ffffffffffffffffffffffffffffffffffffffff169060200190929190803573ffffffffffffffffffffffffffffffffffffffff169060200190929190505050610f12565b005b610209600480360360608110156101b357600080fd5b8101908080359060200190929190803573ffffffffffffffffffffffffffffffffffffffff169060200190929190803573ffffffffffffffffffffffffffffffffffffffff1690602001909291905050506118d1565b005b34801561021757600080fd5b506102446004803603602081101561022e57600080fd5b8101908080359060200190929190505050612392565b604051808f8152602001806020018e81526020018d81526020018c73ffffffffffffffffffffffffffffffffffffffff1673ffffffffffffffffffffffffffffffffffffffff1681526020018b73ffffffffffffffffffffffffffffffffffffffff1673ffffffffffffffffffffffffffffffffffffffff1681526020018a1515151581526020018915151515815260200188151515158152602001871515151581526020018615151515815260200185151515158152602001841515151581526020018315151515815260200182810382528f818151815260200191508051906020019080838360005b8381101561034a57808201518184015260208101905061032f565b50505050905090810190601f1680156103775780820380516001836020036101000a031916815260200191505b509f5050505050505050505050505050505060405180910390f35b34801561039e57600080fd5b5061046c600480360360608110156103b557600080fd5b81019080803590602001906401000000008111156103d257600080fd5b8201836020820111156103e457600080fd5b8035906020019184600183028401116401000000008311171561040657600080fd5b91908080601f016020809104026020016040519081016040528093929190818152602001838380828437600081840152601f19601f820116905080830192505050505050509192919290803590602001909291908035906020019092919050505061253e565b005b6104da6004803603606081101561048457600080fd5b8101908080359060200190929190803573ffffffffffffffffffffffffffffffffffffffff169060200190929190803573ffffffffffffffffffffffffffffffffffffffff169060200190929190505050612a5b565b005b3480156104e857600080fd5b50610555600480360360608110156104ff57600080fd5b8101908080359060200190929190803573ffffffffffffffffffffffffffffffffffffffff169060200190929190803573ffffffffffffffffffffffffffffffffffffffff16906020019092919050505061330a565b005b6105c36004803603606081101561056d57600080fd5b8101908080359060200190929190803573ffffffffffffffffffffffffffffffffffffffff169060200190929190803573ffffffffffffffffffffffffffffffffffffffff169060200190929190505050613d3a565b005b3480156105d157600080fd5b5061063e600480360360608110156105e857600080fd5b8101908080359060200190929190803573ffffffffffffffffffffffffffffffffffffffff169060200190929190803573ffffffffffffffffffffffffffffffffffffffff1690602001909291905050506146ff565b005b34801561064c57600080fd5b506106b96004803603606081101561066357600080fd5b8101908080359060200190929190803573ffffffffffffffffffffffffffffffffffffffff169060200190929190803573ffffffffffffffffffffffffffffffffffffffff16906020019092919050505061512f565b005b3480156106c757600080fd5b506106d0615aee565b6040518082815260200191505060405180910390f35b6106ee615af4565b600160008581526020019081526020016000206101c0604051908101604052908160008201548152602001600182018054600181600116156101000203166002900480601f0160208091040260200160405190810160405280929190818152602001828054600181600116156101000203166002900480156107b15780601f10610786576101008083540402835291602001916107b1565b820191906000526020600020905b81548152906001019060200180831161079457829003601f168201915b5050505050815260200160028201548152602001600382015481526020016004820160009054906101000a900473ffffffffffffffffffffffffffffffffffffffff1673ffffffffffffffffffffffffffffffffffffffff1673ffffffffffffffffffffffffffffffffffffffff1681526020016005820160009054906101000a900473ffffffffffffffffffffffffffffffffffffffff1673ffffffffffffffffffffffffffffffffffffffff1673ffffffffffffffffffffffffffffffffffffffff1681526020016005820160149054906101000a900460ff161515151581526020016005820160159054906101000a900460ff161515151581526020016005820160169054906101000a900460ff161515151581526020016005820160179054906101000a900460ff161515151581526020016005820160189054906101000a900460ff161515151581526020016005820160199054906101000a900460ff1615151515815260200160058201601a9054906101000a900460ff1615151515815260200160058201601b9054906101000a900460ff161515151581525050905080610140015115156109ce576040517f08c379a000000000000000000000000000000000000000000000000000000000815260040180806020018281038252600a8152602001807f6e6f742073746f6c656e0000000000000000000000000000000000000000000081525060200191505060405180910390fd5b6000816080015190503373ffffffffffffffffffffffffffffffffffffffff168173ffffffffffffffffffffffffffffffffffffffff1614151515610aa1576040517f08c379a00000000000000000000000000000000000000000000000000000000081526004018080602001828103825260318152602001807f70726f64756374206f776e65722063616e6e6f74207265696d6275727365207081526020017f726f6475637420746f2068696d73656c6600000000000000000000000000000081525060400191505060405180910390fd5b3373ffffffffffffffffffffffffffffffffffffffff168473ffffffffffffffffffffffffffffffffffffffff1614151515610b45576040517f08c379a00000000000000000000000000000000000000000000000000000000081526004018080602001828103825260178152602001807f7265706169722063616e6e6f74207265696d627572736500000000000000000081525060200191505060405180910390fd5b3373ffffffffffffffffffffffffffffffffffffffff168373ffffffffffffffffffffffffffffffffffffffff1614151515610be9576040517f08c379a00000000000000000000000000000000000000000000000000000000081526004018080602001828103825260178152602001807f706f6c6963652063616e6e6f74207265696d627572736500000000000000000081525060200191505060405180910390fd5b8160a0015173ffffffffffffffffffffffffffffffffffffffff163373ffffffffffffffffffffffffffffffffffffffff16141515610c90576040517f08c379a000000000000000000000000000000000000000000000000000000000815260040180806020018281038252601d8152602001807f6f6e6c792070726f647563742073686f702063616e20646f207468697300000081525060200191505060405180910390fd5b6001826101800190151590811515815250508160016000878152602001908152602001600020600082015181600001556020820151816001019080519060200190610cdc929190615ba0565b50604082015181600201556060820151816003015560808201518160040160006101000a81548173ffffffffffffffffffffffffffffffffffffffff021916908373ffffffffffffffffffffffffffffffffffffffff16021790555060a08201518160050160006101000a81548173ffffffffffffffffffffffffffffffffffffffff021916908373ffffffffffffffffffffffffffffffffffffffff16021790555060c08201518160050160146101000a81548160ff02191690831515021790555060e08201518160050160156101000a81548160ff0219169083151502179055506101008201518160050160166101000a81548160ff0219169083151502179055506101208201518160050160176101000a81548160ff0219169083151502179055506101408201518160050160186101000a81548160ff0219169083151502179055506101608201518160050160196101000a81548160ff02191690831515021790555061018082015181600501601a6101000a81548160ff0219169083151502179055506101a082015181600501601b6101000a81548160ff0219169083151502179055509050508073ffffffffffffffffffffffffffffffffffffffff166108fc349081150290604051600060405180830381858888f19350505050158015610ece573d6000803e3d6000fd5b507fd78b15e9df9a5f7179a82a1da177280adfc9efeaca8702d818f8c4e63f042cff6001604051808215151515815260200191505060405180910390a15050505050565b610f1a615af4565b600160008581526020019081526020016000206101c0604051908101604052908160008201548152602001600182018054600181600116156101000203166002900480601f016020809104026020016040519081016040528092919081815260200182805460018160011615610100020316600290048015610fdd5780601f10610fb257610100808354040283529160200191610fdd565b820191906000526020600020905b815481529060010190602001808311610fc057829003601f168201915b5050505050815260200160028201548152602001600382015481526020016004820160009054906101000a900473ffffffffffffffffffffffffffffffffffffffff1673ffffffffffffffffffffffffffffffffffffffff1673ffffffffffffffffffffffffffffffffffffffff1681526020016005820160009054906101000a900473ffffffffffffffffffffffffffffffffffffffff1673ffffffffffffffffffffffffffffffffffffffff1673ffffffffffffffffffffffffffffffffffffffff1681526020016005820160149054906101000a900460ff161515151581526020016005820160159054906101000a900460ff161515151581526020016005820160169054906101000a900460ff161515151581526020016005820160179054906101000a900460ff161515151581526020016005820160189054906101000a900460ff161515151581526020016005820160199054906101000a900460ff1615151515815260200160058201601a9054906101000a900460ff1615151515815260200160058201601b9054906101000a900460ff16151515158152505090508060c00151151561121f576040517f08c379a00000000000000000000000000000000000000000000000000000000081526004018080602001828103825260228152602001807f796f752068617665206e6f7420707572636861736564207468652070726f647581526020017f637400000000000000000000000000000000000000000000000000000000000081525060400191505060405180910390fd5b8060e0015115156112be576040517f08c379a00000000000000000000000000000000000000000000000000000000081526004018080602001828103825260248152602001807f796f752068617665206e6f74207075726368617365642074686520696e73757281526020017f616e63650000000000000000000000000000000000000000000000000000000081525060400191505060405180910390fd5b80610120015115151561135f576040517f08c379a00000000000000000000000000000000000000000000000000000000081526004018080602001828103825260228152602001807f72657061697220697320636c61696d656420666f7220746869732070726f647581526020017f637400000000000000000000000000000000000000000000000000000000000081525060400191505060405180910390fd5b806101000151151515611400576040517f08c379a00000000000000000000000000000000000000000000000000000000081526004018080602001828103825260228152602001807f706f6c69636520697320636c61696d656420666f7220746869732070726f647581526020017f637400000000000000000000000000000000000000000000000000000000000081525060400191505060405180910390fd5b3373ffffffffffffffffffffffffffffffffffffffff168160a0015173ffffffffffffffffffffffffffffffffffffffff16141515156114a8576040517f08c379a00000000000000000000000000000000000000000000000000000000081526004018080602001828103825260138152602001807f73656c6c65722063616e6e6f7420636c61696d0000000000000000000000000081525060200191505060405180910390fd5b3373ffffffffffffffffffffffffffffffffffffffff168373ffffffffffffffffffffffffffffffffffffffff161415151561154c576040517f08c379a000000000000000000000000000000000000000000000000000000000815260040180806020018281038252601a8152602001807f7265706169722063616e6e6f7420636c61696d20706f6c69636500000000000081525060200191505060405180910390fd5b3373ffffffffffffffffffffffffffffffffffffffff168273ffffffffffffffffffffffffffffffffffffffff16141515156115f0576040517f08c379a000000000000000000000000000000000000000000000000000000000815260040180806020018281038252601a8152602001807f706f6c6963652063616e6e6f7420636c61696d20706f6c69636500000000000081525060200191505060405180910390fd5b806080015173ffffffffffffffffffffffffffffffffffffffff163373ffffffffffffffffffffffffffffffffffffffff16141515611697576040517f08c379a000000000000000000000000000000000000000000000000000000000815260040180806020018281038252601c8152602001807f6f6e6c792070726f64756374206f776e65722063616e20636c61696d0000000081525060200191505060405180910390fd5b60018161010001901515908115158152505080600160008681526020019081526020016000206000820151816000015560208201518160010190805190602001906116e3929190615ba0565b50604082015181600201556060820151816003015560808201518160040160006101000a81548173ffffffffffffffffffffffffffffffffffffffff021916908373ffffffffffffffffffffffffffffffffffffffff16021790555060a08201518160050160006101000a81548173ffffffffffffffffffffffffffffffffffffffff021916908373ffffffffffffffffffffffffffffffffffffffff16021790555060c08201518160050160146101000a81548160ff02191690831515021790555060e08201518160050160156101000a81548160ff0219169083151502179055506101008201518160050160166101000a81548160ff0219169083151502179055506101208201518160050160176101000a81548160ff0219169083151502179055506101408201518160050160186101000a81548160ff0219169083151502179055506101608201518160050160196101000a81548160ff02191690831515021790555061018082015181600501601a6101000a81548160ff0219169083151502179055506101a082015181600501601b6101000a81548160ff0219169083151502179055509050507f474e85f867d1eb17b3fb25d2f4b984cfc488679def09d65c935a215023205a216001604051808215151515815260200191505060405180910390a150505050565b6118d9615af4565b600160008581526020019081526020016000206101c0604051908101604052908160008201548152602001600182018054600181600116156101000203166002900480601f01602080910402602001604051908101604052809291908181526020018280546001816001161561010002031660029004801561199c5780601f106119715761010080835404028352916020019161199c565b820191906000526020600020905b81548152906001019060200180831161197f57829003601f168201915b5050505050815260200160028201548152602001600382015481526020016004820160009054906101000a900473ffffffffffffffffffffffffffffffffffffffff1673ffffffffffffffffffffffffffffffffffffffff1673ffffffffffffffffffffffffffffffffffffffff1681526020016005820160009054906101000a900473ffffffffffffffffffffffffffffffffffffffff1673ffffffffffffffffffffffffffffffffffffffff1673ffffffffffffffffffffffffffffffffffffffff1681526020016005820160149054906101000a900460ff161515151581526020016005820160159054906101000a900460ff161515151581526020016005820160169054906101000a900460ff161515151581526020016005820160179054906101000a900460ff161515151581526020016005820160189054906101000a900460ff161515151581526020016005820160199054906101000a900460ff1615151515815260200160058201601a9054906101000a900460ff1615151515815260200160058201601b9054906101000a900460ff161515151581525050905060008160a00151905060008260000151118015611b625750600054826000015111155b1515611bd6576040517f08c379a00000000000000000000000000000000000000000000000000000000081526004018080602001828103825260148152602001807f70726f64756374206973206e6f742076616c696400000000000000000000000081525060200191505060405180910390fd5b81606001513410151515611c52576040517f08c379a00000000000000000000000000000000000000000000000000000000081526004018080602001828103825260118152602001807f77726f6e67206d6f6e65792076616c756500000000000000000000000000000081525060200191505060405180910390fd5b8160c001511515611ccb576040517f08c379a00000000000000000000000000000000000000000000000000000000081526004018080602001828103825260188152602001807f70726f64756374206973206e6f7420707572636861736564000000000000000081525060200191505060405180910390fd5b8160e00151151515611d45576040517f08c379a00000000000000000000000000000000000000000000000000000000081526004018080602001828103825260168152602001807f696e737572616e6365206973207075726368617365640000000000000000000081525060200191505060405180910390fd5b3373ffffffffffffffffffffffffffffffffffffffff168173ffffffffffffffffffffffffffffffffffffffff1614151515611de9576040517f08c379a00000000000000000000000000000000000000000000000000000000081526004018080602001828103825260138152602001807f73656c6c6572206973207468652062757965720000000000000000000000000081525060200191505060405180910390fd5b3373ffffffffffffffffffffffffffffffffffffffff168473ffffffffffffffffffffffffffffffffffffffff1614151515611e8d576040517f08c379a000000000000000000000000000000000000000000000000000000000815260040180806020018281038252601b8152602001807f7265706169722063616e6e6f742062757920696e737572616e6365000000000081525060200191505060405180910390fd5b3373ffffffffffffffffffffffffffffffffffffffff168373ffffffffffffffffffffffffffffffffffffffff1614151515611f31576040517f08c379a000000000000000000000000000000000000000000000000000000000815260040180806020018281038252601b8152602001807f706f6c6963652063616e6e6f742062757920696e737572616e6365000000000081525060200191505060405180910390fd5b816080015173ffffffffffffffffffffffffffffffffffffffff163373ffffffffffffffffffffffffffffffffffffffff16141515611ffe576040517f08c379a00000000000000000000000000000000000000000000000000000000081526004018080602001828103825260288152602001807f6f6e6c792070726f64756374206f776e65722063616e2062757920746865206981526020017f6e737572616e636500000000000000000000000000000000000000000000000081525060400191505060405180910390fd5b60018260e00190151590811515815250508160016000878152602001908152602001600020600082015181600001556020820151816001019080519060200190612049929190615ba0565b50604082015181600201556060820151816003015560808201518160040160006101000a81548173ffffffffffffffffffffffffffffffffffffffff021916908373ffffffffffffffffffffffffffffffffffffffff16021790555060a08201518160050160006101000a81548173ffffffffffffffffffffffffffffffffffffffff021916908373ffffffffffffffffffffffffffffffffffffffff16021790555060c08201518160050160146101000a81548160ff02191690831515021790555060e08201518160050160156101000a81548160ff0219169083151502179055506101008201518160050160166101000a81548160ff0219169083151502179055506101208201518160050160176101000a81548160ff0219169083151502179055506101408201518160050160186101000a81548160ff0219169083151502179055506101608201518160050160196101000a81548160ff02191690831515021790555061018082015181600501601a6101000a81548160ff0219169083151502179055506101a082015181600501601b6101000a81548160ff0219169083151502179055509050508073ffffffffffffffffffffffffffffffffffffffff166108fc349081150290604051600060405180830381858888f1935050505015801561223b573d6000803e3d6000fd5b507ff1541d2179b1bdb3aa4380a42ebad463b137a00b0664a13b021cdf4f660717c060005483602001518460400151856060015186608001518760a001518860c00151600160405180898152602001806020018881526020018781526020018673ffffffffffffffffffffffffffffffffffffffff1673ffffffffffffffffffffffffffffffffffffffff1681526020018573ffffffffffffffffffffffffffffffffffffffff1673ffffffffffffffffffffffffffffffffffffffff1681526020018415151515815260200183151515158152602001828103825289818151815260200191508051906020019080838360005b8381101561234a57808201518184015260208101905061232f565b50505050905090810190601f1680156123775780820380516001836020036101000a031916815260200191505b50995050505050505050505060405180910390a15050505050565b6001602052806000526040600020600091509050806000015490806001018054600181600116156101000203166002900480601f0160208091040260200160405190810160405280929190818152602001828054600181600116156101000203166002900480156124445780601f1061241957610100808354040283529160200191612444565b820191906000526020600020905b81548152906001019060200180831161242757829003601f168201915b5050505050908060020154908060030154908060040160009054906101000a900473ffffffffffffffffffffffffffffffffffffffff16908060050160009054906101000a900473ffffffffffffffffffffffffffffffffffffffff16908060050160149054906101000a900460ff16908060050160159054906101000a900460ff16908060050160169054906101000a900460ff16908060050160179054906101000a900460ff16908060050160189054906101000a900460ff16908060050160199054906101000a900460ff169080600501601a9054906101000a900460ff169080600501601b9054906101000a900460ff1690508e565b60008351111515612592576040517f08c379a0000000000000000000000000000000000000000000000000000000008152600401808060200182810382526000815260200160200191505060405180910390fd5b6000821115156125e5576040517f08c379a0000000000000000000000000000000000000000000000000000000008152600401808060200182810382526000815260200160200191505060405180910390fd5b600081111515612638576040517f08c379a0000000000000000000000000000000000000000000000000000000008152600401808060200182810382526000815260200160200191505060405180910390fd5b60008081548092919060010191905055506101c06040519081016040528060005481526020018481526020018381526020018281526020013373ffffffffffffffffffffffffffffffffffffffff1681526020013373ffffffffffffffffffffffffffffffffffffffff168152602001600015158152602001600015158152602001600015158152602001600015158152602001600015158152602001600015158152602001600015158152602001600015158152506001600080548152602001908152602001600020600082015181600001556020820151816001019080519060200190612728929190615ba0565b50604082015181600201556060820151816003015560808201518160040160006101000a81548173ffffffffffffffffffffffffffffffffffffffff021916908373ffffffffffffffffffffffffffffffffffffffff16021790555060a08201518160050160006101000a81548173ffffffffffffffffffffffffffffffffffffffff021916908373ffffffffffffffffffffffffffffffffffffffff16021790555060c08201518160050160146101000a81548160ff02191690831515021790555060e08201518160050160156101000a81548160ff0219169083151502179055506101008201518160050160166101000a81548160ff0219169083151502179055506101208201518160050160176101000a81548160ff0219169083151502179055506101408201518160050160186101000a81548160ff0219169083151502179055506101608201518160050160196101000a81548160ff02191690831515021790555061018082015181600501601a6101000a81548160ff0219169083151502179055506101a082015181600501601b6101000a81548160ff0219169083151502179055509050507f7dc113ebe2a59227be95a700733728215380342016add8ff01c2406f685134656000548484843333600080600080600080600080604051808f8152602001806020018e81526020018d81526020018c73ffffffffffffffffffffffffffffffffffffffff1673ffffffffffffffffffffffffffffffffffffffff1681526020018b73ffffffffffffffffffffffffffffffffffffffff1673ffffffffffffffffffffffffffffffffffffffff1681526020018a1515151581526020018915151515815260200188151515158152602001871515151581526020018615151515815260200185151515158152602001841515151581526020018315151515815260200182810382528f818151815260200191508051906020019080838360005b83811015612a0f5780820151818401526020810190506129f4565b50505050905090810190601f168015612a3c5780820380516001836020036101000a031916815260200191505b509f5050505050505050505050505050505060405180910390a1505050565b612a63615af4565b600160008581526020019081526020016000206101c0604051908101604052908160008201548152602001600182018054600181600116156101000203166002900480601f016020809104026020016040519081016040528092919081815260200182805460018160011615610100020316600290048015612b265780601f10612afb57610100808354040283529160200191612b26565b820191906000526020600020905b815481529060010190602001808311612b0957829003601f168201915b5050505050815260200160028201548152602001600382015481526020016004820160009054906101000a900473ffffffffffffffffffffffffffffffffffffffff1673ffffffffffffffffffffffffffffffffffffffff1673ffffffffffffffffffffffffffffffffffffffff1681526020016005820160009054906101000a900473ffffffffffffffffffffffffffffffffffffffff1673ffffffffffffffffffffffffffffffffffffffff1673ffffffffffffffffffffffffffffffffffffffff1681526020016005820160149054906101000a900460ff161515151581526020016005820160159054906101000a900460ff161515151581526020016005820160169054906101000a900460ff161515151581526020016005820160179054906101000a900460ff161515151581526020016005820160189054906101000a900460ff161515151581526020016005820160199054906101000a900460ff1615151515815260200160058201601a9054906101000a900460ff1615151515815260200160058201601b9054906101000a900460ff1615151515815250509050600060028260400151811515612cdb57fe5b0490508161016001511515612d58576040517f08c379a000000000000000000000000000000000000000000000000000000000815260040180806020018281038252600c8152602001807f6e6f74207265706169726564000000000000000000000000000000000000000081525060200191505060405180910390fd5b8034141515612dcf576040517f08c379a000000000000000000000000000000000000000000000000000000000815260040180806020018281038252601c8152602001807f72657061697220636861726765206973206e6f7420636f72726563740000000081525060200191505060405180910390fd5b3373ffffffffffffffffffffffffffffffffffffffff168473ffffffffffffffffffffffffffffffffffffffff1614151515612e99576040517f08c379a00000000000000000000000000000000000000000000000000000000081526004018080602001828103825260308152602001807f7265706169722073686f702063616e6e6f74207061792068696d73656c66207481526020017f68652072657061697220616d6f756e740000000000000000000000000000000081525060400191505060405180910390fd5b3373ffffffffffffffffffffffffffffffffffffffff168473ffffffffffffffffffffffffffffffffffffffff1614151515612f3d576040517f08c379a00000000000000000000000000000000000000000000000000000000081526004018080602001828103825260198152602001807f7265706169722063616e6e6f74207061792068696d73656c660000000000000081525060200191505060405180910390fd5b3373ffffffffffffffffffffffffffffffffffffffff168373ffffffffffffffffffffffffffffffffffffffff1614151515612fe1576040517f08c379a000000000000000000000000000000000000000000000000000000000815260040180806020018281038252601c8152602001807f706f6c6963652063616e6e6f742070617920746865207265706169720000000081525060200191505060405180910390fd5b8160a0015173ffffffffffffffffffffffffffffffffffffffff163373ffffffffffffffffffffffffffffffffffffffff16141515613088576040517f08c379a000000000000000000000000000000000000000000000000000000000815260040180806020018281038252601d8152602001807f6f6e6c792070726f647563742073686f702063616e20646f207468697300000081525060200191505060405180910390fd5b6001826101a001901515908115158152505081600160008781526020019081526020016000206000820151816000015560208201518160010190805190602001906130d4929190615ba0565b50604082015181600201556060820151816003015560808201518160040160006101000a81548173ffffffffffffffffffffffffffffffffffffffff021916908373ffffffffffffffffffffffffffffffffffffffff16021790555060a08201518160050160006101000a81548173ffffffffffffffffffffffffffffffffffffffff021916908373ffffffffffffffffffffffffffffffffffffffff16021790555060c08201518160050160146101000a81548160ff02191690831515021790555060e08201518160050160156101000a81548160ff0219169083151502179055506101008201518160050160166101000a81548160ff0219169083151502179055506101208201518160050160176101000a81548160ff0219169083151502179055506101408201518160050160186101000a81548160ff0219169083151502179055506101608201518160050160196101000a81548160ff02191690831515021790555061018082015181600501601a6101000a81548160ff0219169083151502179055506101a082015181600501601b6101000a81548160ff0219169083151502179055509050508373ffffffffffffffffffffffffffffffffffffffff166108fc349081150290604051600060405180830381858888f193505050501580156132c6573d6000803e3d6000fd5b507f273b055fcea08aae10080716dea8512b64be15ecdebe178911786e1fc6418ed26001604051808215151515815260200191505060405180910390a15050505050565b613312615af4565b600160008581526020019081526020016000206101c0604051908101604052908160008201548152602001600182018054600181600116156101000203166002900480601f0160208091040260200160405190810160405280929190818152602001828054600181600116156101000203166002900480156133d55780601f106133aa576101008083540402835291602001916133d5565b820191906000526020600020905b8154815290600101906020018083116133b857829003601f168201915b5050505050815260200160028201548152602001600382015481526020016004820160009054906101000a900473ffffffffffffffffffffffffffffffffffffffff1673ffffffffffffffffffffffffffffffffffffffff1673ffffffffffffffffffffffffffffffffffffffff1681526020016005820160009054906101000a900473ffffffffffffffffffffffffffffffffffffffff1673ffffffffffffffffffffffffffffffffffffffff1673ffffffffffffffffffffffffffffffffffffffff1681526020016005820160149054906101000a900460ff161515151581526020016005820160159054906101000a900460ff161515151581526020016005820160169054906101000a900460ff161515151581526020016005820160179054906101000a900460ff161515151581526020016005820160189054906101000a900460ff161515151581526020016005820160199054906101000a900460ff1615151515815260200160058201601a9054906101000a900460ff1615151515815260200160058201601b9054906101000a900460ff16151515158152505090508060c001511515613617576040517f08c379a00000000000000000000000000000000000000000000000000000000081526004018080602001828103825260228152602001807f796f752068617665206e6f7420707572636861736564207468652070726f647581526020017f637400000000000000000000000000000000000000000000000000000000000081525060400191505060405180910390fd5b8060e0015115156136b6576040517f08c379a00000000000000000000000000000000000000000000000000000000081526004018080602001828103825260248152602001807f796f752068617665206e6f74207075726368617365642074686520696e73757281526020017f616e63650000000000000000000000000000000000000000000000000000000081525060400191505060405180910390fd5b806101000151151515613757576040517f08c379a00000000000000000000000000000000000000000000000000000000081526004018080602001828103825260278152602001807f706f6c696365207365727669636520697320636c61696d656420666f7220746881526020017f6973206974656d0000000000000000000000000000000000000000000000000081525060400191505060405180910390fd5b80610120015115156137f7576040517f08c379a00000000000000000000000000000000000000000000000000000000081526004018080602001828103825260268152602001807f72657061697220736572766963652073686f756c6420626520636c61696d656481526020017f206669727374000000000000000000000000000000000000000000000000000081525060400191505060405180910390fd5b3373ffffffffffffffffffffffffffffffffffffffff16816080015173ffffffffffffffffffffffffffffffffffffffff16141515156138c5576040517f08c379a000000000000000000000000000000000000000000000000000000000815260040180806020018281038252602c8152602001807f62757965722063616e6e6f74206465636964652069662069742069732072657081526020017f6169726564206f72206e6f74000000000000000000000000000000000000000081525060400191505060405180910390fd5b3373ffffffffffffffffffffffffffffffffffffffff168160a0015173ffffffffffffffffffffffffffffffffffffffff1614151515613993576040517f08c379a000000000000000000000000000000000000000000000000000000000815260040180806020018281038252602d8152602001807f73656c6c65722063616e6e6f742064656369646520696620697420697320726581526020017f706169726564206f72206e6f740000000000000000000000000000000000000081525060400191505060405180910390fd5b3373ffffffffffffffffffffffffffffffffffffffff168273ffffffffffffffffffffffffffffffffffffffff1614151515613a5d576040517f08c379a00000000000000000000000000000000000000000000000000000000081526004018080602001828103825260248152602001807f706f6c6963652063616e6e6f7420646563696465207265706169726564206f7281526020017f206e6f740000000000000000000000000000000000000000000000000000000081525060400191505060405180910390fd5b8273ffffffffffffffffffffffffffffffffffffffff163373ffffffffffffffffffffffffffffffffffffffff16141515613b00576040517f08c379a00000000000000000000000000000000000000000000000000000000081526004018080602001828103825260178152602001807f6f6e6c79207265706169722063616e20646f207468697300000000000000000081525060200191505060405180910390fd5b6001816101600190151590811515815250508060016000868152602001908152602001600020600082015181600001556020820151816001019080519060200190613b4c929190615ba0565b50604082015181600201556060820151816003015560808201518160040160006101000a81548173ffffffffffffffffffffffffffffffffffffffff021916908373ffffffffffffffffffffffffffffffffffffffff16021790555060a08201518160050160006101000a81548173ffffffffffffffffffffffffffffffffffffffff021916908373ffffffffffffffffffffffffffffffffffffffff16021790555060c08201518160050160146101000a81548160ff02191690831515021790555060e08201518160050160156101000a81548160ff0219169083151502179055506101008201518160050160166101000a81548160ff0219169083151502179055506101208201518160050160176101000a81548160ff0219169083151502179055506101408201518160050160186101000a81548160ff0219169083151502179055506101608201518160050160196101000a81548160ff02191690831515021790555061018082015181600501601a6101000a81548160ff0219169083151502179055506101a082015181600501601b6101000a81548160ff0219169083151502179055509050507fad0e2117edca91dc76684a2a464127c0b38e52323d5d0f92f337fbf0181da0986001604051808215151515815260200191505060405180910390a150505050565b613d42615af4565b600160008581526020019081526020016000206101c0604051908101604052908160008201548152602001600182018054600181600116156101000203166002900480601f016020809104026020016040519081016040528092919081815260200182805460018160011615610100020316600290048015613e055780601f10613dda57610100808354040283529160200191613e05565b820191906000526020600020905b815481529060010190602001808311613de857829003601f168201915b5050505050815260200160028201548152602001600382015481526020016004820160009054906101000a900473ffffffffffffffffffffffffffffffffffffffff1673ffffffffffffffffffffffffffffffffffffffff1673ffffffffffffffffffffffffffffffffffffffff1681526020016005820160009054906101000a900473ffffffffffffffffffffffffffffffffffffffff1673ffffffffffffffffffffffffffffffffffffffff1673ffffffffffffffffffffffffffffffffffffffff1681526020016005820160149054906101000a900460ff161515151581526020016005820160159054906101000a900460ff161515151581526020016005820160169054906101000a900460ff161515151581526020016005820160179054906101000a900460ff161515151581526020016005820160189054906101000a900460ff161515151581526020016005820160199054906101000a900460ff1615151515815260200160058201601a9054906101000a900460ff1615151515815260200160058201601b9054906101000a900460ff161515151581525050905060008160800151905060008260000151118015613fcb5750600054826000015111155b151561403f576040517f08c379a00000000000000000000000000000000000000000000000000000000081526004018080602001828103825260148152602001807f70726f64756374206973206e6f742076616c696400000000000000000000000081525060200191505060405180910390fd5b816040015134101515156140bb576040517f08c379a00000000000000000000000000000000000000000000000000000000081526004018080602001828103825260118152602001807f77726f6e67206d6f6e65792076616c756500000000000000000000000000000081525060200191505060405180910390fd5b8160c00151151515614135576040517f08c379a000000000000000000000000000000000000000000000000000000000815260040180806020018281038252601c8152602001807f70726f647563742069732070757263686173656420616c72656164790000000081525060200191505060405180910390fd5b3373ffffffffffffffffffffffffffffffffffffffff168173ffffffffffffffffffffffffffffffffffffffff16141515156141d9576040517f08c379a00000000000000000000000000000000000000000000000000000000081526004018080602001828103825260138152602001807f73656c6c6572206973207468652062757965720000000000000000000000000081525060200191505060405180910390fd5b3373ffffffffffffffffffffffffffffffffffffffff168473ffffffffffffffffffffffffffffffffffffffff16141515156142a3576040517f08c379a00000000000000000000000000000000000000000000000000000000081526004018080602001828103825260218152602001807f7265706169722073686f702063616e6e6f74206372656174652070726f64756381526020017f740000000000000000000000000000000000000000000000000000000000000081525060400191505060405180910390fd5b3373ffffffffffffffffffffffffffffffffffffffff168373ffffffffffffffffffffffffffffffffffffffff1614151515614347576040517f08c379a000000000000000000000000000000000000000000000000000000000815260040180806020018281038252601c8152602001807f706f6c6963652063616e6e6f74206372656174652070726f647563740000000081525060200191505060405180910390fd5b33826080019073ffffffffffffffffffffffffffffffffffffffff16908173ffffffffffffffffffffffffffffffffffffffff168152505060018260c001901515908115158152505081600160008781526020019081526020016000206000820151816000015560208201518160010190805190602001906143ca929190615ba0565b50604082015181600201556060820151816003015560808201518160040160006101000a81548173ffffffffffffffffffffffffffffffffffffffff021916908373ffffffffffffffffffffffffffffffffffffffff16021790555060a08201518160050160006101000a81548173ffffffffffffffffffffffffffffffffffffffff021916908373ffffffffffffffffffffffffffffffffffffffff16021790555060c08201518160050160146101000a81548160ff02191690831515021790555060e08201518160050160156101000a81548160ff0219169083151502179055506101008201518160050160166101000a81548160ff0219169083151502179055506101208201518160050160176101000a81548160ff0219169083151502179055506101408201518160050160186101000a81548160ff0219169083151502179055506101608201518160050160196101000a81548160ff02191690831515021790555061018082015181600501601a6101000a81548160ff0219169083151502179055506101a082015181600501601b6101000a81548160ff0219169083151502179055509050508073ffffffffffffffffffffffffffffffffffffffff166108fc349081150290604051600060405180830381858888f193505050501580156145bc573d6000803e3d6000fd5b507f36ac992abe2ddbea8dc80d0a4f5c26d17ee5afd63cbb211c696f7d5163864231600054836020015184604001518560600151338760a00151600160405180888152602001806020018781526020018681526020018573ffffffffffffffffffffffffffffffffffffffff1673ffffffffffffffffffffffffffffffffffffffff1681526020018473ffffffffffffffffffffffffffffffffffffffff1673ffffffffffffffffffffffffffffffffffffffff16815260200183151515158152602001828103825288818151815260200191508051906020019080838360005b838110156146b857808201518184015260208101905061469d565b50505050905090810190601f1680156146e55780820380516001836020036101000a031916815260200191505b509850505050505050505060405180910390a15050505050565b614707615af4565b600160008581526020019081526020016000206101c0604051908101604052908160008201548152602001600182018054600181600116156101000203166002900480601f0160208091040260200160405190810160405280929190818152602001828054600181600116156101000203166002900480156147ca5780601f1061479f576101008083540402835291602001916147ca565b820191906000526020600020905b8154815290600101906020018083116147ad57829003601f168201915b5050505050815260200160028201548152602001600382015481526020016004820160009054906101000a900473ffffffffffffffffffffffffffffffffffffffff1673ffffffffffffffffffffffffffffffffffffffff1673ffffffffffffffffffffffffffffffffffffffff1681526020016005820160009054906101000a900473ffffffffffffffffffffffffffffffffffffffff1673ffffffffffffffffffffffffffffffffffffffff1673ffffffffffffffffffffffffffffffffffffffff1681526020016005820160149054906101000a900460ff161515151581526020016005820160159054906101000a900460ff161515151581526020016005820160169054906101000a900460ff161515151581526020016005820160179054906101000a900460ff161515151581526020016005820160189054906101000a900460ff161515151581526020016005820160199054906101000a900460ff1615151515815260200160058201601a9054906101000a900460ff1615151515815260200160058201601b9054906101000a900460ff16151515158152505090508060c001511515614a0c576040517f08c379a00000000000000000000000000000000000000000000000000000000081526004018080602001828103825260228152602001807f796f752068617665206e6f7420707572636861736564207468652070726f647581526020017f637400000000000000000000000000000000000000000000000000000000000081525060400191505060405180910390fd5b8060e001511515614aab576040517f08c379a00000000000000000000000000000000000000000000000000000000081526004018080602001828103825260248152602001807f796f752068617665206e6f74207075726368617365642074686520696e73757281526020017f616e63650000000000000000000000000000000000000000000000000000000081525060400191505060405180910390fd5b806101200151151515614b4c576040517f08c379a00000000000000000000000000000000000000000000000000000000081526004018080602001828103825260278152602001807f726570616972207365727669636520697320636c61696d656420666f7220746881526020017f6973206974656d0000000000000000000000000000000000000000000000000081525060400191505060405180910390fd5b8061010001511515614bec576040517f08c379a00000000000000000000000000000000000000000000000000000000081526004018080602001828103825260268152602001807f706f6c69636520736572766963652073686f756c6420626520636c61696d656481526020017f206669727374000000000000000000000000000000000000000000000000000081525060400191505060405180910390fd5b3373ffffffffffffffffffffffffffffffffffffffff16816080015173ffffffffffffffffffffffffffffffffffffffff1614151515614cba576040517f08c379a000000000000000000000000000000000000000000000000000000000815260040180806020018281038252602a8152602001807f62757965722063616e6e6f74206465636964652069662069742069732073746f81526020017f6c656e206f72206e6f740000000000000000000000000000000000000000000081525060400191505060405180910390fd5b3373ffffffffffffffffffffffffffffffffffffffff168160a0015173ffffffffffffffffffffffffffffffffffffffff1614151515614d88576040517f08c379a000000000000000000000000000000000000000000000000000000000815260040180806020018281038252602b8152602001807f73656c6c65722063616e6e6f742064656369646520696620697420697320737481526020017f6f6c656e206f72206e6f7400000000000000000000000000000000000000000081525060400191505060405180910390fd5b3373ffffffffffffffffffffffffffffffffffffffff168373ffffffffffffffffffffffffffffffffffffffff1614151515614e52576040517f08c379a00000000000000000000000000000000000000000000000000000000081526004018080602001828103825260228152602001807f7265706169722063616e6e6f74206465636964652073746f6c656e206f72206e81526020017f6f7400000000000000000000000000000000000000000000000000000000000081525060400191505060405180910390fd5b8173ffffffffffffffffffffffffffffffffffffffff163373ffffffffffffffffffffffffffffffffffffffff16141515614ef5576040517f08c379a00000000000000000000000000000000000000000000000000000000081526004018080602001828103825260168152602001807f6f6e6c7920706f6c6963652063616e206465636964650000000000000000000081525060200191505060405180910390fd5b6001816101400190151590811515815250508060016000868152602001908152602001600020600082015181600001556020820151816001019080519060200190614f41929190615ba0565b50604082015181600201556060820151816003015560808201518160040160006101000a81548173ffffffffffffffffffffffffffffffffffffffff021916908373ffffffffffffffffffffffffffffffffffffffff16021790555060a08201518160050160006101000a81548173ffffffffffffffffffffffffffffffffffffffff021916908373ffffffffffffffffffffffffffffffffffffffff16021790555060c08201518160050160146101000a81548160ff02191690831515021790555060e08201518160050160156101000a81548160ff0219169083151502179055506101008201518160050160166101000a81548160ff0219169083151502179055506101208201518160050160176101000a81548160ff0219169083151502179055506101408201518160050160186101000a81548160ff0219169083151502179055506101608201518160050160196101000a81548160ff02191690831515021790555061018082015181600501601a6101000a81548160ff0219169083151502179055506101a082015181600501601b6101000a81548160ff0219169083151502179055509050507f4c3032070622f679067fe6488b2e2e0379f629b4e8cfc6a803f3d3cba95cb7ac6001604051808215151515815260200191505060405180910390a150505050565b615137615af4565b600160008581526020019081526020016000206101c0604051908101604052908160008201548152602001600182018054600181600116156101000203166002900480601f0160208091040260200160405190810160405280929190818152602001828054600181600116156101000203166002900480156151fa5780601f106151cf576101008083540402835291602001916151fa565b820191906000526020600020905b8154815290600101906020018083116151dd57829003601f168201915b5050505050815260200160028201548152602001600382015481526020016004820160009054906101000a900473ffffffffffffffffffffffffffffffffffffffff1673ffffffffffffffffffffffffffffffffffffffff1673ffffffffffffffffffffffffffffffffffffffff1681526020016005820160009054906101000a900473ffffffffffffffffffffffffffffffffffffffff1673ffffffffffffffffffffffffffffffffffffffff1673ffffffffffffffffffffffffffffffffffffffff1681526020016005820160149054906101000a900460ff161515151581526020016005820160159054906101000a900460ff161515151581526020016005820160169054906101000a900460ff161515151581526020016005820160179054906101000a900460ff161515151581526020016005820160189054906101000a900460ff161515151581526020016005820160199054906101000a900460ff1615151515815260200160058201601a9054906101000a900460ff1615151515815260200160058201601b9054906101000a900460ff16151515158152505090508060c00151151561543c576040517f08c379a00000000000000000000000000000000000000000000000000000000081526004018080602001828103825260228152602001807f796f752068617665206e6f7420707572636861736564207468652070726f647581526020017f637400000000000000000000000000000000000000000000000000000000000081525060400191505060405180910390fd5b8060e0015115156154db576040517f08c379a00000000000000000000000000000000000000000000000000000000081526004018080602001828103825260248152602001807f796f752068617665206e6f74207075726368617365642074686520696e73757281526020017f616e63650000000000000000000000000000000000000000000000000000000081525060400191505060405180910390fd5b80610100015115151561557c576040517f08c379a00000000000000000000000000000000000000000000000000000000081526004018080602001828103825260228152602001807f706f6c69636520697320636c61696d656420666f7220746869732070726f647581526020017f637400000000000000000000000000000000000000000000000000000000000081525060400191505060405180910390fd5b80610120015115151561561d576040517f08c379a00000000000000000000000000000000000000000000000000000000081526004018080602001828103825260228152602001807f72657061697220697320636c61696d656420666f7220746869732070726f647581526020017f637400000000000000000000000000000000000000000000000000000000000081525060400191505060405180910390fd5b3373ffffffffffffffffffffffffffffffffffffffff168160a0015173ffffffffffffffffffffffffffffffffffffffff16141515156156c5576040517f08c379a00000000000000000000000000000000000000000000000000000000081526004018080602001828103825260138152602001807f73656c6c65722063616e6e6f7420636c61696d0000000000000000000000000081525060200191505060405180910390fd5b3373ffffffffffffffffffffffffffffffffffffffff168373ffffffffffffffffffffffffffffffffffffffff1614151515615769576040517f08c379a000000000000000000000000000000000000000000000000000000000815260040180806020018281038252601a8152602001807f7265706169722063616e6e6f7420636c61696d2072657061697200000000000081525060200191505060405180910390fd5b3373ffffffffffffffffffffffffffffffffffffffff168273ffffffffffffffffffffffffffffffffffffffff161415151561580d576040517f08c379a000000000000000000000000000000000000000000000000000000000815260040180806020018281038252601a8152602001807f706f6c6963652063616e6e6f7420636c61696d2072657061697200000000000081525060200191505060405180910390fd5b806080015173ffffffffffffffffffffffffffffffffffffffff163373ffffffffffffffffffffffffffffffffffffffff161415156158b4576040517f08c379a000000000000000000000000000000000000000000000000000000000815260040180806020018281038252601c8152602001807f6f6e6c792070726f64756374206f776e65722063616e20636c61696d0000000081525060200191505060405180910390fd5b6001816101200190151590811515815250508060016000868152602001908152602001600020600082015181600001556020820151816001019080519060200190615900929190615ba0565b50604082015181600201556060820151816003015560808201518160040160006101000a81548173ffffffffffffffffffffffffffffffffffffffff021916908373ffffffffffffffffffffffffffffffffffffffff16021790555060a08201518160050160006101000a81548173ffffffffffffffffffffffffffffffffffffffff021916908373ffffffffffffffffffffffffffffffffffffffff16021790555060c08201518160050160146101000a81548160ff02191690831515021790555060e08201518160050160156101000a81548160ff0219169083151502179055506101008201518160050160166101000a81548160ff0219169083151502179055506101208201518160050160176101000a81548160ff0219169083151502179055506101408201518160050160186101000a81548160ff0219169083151502179055506101608201518160050160196101000a81548160ff02191690831515021790555061018082015181600501601a6101000a81548160ff0219169083151502179055506101a082015181600501601b6101000a81548160ff0219169083151502179055509050507ff9b6f0074be23a2dff38346b8d82d7e7607559ad1d2b4347b28e20cff0e54cb56001604051808215151515815260200191505060405180910390a150505050565b60005481565b6101c06040519081016040528060008152602001606081526020016000815260200160008152602001600073ffffffffffffffffffffffffffffffffffffffff168152602001600073ffffffffffffffffffffffffffffffffffffffff1681526020016000151581526020016000151581526020016000151581526020016000151581526020016000151581526020016000151581526020016000151581526020016000151581525090565b828054600181600116156101000203166002900490600052602060002090601f016020900481019282601f10615be157805160ff1916838001178555615c0f565b82800160010185558215615c0f579182015b82811115615c0e578251825591602001919060010190615bf3565b5b509050615c1c9190615c20565b5090565b615c4291905b80821115615c3e576000816000905550600101615c26565b5090565b9056fea165627a7a7230582020bbecef3cdae953d8063a1c4d5972950cf25ea7ee013b43f41811d8cffc61020029",
  "source": "pragma solidity ^0.5.0;\n\ncontract Insurance {\n\n    uint256 public productCount = 0;\n\n    mapping(uint256 => Product) public products;\n\n    struct Product {\n        uint256 id;\n        string name;\n        uint256 price;\n        uint256 insurancePrice;\n        address payable owner;\n        address payable insuranceOwner;\n        bool purchased;\n        bool insurancePurchased;\n        bool claimedPolice;\n        bool claimedRepair;\n        bool isStolen;\n        bool isRepaired;\n        bool isReimbursed;\n        bool paidRepairShop;\n    }\n\n    event ProductCreated(\n        uint256 id,\n        string name,\n        uint256 price,\n        uint256 insurancePrice,\n        address payable owner,\n        address payable insuranceOwner,\n        bool purchased,\n        bool insurancePurchased,\n        bool claimedPolice,\n        bool claimedRepair,\n        bool isStolen,\n        bool isRepaired,\n        bool isReimbursed,\n        bool paidRepairShop\n    );\n\n    event ProductPurchased(\n        uint256 id,\n        string name,\n        uint256 price,\n        uint256 insurancePrice,\n        address payable owner,\n        address payable insuranceOwner,\n        bool purchased\n    );\n\n    event InsurancePurchased(\n        uint256 id,\n        string name,\n        uint256 price,\n        uint256 insurancePrice,\n        address payable owner,\n        address payable insuranceOwner,\n        bool purchased,\n        bool insurancePurchased\n    );\n\n    event PoliceClaimed(bool claimedPolice);\n    event RepairClaimed(bool claimedRepair);\n    event Stolen(bool isStolen);\n    event NotStolen(bool notStolen);\n    event Repaired(bool isRepaired);\n    event Reimbursed(bool isReimbursed);\n    event RepairShopPaid(bool paidRepairShop);\n\n    function createProduct(string memory _name, uint256 _price, uint256 _insurancePrice) public {\n        require(bytes(_name).length > 0, \"\");\n        require(_price > 0, \"\");\n        require(_insurancePrice > 0, \"\");\n        productCount++;\n        products[productCount] = Product(\n            productCount,\n            _name,\n            _price,\n            _insurancePrice,\n            msg.sender,\n            msg.sender,\n            false,\n            false,\n            false,\n            false,\n            false,\n            false,\n            false,\n            false\n        );\n        emit ProductCreated(\n            productCount,\n            _name,\n            _price,\n            _insurancePrice,\n            msg.sender,\n            msg.sender,\n            false,\n            false,\n            false,\n            false,\n            false,\n            false,\n            false,\n            false\n        );\n    }\n\n    function purchaseProduct(uint256 _id, address _repairShop, address _police) public payable {\n        Product memory _product = products[_id];\n        address payable _seller = _product.owner;\n        require(_product.id > 0 && _product.id <= productCount, \"product is not valid\");\n        require(msg.value >= _product.price, \"wrong money value\");\n        require(!_product.purchased, \"product is purchased already\");\n        require(_seller != msg.sender, \"seller is the buyer\");\n        require(_repairShop != msg.sender, 'repair shop cannot create product');\n        require(_police != msg.sender, 'police cannot create product');\n        _product.owner = msg.sender;\n        _product.purchased = true;\n        products[_id] = _product;\n        address(_seller).transfer(msg.value);\n        emit ProductPurchased(\n            productCount,\n            _product.name,\n            _product.price,\n            _product.insurancePrice,\n            msg.sender,\n            _product.insuranceOwner,\n            true\n        );\n    }\n\n    function purchaseInsurance(uint256 _id, address _repairShop, address _police) public payable {\n        Product memory _product = products[_id];\n        address payable _seller = _product.insuranceOwner;\n        require(_product.id > 0 && _product.id <= productCount, \"product is not valid\");\n        require(msg.value >= _product.insurancePrice, \"wrong money value\");\n        require(_product.purchased, \"product is not purchased\");\n        require(!_product.insurancePurchased, \"insurance is purchased\");\n        require(_seller != msg.sender, \"seller is the buyer\");\n        require(_repairShop != msg.sender, \"repair cannot buy insurance\");\n        require(_police != msg.sender, \"police cannot buy insurance\");\n        require(msg.sender == _product.owner, \"only product owner can buy the insurance\");\n        _product.insurancePurchased = true;\n        products[_id] = _product;\n        address(_seller).transfer(msg.value);\n        emit InsurancePurchased(\n            productCount,\n            _product.name,\n            _product.price,\n            _product.insurancePrice,\n            _product.owner,\n            _product.insuranceOwner,\n            _product.purchased,\n            true\n        );\n    }\n\n    function claimPolice(uint256 _id, address _repairShop, address _police) public {\n      Product memory _product = products[_id];\n      require(_product.purchased, 'you have not purchased the product');\n      require(_product.insurancePurchased, 'you have not purchased the insurance');\n      require(!_product.claimedRepair, 'repair is claimed for this product');\n      require(!_product.claimedPolice, 'police is claimed for this product');\n      require(_product.insuranceOwner != msg.sender, 'seller cannot claim');\n      require(_repairShop != msg.sender, \"repair cannot claim police\");\n      require(_police != msg.sender, \"police cannot claim police\");\n      require(msg.sender == _product.owner, \"only product owner can claim\");\n      _product.claimedPolice = true;\n      products[_id] = _product;\n      emit PoliceClaimed(true);\n    }\n\n    function claimRepair(uint256 _id, address _repairShop, address _police) public {\n      Product memory _product = products[_id];\n      require(_product.purchased, 'you have not purchased the product');\n      require(_product.insurancePurchased, 'you have not purchased the insurance');\n      require(!_product.claimedPolice, 'police is claimed for this product');\n      require(!_product.claimedRepair, 'repair is claimed for this product');\n      require(_product.insuranceOwner != msg.sender, 'seller cannot claim');\n      require(_repairShop != msg.sender, \"repair cannot claim repair\");\n      require(_police != msg.sender, \"police cannot claim repair\");\n      require(msg.sender == _product.owner, \"only product owner can claim\");\n      _product.claimedRepair = true;\n      products[_id] = _product;\n      emit RepairClaimed(true);\n    }\n\n    function stolen(uint256 _id, address _repairShop, address _police) public {\n      Product memory _product = products[_id];\n      require(_product.purchased, 'you have not purchased the product');\n      require(_product.insurancePurchased, 'you have not purchased the insurance');\n      require(!_product.claimedRepair, 'repair service is claimed for this item');\n      require(_product.claimedPolice, 'police service should be claimed first');\n      require(_product.owner != msg.sender, 'buyer cannot decide if it is stolen or not');\n      require(_product.insuranceOwner != msg.sender, 'seller cannot decide if it is stolen or not');\n      require(_repairShop != msg.sender, \"repair cannot decide stolen or not\");\n      require(msg.sender == _police, \"only police can decide\");\n      _product.isStolen = true;\n      products[_id] = _product;\n      emit Stolen(true);\n    }\n\n    function repaired(uint _id, address _repairShop, address _police) public {\n       Product memory _product = products[_id];\n      require(_product.purchased, 'you have not purchased the product');\n      require(_product.insurancePurchased, 'you have not purchased the insurance');\n      require(!_product.claimedPolice, 'police service is claimed for this item');\n      require(_product.claimedRepair, 'repair service should be claimed first');\n      require(_product.owner != msg.sender, 'buyer cannot decide if it is repaired or not');\n      require(_product.insuranceOwner != msg.sender, 'seller cannot decide if it is repaired or not');\n      require(_police != msg.sender, \"police cannot decide repaired or not\");\n      require(msg.sender == _repairShop, \"only repair can do this\");\n      _product.isRepaired = true;\n      products[_id] = _product;\n      emit Repaired(true);\n    }\n\n    function reimburse(uint256 _id, address _repairShop, address _police) public payable {\n      Product memory _product = products[_id];\n      require(_product.isStolen, 'not stolen');\n      address payable _refundTo = _product.owner;\n      require(_refundTo != msg.sender, \"product owner cannot reimburse product to himself\");\n      require(_repairShop != msg.sender, \"repair cannot reimburse\");\n      require(_police != msg.sender, \"police cannot reimburse\");\n      require(msg.sender == _product.insuranceOwner, \"only product shop can do this\");\n      _product.isReimbursed = true;\n      products[_id] = _product;\n      address(_refundTo).transfer(msg.value);\n      emit Reimbursed(true);\n    }\n\n    function payRepairShop(uint256 _id, address payable _repairShop,  address _police) public payable {\n      Product memory _product = products[_id];\n      uint256 repairCharge = _product.price / 2;\n      require(_product.isRepaired, 'not repaired');\n      require(msg.value == repairCharge, 'repair charge is not correct');\n      require(_repairShop != msg.sender, 'repair shop cannot pay himself the repair amount');\n      require(_repairShop != msg.sender, \"repair cannot pay himself\");\n      require(_police != msg.sender, \"police cannot pay the repair\");\n      require(msg.sender == _product.insuranceOwner, \"only product shop can do this\");\n      _product.paidRepairShop = true;\n      products[_id] = _product;\n      address(_repairShop).transfer(msg.value);\n      emit RepairShopPaid(true);\n    }\n}\n",
  "sourcePath": "/home/pavansoratur/Github/InsuranceDapp/src/contracts/Insurance.sol",
  "compiler": {
    "name": "solc",
    "version": "0.5.0+commit.1d4f565a.Emscripten.clang"
  },
  "schemaVersion": "3.0.2",
  "updatedAt": "2020-05-21T17:52:58.123Z",
  "devdoc": {
    "methods": {}
  },
  "userdoc": {
    "methods": {}
  }
}